{
  "abi": [
    {
      "inputs": [
        {
          "internalType": "bytes32",
          "name": "messageId",
          "type": "bytes32"
        },
        {
          "internalType": "uint256",
          "name": "messageIndex",
          "type": "uint256"
        },
        {
          "internalType": "bytes",
          "name": "errorData",
          "type": "bytes"
        }
      ],
      "name": "MessageBatchFailure",
      "type": "error"
    },
    {
      "inputs": [
        {
          "internalType": "bytes32",
          "name": "messageId",
          "type": "bytes32"
        },
        {
          "internalType": "bytes",
          "name": "errorData",
          "type": "bytes"
        }
      ],
      "name": "MessageFailure",
      "type": "error"
    },
    {
      "inputs": [
        {
          "internalType": "bytes32",
          "name": "messageId",
          "type": "bytes32"
        }
      ],
      "name": "MessageIdAlreadyExecuted",
      "type": "error"
    },
    {
      "anonymous": false,
      "inputs": [
        {
          "indexed": true,
          "internalType": "bytes32",
          "name": "messageId",
          "type": "bytes32"
        },
        {
          "indexed": true,
          "internalType": "address",
          "name": "from",
          "type": "address"
        },
        {
          "indexed": true,
          "internalType": "uint256",
          "name": "toChainId",
          "type": "uint256"
        },
        {
          "indexed": false,
          "internalType": "address",
          "name": "to",
          "type": "address"
        },
        {
          "indexed": false,
          "internalType": "bytes",
          "name": "data",
          "type": "bytes"
        }
      ],
      "name": "MessageDispatched",
      "type": "event"
    },
    {
      "anonymous": false,
      "inputs": [
        {
          "indexed": true,
          "internalType": "uint256",
          "name": "fromChainId",
          "type": "uint256"
        },
        {
          "indexed": true,
          "internalType": "bytes32",
          "name": "messageId",
          "type": "bytes32"
        }
      ],
      "name": "MessageIdExecuted",
      "type": "event"
    },
    {
      "anonymous": false,
      "inputs": [
        {
          "indexed": true,
          "internalType": "address",
          "name": "previousOwner",
          "type": "address"
        },
        {
          "indexed": true,
          "internalType": "address",
          "name": "newOwner",
          "type": "address"
        }
      ],
      "name": "OwnershipTransferred",
      "type": "event"
    },
    {
      "anonymous": false,
      "inputs": [
        {
          "indexed": false,
          "internalType": "uint256",
          "name": "dstChainId",
          "type": "uint256"
        },
        {
          "indexed": false,
          "internalType": "address",
          "name": "receiverAdapter",
          "type": "address"
        }
      ],
      "name": "ReceiverAdapterUpdated",
      "type": "event"
    },
    {
      "anonymous": false,
      "inputs": [
        {
          "indexed": false,
          "internalType": "uint256",
          "name": "srcChainId",
          "type": "uint256"
        },
        {
          "indexed": false,
          "internalType": "address",
          "name": "senderAdapter",
          "type": "address"
        }
      ],
      "name": "SenderAdapterUpdated",
      "type": "event"
    },
    {
      "inputs": [
        {
          "internalType": "uint256",
          "name": "_toChainId",
          "type": "uint256"
        },
        {
          "internalType": "address",
          "name": "_to",
          "type": "address"
        },
        {
          "internalType": "bytes",
          "name": "_data",
          "type": "bytes"
        }
      ],
      "name": "dispatchMessage",
      "outputs": [
        {
          "internalType": "bytes32",
          "name": "",
          "type": "bytes32"
        }
      ],
      "stateMutability": "payable",
      "type": "function"
    },
    {
      "inputs": [
        {
          "internalType": "address",
          "name": "_srcContract",
          "type": "address"
        },
        {
          "internalType": "uint64",
          "name": "_srcChainId",
          "type": "uint64"
        },
        {
          "internalType": "bytes32",
          "name": "_msgId",
          "type": "bytes32"
        },
        {
          "internalType": "address",
          "name": "_multiMessageSender",
          "type": "address"
        },
        {
          "internalType": "address",
          "name": "_multiMessageReceiver",
          "type": "address"
        },
        {
          "internalType": "bytes",
          "name": "_data",
          "type": "bytes"
        }
      ],
      "name": "executeMessage",
      "outputs": [],
      "stateMutability": "nonpayable",
      "type": "function"
    },
    {
      "inputs": [
        {
          "internalType": "bytes32",
          "name": "",
          "type": "bytes32"
        }
      ],
      "name": "executedMessages",
      "outputs": [
        {
          "internalType": "bool",
          "name": "",
          "type": "bool"
        }
      ],
      "stateMutability": "view",
      "type": "function"
    },
    {
      "inputs": [],
      "name": "getChainId",
      "outputs": [
        {
          "internalType": "uint256",
          "name": "cid",
          "type": "uint256"
        }
      ],
      "stateMutability": "view",
      "type": "function"
    },
    {
      "inputs": [
        {
          "internalType": "uint256",
          "name": "",
          "type": "uint256"
        },
        {
          "internalType": "address",
          "name": "",
          "type": "address"
        },
        {
          "internalType": "bytes",
          "name": "",
          "type": "bytes"
        }
      ],
      "name": "getMessageFee",
      "outputs": [
        {
          "internalType": "uint256",
          "name": "",
          "type": "uint256"
        }
      ],
      "stateMutability": "pure",
      "type": "function"
    },
    {
      "inputs": [],
      "name": "name",
      "outputs": [
        {
          "internalType": "string",
          "name": "",
          "type": "string"
        }
      ],
      "stateMutability": "view",
      "type": "function"
    },
    {
      "inputs": [],
      "name": "nonce",
      "outputs": [
        {
          "internalType": "uint256",
          "name": "",
          "type": "uint256"
        }
      ],
      "stateMutability": "view",
      "type": "function"
    },
    {
      "inputs": [],
      "name": "owner",
      "outputs": [
        {
          "internalType": "address",
          "name": "",
          "type": "address"
        }
      ],
      "stateMutability": "view",
      "type": "function"
    },
    {
      "inputs": [
        {
          "internalType": "uint256",
          "name": "",
          "type": "uint256"
        }
      ],
      "name": "receiverAdapters",
      "outputs": [
        {
          "internalType": "address",
          "name": "",
          "type": "address"
        }
      ],
      "stateMutability": "view",
      "type": "function"
    },
    {
      "inputs": [],
      "name": "renounceOwnership",
      "outputs": [],
      "stateMutability": "nonpayable",
      "type": "function"
    },
    {
      "inputs": [
        {
          "internalType": "uint256",
          "name": "",
          "type": "uint256"
        }
      ],
      "name": "senderAdapters",
      "outputs": [
        {
          "internalType": "address",
          "name": "",
          "type": "address"
        }
      ],
      "stateMutability": "view",
      "type": "function"
    },
    {
      "inputs": [
        {
          "internalType": "address",
          "name": "newOwner",
          "type": "address"
        }
      ],
      "name": "transferOwnership",
      "outputs": [],
      "stateMutability": "nonpayable",
      "type": "function"
    },
    {
      "inputs": [
        {
          "internalType": "uint256[]",
          "name": "_dstChainIds",
          "type": "uint256[]"
        },
        {
          "internalType": "address[]",
          "name": "_receiverAdapters",
          "type": "address[]"
        }
      ],
      "name": "updateReceiverAdapter",
      "outputs": [],
      "stateMutability": "nonpayable",
      "type": "function"
    },
    {
      "inputs": [
        {
          "internalType": "uint256[]",
          "name": "_srcChainIds",
          "type": "uint256[]"
        },
        {
          "internalType": "address[]",
          "name": "_senderAdapters",
          "type": "address[]"
        }
      ],
      "name": "updateSenderAdapter",
      "outputs": [],
      "stateMutability": "nonpayable",
      "type": "function"
    }
  ],
  "bytecode": {
    "object": "0x608060405234801561001057600080fd5b5061001a3361001f565b61006f565b600080546001600160a01b038381166001600160a01b0319831681178455604051919092169283917f8be0079c531659141344cd1fd0a4f28419497f9722a3daafe3b4186f6b6457e09190a35050565b610df08061007e6000396000f3fe6080604052600436106100dd5760003560e01c8063affed0e01161007f578063cd2abd6611610059578063cd2abd6614610269578063d2776627146102a9578063f2fde38b146102df578063fe39827b146102ff57600080fd5b8063affed0e014610208578063bbec993c1461021e578063c73026961461023e57600080fd5b80633408e470116100bb5780633408e4701461019857806343d61f31146101b5578063715018a6146101d55780638da5cb5b146101ea57600080fd5b806306fdde03146100e25780630b3dfc6714610128578063215efdb014610176575b600080fd5b3480156100ee57600080fd5b50610112604051806040016040528060048152602001636d6f636b60e01b81525081565b60405161011f9190610a81565b60405180910390f35b34801561013457600080fd5b5061015e610143366004610a9b565b6002602052600090815260409020546001600160a01b031681565b6040516001600160a01b03909116815260200161011f565b34801561018257600080fd5b50610196610191366004610b19565b610312565b005b3480156101a457600080fd5b50465b60405190815260200161011f565b3480156101c157600080fd5b506101966101d0366004610bfa565b6104cb565b3480156101e157600080fd5b5061019661062d565b3480156101f657600080fd5b506000546001600160a01b031661015e565b34801561021457600080fd5b506101a760015481565b34801561022a57600080fd5b50610196610239366004610bfa565b610641565b34801561024a57600080fd5b506101a7610259366004610c66565b66038d7ea4c68000949350505050565b34801561027557600080fd5b50610299610284366004610a9b565b60046020526000908152604090205460ff1681565b604051901515815260200161011f565b3480156102b557600080fd5b5061015e6102c4366004610a9b565b6003602052600090815260409020546001600160a01b031681565b3480156102eb57600080fd5b506101966102fa366004610cb4565b61079c565b6101a761030d366004610c66565b610815565b67ffffffffffffffff86166000908152600360205260409020546001600160a01b0388811691161461038b5760405162461bcd60e51b815260206004820152601a60248201527f6e6f7420616c6c6f776564206d6573736167652073656e64657200000000000060448201526064015b60405180910390fd5b60008581526004602052604090205460ff16156103be5760405163153bf81360e31b815260048101869052602401610382565b6000858152600460205260409020805460ff19166001179055600080846001600160a01b03168484898b67ffffffffffffffff168a604051602001610407959493929190610ccf565b60408051601f198184030181529082905261042191610d00565b6000604051808303816000865af19150503d806000811461045e576040519150601f19603f3d011682016040523d82523d6000602084013e610463565b606091505b50915091508161048a578681604051632f9c844f60e21b8152600401610382929190610d1c565b604051879067ffffffffffffffff8a16907e769f3f82cb2a521c5b72f211aff687dae3cebd0b4631790417d1b17e15689a90600090a3505050505050505050565b6104d3610917565b8281146105145760405162461bcd60e51b815260206004820152600f60248201526e0dad2e6dac2e8c6d040d8cadccee8d608b1b6044820152606401610382565b60005b838110156106265782828281811061053157610531610d3d565b90506020020160208101906105469190610cb4565b6003600087878581811061055c5761055c610d3d565b90506020020135815260200190815260200160002060006101000a8154816001600160a01b0302191690836001600160a01b031602179055507f9139a67da6e19ecec5385e1a8369fe363a09195dfe90124ec496b70a1fdedc768585838181106105c8576105c8610d3d565b905060200201358484848181106105e1576105e1610d3d565b90506020020160208101906105f69190610cb4565b604080519283526001600160a01b0390911660208301520160405180910390a161061f81610d53565b9050610517565b5050505050565b610635610917565b61063f6000610971565b565b610649610917565b82811461068a5760405162461bcd60e51b815260206004820152600f60248201526e0dad2e6dac2e8c6d040d8cadccee8d608b1b6044820152606401610382565b60005b83811015610626578282828181106106a7576106a7610d3d565b90506020020160208101906106bc9190610cb4565b600260008787858181106106d2576106d2610d3d565b90506020020135815260200190815260200160002060006101000a8154816001600160a01b0302191690836001600160a01b031602179055507fe6e0801d01ab5bf2b55c3ce96ab43ea0bbf545cc39008a7dc4e8cd5fa881df2785858381811061073e5761073e610d3d565b9050602002013584848481811061075757610757610d3d565b905060200201602081019061076c9190610cb4565b604080519283526001600160a01b0390911660208301520160405180910390a161079581610d53565b905061068d565b6107a4610917565b6001600160a01b0381166108095760405162461bcd60e51b815260206004820152602660248201527f4f776e61626c653a206e6577206f776e657220697320746865207a65726f206160448201526564647265737360d01b6064820152608401610382565b61081281610971565b50565b6000848152600260205260408120546001600160a01b031661086f5760405162461bcd60e51b81526020600482015260136024820152723737903932b1b2b4bb32b91030b230b83a32b960691b6044820152606401610382565b66038d7ea4c680003410156108b95760405162461bcd60e51b815260206004820152601060248201526f696e73756666696369656e742066656560801b6044820152606401610382565b60006108c586866109c1565b905085336001600160a01b0316827fe2f8f20ddbedfce5eb59a8b930077e7f4906a01300b9318db5f90d1c96c7b6d488888860405161090693929190610d7a565b60405180910390a495945050505050565b6000546001600160a01b0316331461063f5760405162461bcd60e51b815260206004820181905260248201527f4f776e61626c653a2063616c6c6572206973206e6f7420746865206f776e65726044820152606401610382565b600080546001600160a01b038381166001600160a01b0319831681178455604051919092169283917f8be0079c531659141344cd1fd0a4f28419497f9722a3daafe3b4186f6b6457e09190a35050565b60018054604080514660208083019190915281830187905260608083018590526bffffffffffffffffffffffff1930821b811660808501529087901b1660948301528251808303608801815260a89092019092528051910120916000610a2683610d53565b919050555092915050565b60005b83811015610a4c578181015183820152602001610a34565b50506000910152565b60008151808452610a6d816020860160208601610a31565b601f01601f19169290920160200192915050565b602081526000610a946020830184610a55565b9392505050565b600060208284031215610aad57600080fd5b5035919050565b80356001600160a01b0381168114610acb57600080fd5b919050565b60008083601f840112610ae257600080fd5b50813567ffffffffffffffff811115610afa57600080fd5b602083019150836020828501011115610b1257600080fd5b9250929050565b600080600080600080600060c0888a031215610b3457600080fd5b610b3d88610ab4565b9650602088013567ffffffffffffffff8082168214610b5b57600080fd5b81975060408a01359650610b7160608b01610ab4565b9550610b7f60808b01610ab4565b945060a08a0135915080821115610b9557600080fd5b50610ba28a828b01610ad0565b989b979a50959850939692959293505050565b60008083601f840112610bc757600080fd5b50813567ffffffffffffffff811115610bdf57600080fd5b6020830191508360208260051b8501011115610b1257600080fd5b60008060008060408587031215610c1057600080fd5b843567ffffffffffffffff80821115610c2857600080fd5b610c3488838901610bb5565b90965094506020870135915080821115610c4d57600080fd5b50610c5a87828801610bb5565b95989497509550505050565b60008060008060608587031215610c7c57600080fd5b84359350610c8c60208601610ab4565b9250604085013567ffffffffffffffff811115610ca857600080fd5b610c5a87828801610ad0565b600060208284031215610cc657600080fd5b610a9482610ab4565b84868237909301918252602082015260609190911b6bffffffffffffffffffffffff19166040820152605401919050565b60008251610d12818460208701610a31565b9190910192915050565b828152604060208201526000610d356040830184610a55565b949350505050565b634e487b7160e01b600052603260045260246000fd5b600060018201610d7357634e487b7160e01b600052601160045260246000fd5b5060010190565b6001600160a01b03841681526040602082018190528101829052818360608301376000818301606090810191909152601f909201601f191601019291505056fea264697066735822122051338205a59ec2a05264cb7d7439f863d7bd826b92d9e144b4e8f088ce14077164736f6c63430008110033",
    "linkReferences": {}
  },
  "methodIdentifiers": {
    "dispatchMessage(uint256,address,bytes)": "fe39827b",
    "executeMessage(address,uint64,bytes32,address,address,bytes)": "215efdb0",
    "executedMessages(bytes32)": "cd2abd66",
    "getChainId()": "3408e470",
    "getMessageFee(uint256,address,bytes)": "c7302696",
    "name()": "06fdde03",
    "nonce()": "affed0e0",
    "owner()": "8da5cb5b",
    "receiverAdapters(uint256)": "0b3dfc67",
    "renounceOwnership()": "715018a6",
    "senderAdapters(uint256)": "d2776627",
    "transferOwnership(address)": "f2fde38b",
    "updateReceiverAdapter(uint256[],address[])": "bbec993c",
    "updateSenderAdapter(uint256[],address[])": "43d61f31"
  },
  "id": 53
}