{
  "abi": [
    {
      "inputs": [
        {
          "internalType": "contract IDeBridgeGate",
          "name": "_deBridgeGate",
          "type": "address"
        }
      ],
      "stateMutability": "nonpayable",
      "type": "constructor"
    },
    {
      "inputs": [],
      "name": "CallProxyBadRole",
      "type": "error"
    },
    {
      "inputs": [
        {
          "internalType": "bytes32",
          "name": "messageId",
          "type": "bytes32"
        },
        {
          "internalType": "uint256",
          "name": "messageIndex",
          "type": "uint256"
        },
        {
          "internalType": "bytes",
          "name": "errorData",
          "type": "bytes"
        }
      ],
      "name": "MessageBatchFailure",
      "type": "error"
    },
    {
      "inputs": [
        {
          "internalType": "bytes32",
          "name": "messageId",
          "type": "bytes32"
        },
        {
          "internalType": "bytes",
          "name": "errorData",
          "type": "bytes"
        }
      ],
      "name": "MessageFailure",
      "type": "error"
    },
    {
      "inputs": [
        {
          "internalType": "bytes32",
          "name": "messageId",
          "type": "bytes32"
        }
      ],
      "name": "MessageIdAlreadyExecuted",
      "type": "error"
    },
    {
      "inputs": [
        {
          "internalType": "address",
          "name": "nativeSender",
          "type": "address"
        },
        {
          "internalType": "uint256",
          "name": "chainIdFrom",
          "type": "uint256"
        }
      ],
      "name": "NativeSenderBadRole",
      "type": "error"
    },
    {
      "anonymous": false,
      "inputs": [
        {
          "indexed": true,
          "internalType": "uint256",
          "name": "fromChainId",
          "type": "uint256"
        },
        {
          "indexed": true,
          "internalType": "bytes32",
          "name": "messageId",
          "type": "bytes32"
        }
      ],
      "name": "MessageIdExecuted",
      "type": "event"
    },
    {
      "anonymous": false,
      "inputs": [
        {
          "indexed": true,
          "internalType": "address",
          "name": "previousOwner",
          "type": "address"
        },
        {
          "indexed": true,
          "internalType": "address",
          "name": "newOwner",
          "type": "address"
        }
      ],
      "name": "OwnershipTransferred",
      "type": "event"
    },
    {
      "anonymous": false,
      "inputs": [
        {
          "indexed": false,
          "internalType": "address",
          "name": "account",
          "type": "address"
        }
      ],
      "name": "Paused",
      "type": "event"
    },
    {
      "anonymous": false,
      "inputs": [
        {
          "indexed": false,
          "internalType": "uint256",
          "name": "srcChainId",
          "type": "uint256"
        },
        {
          "indexed": false,
          "internalType": "address",
          "name": "senderAdapter",
          "type": "address"
        }
      ],
      "name": "SenderAdapterUpdated",
      "type": "event"
    },
    {
      "anonymous": false,
      "inputs": [
        {
          "indexed": false,
          "internalType": "address",
          "name": "account",
          "type": "address"
        }
      ],
      "name": "Unpaused",
      "type": "event"
    },
    {
      "inputs": [],
      "name": "deBridgeGate",
      "outputs": [
        {
          "internalType": "contract IDeBridgeGate",
          "name": "",
          "type": "address"
        }
      ],
      "stateMutability": "view",
      "type": "function"
    },
    {
      "inputs": [
        {
          "internalType": "address",
          "name": "_srcSender",
          "type": "address"
        },
        {
          "internalType": "address",
          "name": "_destReceiver",
          "type": "address"
        },
        {
          "internalType": "bytes",
          "name": "_data",
          "type": "bytes"
        },
        {
          "internalType": "bytes32",
          "name": "_msgId",
          "type": "bytes32"
        }
      ],
      "name": "executeMessage",
      "outputs": [],
      "stateMutability": "nonpayable",
      "type": "function"
    },
    {
      "inputs": [
        {
          "internalType": "bytes32",
          "name": "",
          "type": "bytes32"
        }
      ],
      "name": "executedMessages",
      "outputs": [
        {
          "internalType": "bool",
          "name": "",
          "type": "bool"
        }
      ],
      "stateMutability": "view",
      "type": "function"
    },
    {
      "inputs": [],
      "name": "owner",
      "outputs": [
        {
          "internalType": "address",
          "name": "",
          "type": "address"
        }
      ],
      "stateMutability": "view",
      "type": "function"
    },
    {
      "inputs": [],
      "name": "pause",
      "outputs": [],
      "stateMutability": "nonpayable",
      "type": "function"
    },
    {
      "inputs": [],
      "name": "paused",
      "outputs": [
        {
          "internalType": "bool",
          "name": "",
          "type": "bool"
        }
      ],
      "stateMutability": "view",
      "type": "function"
    },
    {
      "inputs": [],
      "name": "renounceOwnership",
      "outputs": [],
      "stateMutability": "nonpayable",
      "type": "function"
    },
    {
      "inputs": [
        {
          "internalType": "uint256",
          "name": "",
          "type": "uint256"
        }
      ],
      "name": "senderAdapters",
      "outputs": [
        {
          "internalType": "address",
          "name": "",
          "type": "address"
        }
      ],
      "stateMutability": "view",
      "type": "function"
    },
    {
      "inputs": [
        {
          "internalType": "address",
          "name": "newOwner",
          "type": "address"
        }
      ],
      "name": "transferOwnership",
      "outputs": [],
      "stateMutability": "nonpayable",
      "type": "function"
    },
    {
      "inputs": [],
      "name": "unpause",
      "outputs": [],
      "stateMutability": "nonpayable",
      "type": "function"
    },
    {
      "inputs": [
        {
          "internalType": "uint256[]",
          "name": "_srcChainIds",
          "type": "uint256[]"
        },
        {
          "internalType": "address[]",
          "name": "_senderAdapters",
          "type": "address[]"
        }
      ],
      "name": "updateSenderAdapter",
      "outputs": [],
      "stateMutability": "nonpayable",
      "type": "function"
    }
  ],
  "bytecode": {
    "object": "0x60a060405234801561001057600080fd5b50604051610df3380380610df383398101604081905261002f916100a6565b61003833610056565b6000805460ff60a01b191690556001600160a01b03166080526100d6565b600080546001600160a01b038381166001600160a01b0319831681178455604051919092169283917f8be0079c531659141344cd1fd0a4f28419497f9722a3daafe3b4186f6b6457e09190a35050565b6000602082840312156100b857600080fd5b81516001600160a01b03811681146100cf57600080fd5b9392505050565b608051610cfb6100f86000396000818161013b01526101c80152610cfb6000f3fe608060405234801561001057600080fd5b50600436106100a95760003560e01c80638456cb59116100715780638456cb59146101095780638da5cb5b14610111578063ca777fbf14610136578063cd2abd661461015d578063d277662714610180578063f2fde38b146101a957600080fd5b80632ff06fa5146100ae5780633f4ba83a146100c357806343d61f31146100cb5780635c975abb146100de578063715018a614610101575b600080fd5b6100c16100bc36600461093a565b6101bc565b005b6100c16104cc565b6100c16100d9366004610a20565b6104de565b600054600160a01b900460ff165b60405190151581526020015b60405180910390f35b6100c1610640565b6100c1610652565b6000546001600160a01b03165b6040516001600160a01b0390911681526020016100f8565b61011e7f000000000000000000000000000000000000000000000000000000000000000081565b6100ec61016b366004610a8c565b60026020526000908152604090205460ff1681565b61011e61018e366004610a8c565b6001602052600090815260409020546001600160a01b031681565b6100c16101b7366004610aa5565b610662565b6101c46106db565b60007f00000000000000000000000000000000000000000000000000000000000000006001600160a01b0316632da688ac6040518163ffffffff1660e01b8152600401602060405180830381865afa158015610224573d6000803e3d6000fd5b505050506040513d601f19601f820116820180604052508101906102489190610ac9565b90506001600160a01b0381163314610273576040516324439f6760e21b815260040160405180910390fd5b60006102e5826001600160a01b0316632eb484916040518163ffffffff1660e01b8152600401600060405180830381865afa1580156102b6573d6000803e3d6000fd5b505050506040513d6000823e601f3d908101601f191682016040526102de9190810190610b20565b6000610728565b90506000826001600160a01b031663508ab0a06040518163ffffffff1660e01b8152600401602060405180830381865afa158015610327573d6000803e3d6000fd5b505050506040513d601f19601f8201168201806040525081019061034b9190610bcd565b6000818152600160205260409020549091506001600160a01b0383811691161461039f57604051630bb4918960e31b81526001600160a01b0383166004820152602481018290526044015b60405180910390fd5b60008481526002602052604090205460ff16156103d25760405163153bf81360e31b815260048101859052602401610396565b6000848152600260205260409020805460ff19166001179055600080886001600160a01b0316888888868e604051602001610411959493929190610be6565b60408051601f198184030181529082905261042b91610c17565b6000604051808303816000865af19150503d8060008114610468576040519150601f19603f3d011682016040523d82523d6000602084013e61046d565b606091505b509150915081610494578581604051632f9c844f60e21b8152600401610396929190610c33565b604051869084907e769f3f82cb2a521c5b72f211aff687dae3cebd0b4631790417d1b17e15689a90600090a350505050505050505050565b6104d4610793565b6104dc6107ed565b565b6104e6610793565b8281146105275760405162461bcd60e51b815260206004820152600f60248201526e0dad2e6dac2e8c6d040d8cadccee8d608b1b6044820152606401610396565b60005b838110156106395782828281811061054457610544610c6d565b90506020020160208101906105599190610aa5565b6001600087878581811061056f5761056f610c6d565b90506020020135815260200190815260200160002060006101000a8154816001600160a01b0302191690836001600160a01b031602179055507f9139a67da6e19ecec5385e1a8369fe363a09195dfe90124ec496b70a1fdedc768585838181106105db576105db610c6d565b905060200201358484848181106105f4576105f4610c6d565b90506020020160208101906106099190610aa5565b604080519283526001600160a01b0390911660208301520160405180910390a161063281610c99565b905061052a565b5050505050565b610648610793565b6104dc6000610842565b61065a610793565b6104dc610892565b61066a610793565b6001600160a01b0381166106cf5760405162461bcd60e51b815260206004820152602660248201527f4f776e61626c653a206e6577206f776e657220697320746865207a65726f206160448201526564647265737360d01b6064820152608401610396565b6106d881610842565b50565b600054600160a01b900460ff16156104dc5760405162461bcd60e51b815260206004820152601060248201526f14185d5cd8589b194e881c185d5cd95960821b6044820152606401610396565b6000610735826014610cb2565b8351101561077d5760405162461bcd60e51b8152602060048201526015602482015274746f416464726573735f6f75744f66426f756e647360581b6044820152606401610396565b5081810160200151600160601b90045b92915050565b6000546001600160a01b031633146104dc5760405162461bcd60e51b815260206004820181905260248201527f4f776e61626c653a2063616c6c6572206973206e6f7420746865206f776e65726044820152606401610396565b6107f56108d5565b6000805460ff60a01b191690557f5db9ee0a495bf2e6ff9c91a7834c1ba4fdd244a5e8aa4e537bd38aeae4b073aa335b6040516001600160a01b03909116815260200160405180910390a1565b600080546001600160a01b038381166001600160a01b0319831681178455604051919092169283917f8be0079c531659141344cd1fd0a4f28419497f9722a3daafe3b4186f6b6457e09190a35050565b61089a6106db565b6000805460ff60a01b1916600160a01b1790557f62e78cea01bee320cd4e420270b5ea74000d11b0c9f74754ebdbfc544b05a2586108253390565b600054600160a01b900460ff166104dc5760405162461bcd60e51b815260206004820152601460248201527314185d5cd8589b194e881b9bdd081c185d5cd95960621b6044820152606401610396565b6001600160a01b03811681146106d857600080fd5b60008060008060006080868803121561095257600080fd5b853561095d81610925565b9450602086013561096d81610925565b9350604086013567ffffffffffffffff8082111561098a57600080fd5b818801915088601f83011261099e57600080fd5b8135818111156109ad57600080fd5b8960208285010111156109bf57600080fd5b96999598505060200195606001359392505050565b60008083601f8401126109e657600080fd5b50813567ffffffffffffffff8111156109fe57600080fd5b6020830191508360208260051b8501011115610a1957600080fd5b9250929050565b60008060008060408587031215610a3657600080fd5b843567ffffffffffffffff80821115610a4e57600080fd5b610a5a888389016109d4565b90965094506020870135915080821115610a7357600080fd5b50610a80878288016109d4565b95989497509550505050565b600060208284031215610a9e57600080fd5b5035919050565b600060208284031215610ab757600080fd5b8135610ac281610925565b9392505050565b600060208284031215610adb57600080fd5b8151610ac281610925565b634e487b7160e01b600052604160045260246000fd5b60005b83811015610b17578181015183820152602001610aff565b50506000910152565b600060208284031215610b3257600080fd5b815167ffffffffffffffff80821115610b4a57600080fd5b818401915084601f830112610b5e57600080fd5b815181811115610b7057610b70610ae6565b604051601f8201601f19908116603f01168101908382118183101715610b9857610b98610ae6565b81604052828152876020848701011115610bb157600080fd5b610bc2836020830160208801610afc565b979650505050505050565b600060208284031215610bdf57600080fd5b5051919050565b84868237909301918252602082015260609190911b6bffffffffffffffffffffffff19166040820152605401919050565b60008251610c29818460208701610afc565b9190910192915050565b8281526040602082015260008251806040840152610c58816060850160208701610afc565b601f01601f1916919091016060019392505050565b634e487b7160e01b600052603260045260246000fd5b634e487b7160e01b600052601160045260246000fd5b600060018201610cab57610cab610c83565b5060010190565b8082018082111561078d5761078d610c8356fea2646970667358221220d85a3484a62caf47af5e0928ae3373739ed6fe04ee221343b94550ca6930f50a64736f6c63430008110033",
    "linkReferences": {}
  },
  "methodIdentifiers": {
    "deBridgeGate()": "ca777fbf",
    "executeMessage(address,address,bytes,bytes32)": "2ff06fa5",
    "executedMessages(bytes32)": "cd2abd66",
    "owner()": "8da5cb5b",
    "pause()": "8456cb59",
    "paused()": "5c975abb",
    "renounceOwnership()": "715018a6",
    "senderAdapters(uint256)": "d2776627",
    "transferOwnership(address)": "f2fde38b",
    "unpause()": "3f4ba83a",
    "updateSenderAdapter(uint256[],address[])": "43d61f31"
  },
  "id": 36
}