{
  "abi": [
    {
      "inputs": [
        {
          "internalType": "address",
          "name": "_caller",
          "type": "address"
        }
      ],
      "stateMutability": "nonpayable",
      "type": "constructor"
    },
    {
      "anonymous": false,
      "inputs": [
        {
          "indexed": false,
          "internalType": "address",
          "name": "senderAdapters",
          "type": "address"
        },
        {
          "components": [
            {
              "internalType": "uint64",
              "name": "dstChainId",
              "type": "uint64"
            },
            {
              "internalType": "uint32",
              "name": "nonce",
              "type": "uint32"
            },
            {
              "internalType": "address",
              "name": "target",
              "type": "address"
            },
            {
              "internalType": "bytes",
              "name": "callData",
              "type": "bytes"
            },
            {
              "internalType": "uint64",
              "name": "expiration",
              "type": "uint64"
            },
            {
              "internalType": "string",
              "name": "bridgeName",
              "type": "string"
            }
          ],
          "indexed": false,
          "internalType": "struct MessageStruct.Message",
          "name": "message",
          "type": "tuple"
        }
      ],
      "name": "ErrorSendMessage",
      "type": "event"
    },
    {
      "anonymous": false,
      "inputs": [
        {
          "indexed": false,
          "internalType": "bytes32",
          "name": "msgId",
          "type": "bytes32"
        },
        {
          "indexed": false,
          "internalType": "uint32",
          "name": "nonce",
          "type": "uint32"
        },
        {
          "indexed": false,
          "internalType": "uint64",
          "name": "dstChainId",
          "type": "uint64"
        },
        {
          "indexed": false,
          "internalType": "address",
          "name": "target",
          "type": "address"
        },
        {
          "indexed": false,
          "internalType": "bytes",
          "name": "callData",
          "type": "bytes"
        },
        {
          "indexed": false,
          "internalType": "uint64",
          "name": "expiration",
          "type": "uint64"
        },
        {
          "indexed": false,
          "internalType": "address[]",
          "name": "senderAdapters",
          "type": "address[]"
        }
      ],
      "name": "MultiMessageMsgSent",
      "type": "event"
    },
    {
      "anonymous": false,
      "inputs": [
        {
          "indexed": false,
          "internalType": "address",
          "name": "senderAdapter",
          "type": "address"
        },
        {
          "indexed": false,
          "internalType": "bool",
          "name": "add",
          "type": "bool"
        }
      ],
      "name": "SenderAdapterUpdated",
      "type": "event"
    },
    {
      "inputs": [
        {
          "internalType": "uint256",
          "name": "_chainId",
          "type": "uint256"
        },
        {
          "internalType": "address[]",
          "name": "_senderAdapters",
          "type": "address[]"
        }
      ],
      "name": "addSenderAdapters",
      "outputs": [],
      "stateMutability": "nonpayable",
      "type": "function"
    },
    {
      "inputs": [],
      "name": "caller",
      "outputs": [
        {
          "internalType": "address",
          "name": "",
          "type": "address"
        }
      ],
      "stateMutability": "view",
      "type": "function"
    },
    {
      "inputs": [
        {
          "internalType": "uint64",
          "name": "_dstChainId",
          "type": "uint64"
        },
        {
          "internalType": "address",
          "name": "_multiMessageReceiver",
          "type": "address"
        },
        {
          "internalType": "address",
          "name": "_target",
          "type": "address"
        },
        {
          "internalType": "bytes",
          "name": "_callData",
          "type": "bytes"
        }
      ],
      "name": "estimateTotalMessageFee",
      "outputs": [
        {
          "internalType": "uint256",
          "name": "",
          "type": "uint256"
        }
      ],
      "stateMutability": "view",
      "type": "function"
    },
    {
      "inputs": [],
      "name": "nonce",
      "outputs": [
        {
          "internalType": "uint32",
          "name": "",
          "type": "uint32"
        }
      ],
      "stateMutability": "view",
      "type": "function"
    },
    {
      "inputs": [
        {
          "internalType": "uint64",
          "name": "_dstChainId",
          "type": "uint64"
        },
        {
          "internalType": "address",
          "name": "_multiMessageReceiver",
          "type": "address"
        },
        {
          "internalType": "address",
          "name": "_target",
          "type": "address"
        },
        {
          "internalType": "bytes",
          "name": "_callData",
          "type": "bytes"
        },
        {
          "internalType": "uint64",
          "name": "_expiration",
          "type": "uint64"
        }
      ],
      "name": "remoteCall",
      "outputs": [],
      "stateMutability": "payable",
      "type": "function"
    },
    {
      "inputs": [
        {
          "internalType": "uint256",
          "name": "_chainId",
          "type": "uint256"
        },
        {
          "internalType": "address[]",
          "name": "_senderAdapters",
          "type": "address[]"
        }
      ],
      "name": "removeSenderAdapters",
      "outputs": [],
      "stateMutability": "nonpayable",
      "type": "function"
    },
    {
      "inputs": [
        {
          "internalType": "uint256",
          "name": "",
          "type": "uint256"
        },
        {
          "internalType": "uint256",
          "name": "",
          "type": "uint256"
        }
      ],
      "name": "senderAdapters",
      "outputs": [
        {
          "internalType": "address",
          "name": "",
          "type": "address"
        }
      ],
      "stateMutability": "view",
      "type": "function"
    }
  ],
  "bytecode": {
    "object": "0x60a060405234801561001057600080fd5b5060405161150738038061150783398101604081905261002f91610040565b6001600160a01b0316608052610070565b60006020828403121561005257600080fd5b81516001600160a01b038116811461006957600080fd5b9392505050565b6080516114676100a060003960008181610141015281816101a60152818161024801526102db01526114676000f3fe6080604052600436106100705760003560e01c8063affed0e01161004e578063affed0e0146100ca578063e113782f14610101578063fc9c8d391461012f578063fda648b91461017b57600080fd5b80634369de97146100755780635d71ebaf1461009757806388634074146100b7575b600080fd5b34801561008157600080fd5b50610095610090366004610dd6565b61019b565b005b3480156100a357600080fd5b506100956100b2366004610dd6565b61023d565b6100956100c5366004610ecf565b6102d0565b3480156100d657600080fd5b506001546100e79063ffffffff1681565b60405163ffffffff90911681526020015b60405180910390f35b34801561010d57600080fd5b5061012161011c366004610f53565b610762565b6040519081526020016100f8565b34801561013b57600080fd5b506101637f000000000000000000000000000000000000000000000000000000000000000081565b6040516001600160a01b0390911681526020016100f8565b34801561018757600080fd5b50610163610196366004610fc8565b6109ea565b336001600160a01b037f000000000000000000000000000000000000000000000000000000000000000016146101ec5760405162461bcd60e51b81526004016101e390610fea565b60405180910390fd5b60005b81811015610237576102278484848481811061020d5761020d61100e565b90506020020160208101906102229190611024565b610a22565b6102308161105c565b90506101ef565b50505050565b336001600160a01b037f000000000000000000000000000000000000000000000000000000000000000016146102855760405162461bcd60e51b81526004016101e390610fea565b60005b81811015610237576102c0848484848181106102a6576102a661100e565b90506020020160208101906102bb9190611024565b610b11565b6102c98161105c565b9050610288565b336001600160a01b037f000000000000000000000000000000000000000000000000000000000000000016146103185760405162461bcd60e51b81526004016101e390610fea565b6040805160c0810182526001600160401b038816815260015463ffffffff166020808301919091526001600160a01b038716828401528251601f86018290048202810182019093528483526000926060830191879087908190840183828082843760009201829052509385525050506001600160401b0380861660208085019190915260408051808301825284815294810194909452908b168252819052908120549192506060918190156103d357506001600160401b0389165b6000818152602081905260408120905b815481101561069e578181815481106103fe576103fe61100e565b6000918252602082200154604080516306fdde0360e01b815290516001600160a01b03909216926306fdde03926004808401938290030181865afa15801561044a573d6000803e3d6000fd5b505050506040513d6000823e601f3d908101601f1916820160405261047291908101906110af565b60a087015260405163a19e38cf60e01b90610491908890602401611202565b604051602081830303815290604052906001600160e01b0319166020820180516001600160e01b038381831617835250505050945060008282815481106104da576104da61100e565b9060005260206000200160009054906101000a90046001600160a01b03166001600160a01b031663c73026968e6001600160401b03168e896040518463ffffffff1660e01b815260040161053093929190611215565b602060405180830381865afa15801561054d573d6000803e3d6000fd5b505050506040513d601f19601f82011682018060405250810190610571919061123f565b90508282815481106105855761058561100e565b9060005260206000200160009054906101000a90046001600160a01b03166001600160a01b031663fe39827b828f6001600160401b03168f8a6040518563ffffffff1660e01b81526004016105dc93929190611215565b60206040518083038185885af193505050508015610617575060408051601f3d908101601f191682019092526106149181019061123f565b60015b61067f577f7cf8c041819f746cd29c9ce0558ac1472ca5d9c6d396fe113a39c82b80b935f083838154811061064e5761064e61100e565b600091825260209091200154604051610672916001600160a01b0316908a90611258565b60405180910390a161068d565b5061068a8186611284565b94505b506106978161105c565b90506103e3565b5060006106ab8646610cb8565b90507f3fa7aa8377e36874d501659945d31b942325fd9cd3c425cded78fe1265d3953a81600160009054906101000a900463ffffffff168e8d8d8d8d896040516106fc989796959493929190611297565b60405180910390a16001805463ffffffff1690600061071a8361134c565b91906101000a81548163ffffffff021916908363ffffffff1602179055505034841015610754576107543361074f863461136f565b610d08565b505050505050505050505050565b6040805160c0810182526001600160401b038716815260015463ffffffff166020808301919091526001600160a01b038616828401528251601f8501829004820281018201909352838352600092839291606083019190879087908190840183828082843760009201829052509385525050506020808301829052604080518083018252838152938101939093526001600160401b038b1682528190529081205491925060609181901561081c57506001600160401b0389165b6000818152602081905260408120905b81548110156109da578181815481106108475761084761100e565b6000918252602082200154604080516306fdde0360e01b815290516001600160a01b03909216926306fdde03926004808401938290030181865afa158015610893573d6000803e3d6000fd5b505050506040513d6000823e601f3d908101601f191682016040526108bb91908101906110af565b60a087015260405163a19e38cf60e01b906108da908890602401611202565b604051602081830303815290604052906001600160e01b0319166020820180516001600160e01b038381831617835250505050945060008282815481106109235761092361100e565b9060005260206000200160009054906101000a90046001600160a01b03166001600160a01b031663c73026968e6001600160401b03168e896040518463ffffffff1660e01b815260040161097993929190611215565b602060405180830381865afa158015610996573d6000803e3d6000fd5b505050506040513d601f19601f820116820180604052508101906109ba919061123f565b90506109c68186611284565b945050806109d39061105c565b905061082c565b50919a9950505050505050505050565b60006020528160005260406000208181548110610a0657600080fd5b6000918252602090912001546001600160a01b03169150829050565b60005b600083815260208190526040902054811015610a9757816001600160a01b03166000808581526020019081526020016000208281548110610a6857610a6861100e565b6000918252602090912001546001600160a01b031603610a8757505050565b610a908161105c565b9050610a25565b506000828152602081815260408083208054600180820183559185529383902090930180546001600160a01b0319166001600160a01b0386169081179091558151908152918201929092527fbc277492c0704299115877b8cf05a6d100cf36fd553bef773832f1f097aa0677910160405180910390a15050565b600082815260208190526040812054610b2c9060019061136f565b905060005b60008481526020819052604090205481101561023757826001600160a01b03166000808681526020019081526020016000208281548110610b7457610b7461100e565b6000918252602090912001546001600160a01b031603610ca85781811015610c1d576000848152602081905260409020805483908110610bb657610bb661100e565b600091825260208083209091015486835290829052604090912080546001600160a01b039092169183908110610bee57610bee61100e565b9060005260206000200160006101000a8154816001600160a01b0302191690836001600160a01b031602179055505b6000848152602081905260409020805480610c3a57610c3a611382565b60008281526020808220600019908401810180546001600160a01b0319169055909201909255604080516001600160a01b0387168152918201929092527fbc277492c0704299115877b8cf05a6d100cf36fd553bef773832f1f097aa0677910160405180910390a150505050565b610cb18161105c565b9050610b31565b60008183600001518460200151856040015186606001518760800151604051602001610ce996959493929190611398565b6040516020818303038152906040528051906020012090505b92915050565b604080516000808252602082019092526001600160a01b038416908390604051610d329190611415565b60006040518083038185875af1925050503d8060008114610d6f576040519150601f19603f3d011682016040523d82523d6000602084013e610d74565b606091505b5050905080610dd15760405162461bcd60e51b8152602060048201526024808201527f736166655472616e736665724554483a20455448207472616e736665722066616044820152631a5b195960e21b60648201526084016101e3565b505050565b600080600060408486031215610deb57600080fd5b8335925060208401356001600160401b0380821115610e0957600080fd5b818601915086601f830112610e1d57600080fd5b813581811115610e2c57600080fd5b8760208260051b8501011115610e4157600080fd5b6020830194508093505050509250925092565b80356001600160401b0381168114610e6b57600080fd5b919050565b80356001600160a01b0381168114610e6b57600080fd5b60008083601f840112610e9957600080fd5b5081356001600160401b03811115610eb057600080fd5b602083019150836020828501011115610ec857600080fd5b9250929050565b60008060008060008060a08789031215610ee857600080fd5b610ef187610e54565b9550610eff60208801610e70565b9450610f0d60408801610e70565b935060608701356001600160401b03811115610f2857600080fd5b610f3489828a01610e87565b9094509250610f47905060808801610e54565b90509295509295509295565b600080600080600060808688031215610f6b57600080fd5b610f7486610e54565b9450610f8260208701610e70565b9350610f9060408701610e70565b925060608601356001600160401b03811115610fab57600080fd5b610fb788828901610e87565b969995985093965092949392505050565b60008060408385031215610fdb57600080fd5b50508035926020909101359150565b6020808252600a90820152693737ba1031b0b63632b960b11b604082015260600190565b634e487b7160e01b600052603260045260246000fd5b60006020828403121561103657600080fd5b61103f82610e70565b9392505050565b634e487b7160e01b600052601160045260246000fd5b60006001820161106e5761106e611046565b5060010190565b634e487b7160e01b600052604160045260246000fd5b60005b838110156110a657818101518382015260200161108e565b50506000910152565b6000602082840312156110c157600080fd5b81516001600160401b03808211156110d857600080fd5b818401915084601f8301126110ec57600080fd5b8151818111156110fe576110fe611075565b604051601f8201601f19908116603f0116810190838211818310171561112657611126611075565b8160405282815287602084870101111561113f57600080fd5b61115083602083016020880161108b565b979650505050505050565b6000815180845261117381602086016020860161108b565b601f01601f19169290920160200192915050565b60006001600160401b0380835116845263ffffffff602084015116602085015260018060a01b036040840151166040850152606083015160c060608601526111d260c086018261115b565b905081608085015116608086015260a0840151915084810360a08601526111f9818361115b565b95945050505050565b60208152600061103f6020830184611187565b8381526001600160a01b03831660208201526060604082018190526000906111f99083018461115b565b60006020828403121561125157600080fd5b5051919050565b6001600160a01b038316815260406020820181905260009061127c90830184611187565b949350505050565b80820180821115610d0257610d02611046565b8881526000602063ffffffff8a16818401526001600160401b03808a16604085015260018060a01b03808a16606086015260e060808601528760e0860152610100888a828801376000868a01820181905292881660a0870152601f8901601f19168601868103820160c08801528754918101829052878452848420610120909101935b8281101561133857815484168552938501936001918201910161131a565b50929e9d5050505050505050505050505050565b600063ffffffff80831681810361136557611365611046565b6001019392505050565b81810381811115610d0257610d02611046565b634e487b7160e01b600052603160045260246000fd5b60006001600160401b0360c01b808960c01b168352808860c01b16600884015263ffffffff60e01b8760e01b1660108401526bffffffffffffffffffffffff198660601b16601484015284516113f581602886016020890161108b565b60c09490941b169190920160288101919091526030019695505050505050565b6000825161142781846020870161108b565b919091019291505056fea26469706673582212203d91ecdaaccf82c6af6db8e729bd4363549460b6e0c2829cdcfecb9c8bda155764736f6c63430008110033",
    "linkReferences": {}
  },
  "methodIdentifiers": {
    "addSenderAdapters(uint256,address[])": "4369de97",
    "caller()": "fc9c8d39",
    "estimateTotalMessageFee(uint64,address,address,bytes)": "e113782f",
    "nonce()": "affed0e0",
    "remoteCall(uint64,address,address,bytes,uint64)": "88634074",
    "removeSenderAdapters(uint256,address[])": "5d71ebaf",
    "senderAdapters(uint256,uint256)": "fda648b9"
  },
  "id": 14
}