{
  "abi": [
    {
      "inputs": [
        {
          "internalType": "contract IDeBridgeGate",
          "name": "_deBridgeGate",
          "type": "address"
        }
      ],
      "stateMutability": "nonpayable",
      "type": "constructor"
    },
    {
      "anonymous": false,
      "inputs": [
        {
          "indexed": true,
          "internalType": "bytes32",
          "name": "messageId",
          "type": "bytes32"
        },
        {
          "indexed": true,
          "internalType": "address",
          "name": "from",
          "type": "address"
        },
        {
          "indexed": true,
          "internalType": "uint256",
          "name": "toChainId",
          "type": "uint256"
        },
        {
          "indexed": false,
          "internalType": "address",
          "name": "to",
          "type": "address"
        },
        {
          "indexed": false,
          "internalType": "bytes",
          "name": "data",
          "type": "bytes"
        }
      ],
      "name": "MessageDispatched",
      "type": "event"
    },
    {
      "anonymous": false,
      "inputs": [
        {
          "indexed": true,
          "internalType": "address",
          "name": "previousOwner",
          "type": "address"
        },
        {
          "indexed": true,
          "internalType": "address",
          "name": "newOwner",
          "type": "address"
        }
      ],
      "name": "OwnershipTransferred",
      "type": "event"
    },
    {
      "anonymous": false,
      "inputs": [
        {
          "indexed": false,
          "internalType": "uint256",
          "name": "dstChainId",
          "type": "uint256"
        },
        {
          "indexed": false,
          "internalType": "address",
          "name": "receiverAdapter",
          "type": "address"
        }
      ],
      "name": "ReceiverAdapterUpdated",
      "type": "event"
    },
    {
      "inputs": [],
      "name": "deBridgeGate",
      "outputs": [
        {
          "internalType": "contract IDeBridgeGate",
          "name": "",
          "type": "address"
        }
      ],
      "stateMutability": "view",
      "type": "function"
    },
    {
      "inputs": [
        {
          "internalType": "uint256",
          "name": "_toChainId",
          "type": "uint256"
        },
        {
          "internalType": "address",
          "name": "_to",
          "type": "address"
        },
        {
          "internalType": "bytes",
          "name": "_data",
          "type": "bytes"
        }
      ],
      "name": "dispatchMessage",
      "outputs": [
        {
          "internalType": "bytes32",
          "name": "",
          "type": "bytes32"
        }
      ],
      "stateMutability": "payable",
      "type": "function"
    },
    {
      "inputs": [],
      "name": "getChainId",
      "outputs": [
        {
          "internalType": "uint256",
          "name": "cid",
          "type": "uint256"
        }
      ],
      "stateMutability": "view",
      "type": "function"
    },
    {
      "inputs": [
        {
          "internalType": "uint256",
          "name": "",
          "type": "uint256"
        },
        {
          "internalType": "address",
          "name": "",
          "type": "address"
        },
        {
          "internalType": "bytes",
          "name": "",
          "type": "bytes"
        }
      ],
      "name": "getMessageFee",
      "outputs": [
        {
          "internalType": "uint256",
          "name": "",
          "type": "uint256"
        }
      ],
      "stateMutability": "view",
      "type": "function"
    },
    {
      "inputs": [],
      "name": "name",
      "outputs": [
        {
          "internalType": "string",
          "name": "",
          "type": "string"
        }
      ],
      "stateMutability": "view",
      "type": "function"
    },
    {
      "inputs": [],
      "name": "nonce",
      "outputs": [
        {
          "internalType": "uint256",
          "name": "",
          "type": "uint256"
        }
      ],
      "stateMutability": "view",
      "type": "function"
    },
    {
      "inputs": [],
      "name": "owner",
      "outputs": [
        {
          "internalType": "address",
          "name": "",
          "type": "address"
        }
      ],
      "stateMutability": "view",
      "type": "function"
    },
    {
      "inputs": [
        {
          "internalType": "uint256",
          "name": "",
          "type": "uint256"
        }
      ],
      "name": "receiverAdapters",
      "outputs": [
        {
          "internalType": "address",
          "name": "",
          "type": "address"
        }
      ],
      "stateMutability": "view",
      "type": "function"
    },
    {
      "inputs": [],
      "name": "renounceOwnership",
      "outputs": [],
      "stateMutability": "nonpayable",
      "type": "function"
    },
    {
      "inputs": [
        {
          "internalType": "address",
          "name": "newOwner",
          "type": "address"
        }
      ],
      "name": "transferOwnership",
      "outputs": [],
      "stateMutability": "nonpayable",
      "type": "function"
    },
    {
      "inputs": [
        {
          "internalType": "uint256[]",
          "name": "_dstChainIds",
          "type": "uint256[]"
        },
        {
          "internalType": "address[]",
          "name": "_receiverAdapters",
          "type": "address[]"
        }
      ],
      "name": "updateReceiverAdapter",
      "outputs": [],
      "stateMutability": "nonpayable",
      "type": "function"
    }
  ],
  "bytecode": {
    "object": "0x60a060405234801561001057600080fd5b50604051610c07380380610c0783398101604081905261002f91610099565b61003833610049565b6001600160a01b03166080526100c9565b600080546001600160a01b038381166001600160a01b0319831681178455604051919092169283917f8be0079c531659141344cd1fd0a4f28419497f9722a3daafe3b4186f6b6457e09190a35050565b6000602082840312156100ab57600080fd5b81516001600160a01b03811681146100c257600080fd5b9392505050565b608051610b156100f2600039600081816101f3015281816103c701526105a20152610b156000f3fe60806040526004361061009c5760003560e01c8063affed0e011610064578063affed0e01461018b578063bbec993c146101a1578063c7302696146101c1578063ca777fbf146101e1578063f2fde38b14610215578063fe39827b1461023557600080fd5b806306fdde03146100a15780630b3dfc67146100eb5780633408e47014610139578063715018a6146101565780638da5cb5b1461016d575b600080fd5b3480156100ad57600080fd5b506100d560405180604001604052806008815260200167646542726964676560c01b81525081565b6040516100e2919061081e565b60405180910390f35b3480156100f757600080fd5b50610121610106366004610838565b6002602052600090815260409020546001600160a01b031681565b6040516001600160a01b0390911681526020016100e2565b34801561014557600080fd5b50465b6040519081526020016100e2565b34801561016257600080fd5b5061016b610248565b005b34801561017957600080fd5b506000546001600160a01b0316610121565b34801561019757600080fd5b5061014860015481565b3480156101ad57600080fd5b5061016b6101bc36600461089d565b61025c565b3480156101cd57600080fd5b506101486101dc366004610925565b6103c3565b3480156101ed57600080fd5b506101217f000000000000000000000000000000000000000000000000000000000000000081565b34801561022157600080fd5b5061016b6102303660046109ac565b610450565b610148610243366004610925565b6104c9565b6102506106be565b61025a6000610718565b565b6102646106be565b8281146102aa5760405162461bcd60e51b815260206004820152600f60248201526e0dad2e6dac2e8c6d040d8cadccee8d608b1b60448201526064015b60405180910390fd5b60005b838110156103bc578282828181106102c7576102c76109c7565b90506020020160208101906102dc91906109ac565b600260008787858181106102f2576102f26109c7565b90506020020135815260200190815260200160002060006101000a8154816001600160a01b0302191690836001600160a01b031602179055507fe6e0801d01ab5bf2b55c3ce96ab43ea0bbf545cc39008a7dc4e8cd5fa881df2785858381811061035e5761035e6109c7565b90506020020135848484818110610377576103776109c7565b905060200201602081019061038c91906109ac565b604080519283526001600160a01b0390911660208301520160405180910390a16103b5816109dd565b90506102ad565b5050505050565b60007f00000000000000000000000000000000000000000000000000000000000000006001600160a01b03166335087f0a6040518163ffffffff1660e01b8152600401602060405180830381865afa158015610423573d6000803e3d6000fd5b505050506040513d601f19601f820116820180604052508101906104479190610a04565b95945050505050565b6104586106be565b6001600160a01b0381166104bd5760405162461bcd60e51b815260206004820152602660248201527f4f776e61626c653a206e6577206f776e657220697320746865207a65726f206160448201526564647265737360d01b60648201526084016102a1565b6104c681610718565b50565b6000848152600260205260408120546001600160a01b03166105235760405162461bcd60e51b81526020600482015260136024820152723737903932b1b2b4bb32b91030b230b83a32b960691b60448201526064016102a1565b6000858152600260205260408120546001600160a01b0316906105468787610768565b90506000632ff06fa560e01b338888888660405160240161056b959493929190610a46565b604051602081830303815290604052906001600160e01b0319166020820180516001600160e01b03838183161783525050505090507f00000000000000000000000000000000000000000000000000000000000000006001600160a01b0316636ea9cec9348a866040516020016105fa919060609190911b6bffffffffffffffffffffffff1916815260140190565b604051602081830303815290604052856040518563ffffffff1660e01b815260040161062893929190610a85565b60206040518083038185885af1158015610646573d6000803e3d6000fd5b50505050506040513d601f19601f8201168201806040525081019061066b9190610a04565b5087336001600160a01b0316837fe2f8f20ddbedfce5eb59a8b930077e7f4906a01300b9318db5f90d1c96c7b6d48a8a8a6040516106ab93929190610aba565b60405180910390a4509695505050505050565b6000546001600160a01b0316331461025a5760405162461bcd60e51b815260206004820181905260248201527f4f776e61626c653a2063616c6c6572206973206e6f7420746865206f776e657260448201526064016102a1565b600080546001600160a01b038381166001600160a01b0319831681178455604051919092169283917f8be0079c531659141344cd1fd0a4f28419497f9722a3daafe3b4186f6b6457e09190a35050565b60018054604080514660208083019190915281830187905260608083018590526bffffffffffffffffffffffff1930821b811660808501529087901b1660948301528251808303608801815260a890920190925280519101209160006107cd836109dd565b919050555092915050565b6000815180845260005b818110156107fe576020818501810151868301820152016107e2565b506000602082860101526020601f19601f83011685010191505092915050565b60208152600061083160208301846107d8565b9392505050565b60006020828403121561084a57600080fd5b5035919050565b60008083601f84011261086357600080fd5b50813567ffffffffffffffff81111561087b57600080fd5b6020830191508360208260051b850101111561089657600080fd5b9250929050565b600080600080604085870312156108b357600080fd5b843567ffffffffffffffff808211156108cb57600080fd5b6108d788838901610851565b909650945060208701359150808211156108f057600080fd5b506108fd87828801610851565b95989497509550505050565b80356001600160a01b038116811461092057600080fd5b919050565b6000806000806060858703121561093b57600080fd5b8435935061094b60208601610909565b9250604085013567ffffffffffffffff8082111561096857600080fd5b818701915087601f83011261097c57600080fd5b81358181111561098b57600080fd5b88602082850101111561099d57600080fd5b95989497505060200194505050565b6000602082840312156109be57600080fd5b61083182610909565b634e487b7160e01b600052603260045260246000fd5b6000600182016109fd57634e487b7160e01b600052601160045260246000fd5b5060010190565b600060208284031215610a1657600080fd5b5051919050565b81835281816020850137506000828201602090810191909152601f909101601f19169091010190565b6001600160a01b03868116825285166020820152608060408201819052600090610a739083018587610a1d565b90508260608301529695505050505050565b838152606060208201526000610a9e60608301856107d8565b8281036040840152610ab081856107d8565b9695505050505050565b6001600160a01b03841681526040602082018190526000906104479083018486610a1d56fea2646970667358221220373275a7c7453353d61eb9863f0dacd34cae8d4adec4cc9ccf0b024f36321e1e64736f6c63430008110033",
    "linkReferences": {}
  },
  "methodIdentifiers": {
    "deBridgeGate()": "ca777fbf",
    "dispatchMessage(uint256,address,bytes)": "fe39827b",
    "getChainId()": "3408e470",
    "getMessageFee(uint256,address,bytes)": "c7302696",
    "name()": "06fdde03",
    "nonce()": "affed0e0",
    "owner()": "8da5cb5b",
    "receiverAdapters(uint256)": "0b3dfc67",
    "renounceOwnership()": "715018a6",
    "transferOwnership(address)": "f2fde38b",
    "updateReceiverAdapter(uint256[],address[])": "bbec993c"
  },
  "id": 37
}