{
  "abi": [
    {
      "inputs": [
        {
          "internalType": "address",
          "name": "_routerGateway",
          "type": "address"
        }
      ],
      "stateMutability": "nonpayable",
      "type": "constructor"
    },
    {
      "inputs": [
        {
          "internalType": "bytes32",
          "name": "messageId",
          "type": "bytes32"
        },
        {
          "internalType": "uint256",
          "name": "messageIndex",
          "type": "uint256"
        },
        {
          "internalType": "bytes",
          "name": "errorData",
          "type": "bytes"
        }
      ],
      "name": "MessageBatchFailure",
      "type": "error"
    },
    {
      "inputs": [
        {
          "internalType": "bytes32",
          "name": "messageId",
          "type": "bytes32"
        },
        {
          "internalType": "bytes",
          "name": "errorData",
          "type": "bytes"
        }
      ],
      "name": "MessageFailure",
      "type": "error"
    },
    {
      "inputs": [
        {
          "internalType": "bytes32",
          "name": "messageId",
          "type": "bytes32"
        }
      ],
      "name": "MessageIdAlreadyExecuted",
      "type": "error"
    },
    {
      "anonymous": false,
      "inputs": [
        {
          "indexed": true,
          "internalType": "uint256",
          "name": "fromChainId",
          "type": "uint256"
        },
        {
          "indexed": true,
          "internalType": "bytes32",
          "name": "messageId",
          "type": "bytes32"
        }
      ],
      "name": "MessageIdExecuted",
      "type": "event"
    },
    {
      "anonymous": false,
      "inputs": [
        {
          "indexed": true,
          "internalType": "address",
          "name": "previousOwner",
          "type": "address"
        },
        {
          "indexed": true,
          "internalType": "address",
          "name": "newOwner",
          "type": "address"
        }
      ],
      "name": "OwnershipTransferred",
      "type": "event"
    },
    {
      "anonymous": false,
      "inputs": [
        {
          "indexed": false,
          "internalType": "address",
          "name": "account",
          "type": "address"
        }
      ],
      "name": "Paused",
      "type": "event"
    },
    {
      "anonymous": false,
      "inputs": [
        {
          "indexed": false,
          "internalType": "uint256",
          "name": "srcChainId",
          "type": "uint256"
        },
        {
          "indexed": false,
          "internalType": "address",
          "name": "senderAdapter",
          "type": "address"
        }
      ],
      "name": "SenderAdapterUpdated",
      "type": "event"
    },
    {
      "anonymous": false,
      "inputs": [
        {
          "indexed": false,
          "internalType": "address",
          "name": "account",
          "type": "address"
        }
      ],
      "name": "Unpaused",
      "type": "event"
    },
    {
      "inputs": [
        {
          "internalType": "bytes32",
          "name": "",
          "type": "bytes32"
        }
      ],
      "name": "executedMessages",
      "outputs": [
        {
          "internalType": "bool",
          "name": "",
          "type": "bool"
        }
      ],
      "stateMutability": "view",
      "type": "function"
    },
    {
      "inputs": [
        {
          "internalType": "bytes",
          "name": "srcContractAddress",
          "type": "bytes"
        },
        {
          "internalType": "bytes",
          "name": "payload",
          "type": "bytes"
        },
        {
          "internalType": "string",
          "name": "srcChainId",
          "type": "string"
        },
        {
          "internalType": "uint64",
          "name": "",
          "type": "uint64"
        }
      ],
      "name": "handleRequestFromSource",
      "outputs": [
        {
          "internalType": "bytes",
          "name": "",
          "type": "bytes"
        }
      ],
      "stateMutability": "nonpayable",
      "type": "function"
    },
    {
      "inputs": [],
      "name": "owner",
      "outputs": [
        {
          "internalType": "address",
          "name": "",
          "type": "address"
        }
      ],
      "stateMutability": "view",
      "type": "function"
    },
    {
      "inputs": [],
      "name": "pause",
      "outputs": [],
      "stateMutability": "nonpayable",
      "type": "function"
    },
    {
      "inputs": [],
      "name": "paused",
      "outputs": [
        {
          "internalType": "bool",
          "name": "",
          "type": "bool"
        }
      ],
      "stateMutability": "view",
      "type": "function"
    },
    {
      "inputs": [],
      "name": "renounceOwnership",
      "outputs": [],
      "stateMutability": "nonpayable",
      "type": "function"
    },
    {
      "inputs": [],
      "name": "routerGateway",
      "outputs": [
        {
          "internalType": "contract IRouterGateway",
          "name": "",
          "type": "address"
        }
      ],
      "stateMutability": "view",
      "type": "function"
    },
    {
      "inputs": [
        {
          "internalType": "uint256",
          "name": "",
          "type": "uint256"
        }
      ],
      "name": "senderAdapters",
      "outputs": [
        {
          "internalType": "address",
          "name": "",
          "type": "address"
        }
      ],
      "stateMutability": "view",
      "type": "function"
    },
    {
      "inputs": [
        {
          "internalType": "address",
          "name": "newOwner",
          "type": "address"
        }
      ],
      "name": "transferOwnership",
      "outputs": [],
      "stateMutability": "nonpayable",
      "type": "function"
    },
    {
      "inputs": [],
      "name": "unpause",
      "outputs": [],
      "stateMutability": "nonpayable",
      "type": "function"
    },
    {
      "inputs": [
        {
          "internalType": "uint256[]",
          "name": "_srcChainIds",
          "type": "uint256[]"
        },
        {
          "internalType": "address[]",
          "name": "_senderAdapters",
          "type": "address[]"
        }
      ],
      "name": "updateSenderAdapter",
      "outputs": [],
      "stateMutability": "nonpayable",
      "type": "function"
    }
  ],
  "bytecode": {
    "object": "0x60a060405234801561001057600080fd5b50604051610f82380380610f8283398101604081905261002f916100ac565b6000805460ff1916905561004233610053565b6001600160a01b03166080526100dc565b600080546001600160a01b03838116610100818102610100600160a81b0319851617855560405193049190911692909183917f8be0079c531659141344cd1fd0a4f28419497f9722a3daafe3b4186f6b6457e091a35050565b6000602082840312156100be57600080fd5b81516001600160a01b03811681146100d557600080fd5b9392505050565b608051610e846100fe60003960008181610126015261036f0152610e846000f3fe608060405234801561001057600080fd5b50600436106100a95760003560e01c80638da5cb5b116100715780638da5cb5b146100f757806396732ea214610121578063c8e1eaca14610148578063cd2abd6614610168578063d27766271461018b578063f2fde38b146101b457600080fd5b80633f4ba83a146100ae57806343d61f31146100b85780635c975abb146100cb578063715018a6146100e75780638456cb59146100ef575b600080fd5b6100b66101c7565b005b6100b66100c636600461090c565b6101d9565b60005460ff165b60405190151581526020015b60405180910390f35b6100b6610340565b6100b6610352565b60005461010090046001600160a01b03165b6040516001600160a01b0390911681526020016100de565b6101097f000000000000000000000000000000000000000000000000000000000000000081565b61015b610156366004610a4c565b610362565b6040516100de9190610b54565b6100d2610176366004610b67565b60026020526000908152604090205460ff1681565b610109610199366004610b67565b6001602052600090815260409020546001600160a01b031681565b6100b66101c2366004610b95565b6105ce565b6101cf610647565b6101d76106a7565b565b6101e1610647565b8281146102275760405162461bcd60e51b815260206004820152600f60248201526e0dad2e6dac2e8c6d040d8cadccee8d608b1b60448201526064015b60405180910390fd5b60005b838110156103395782828281811061024457610244610bb2565b90506020020160208101906102599190610b95565b6001600087878581811061026f5761026f610bb2565b90506020020135815260200190815260200160002060006101000a8154816001600160a01b0302191690836001600160a01b031602179055507f9139a67da6e19ecec5385e1a8369fe363a09195dfe90124ec496b70a1fdedc768585838181106102db576102db610bb2565b905060200201358484848181106102f4576102f4610bb2565b90506020020160208101906103099190610b95565b604080519283526001600160a01b0390911660208301520160405180910390a161033281610bde565b905061022a565b5050505050565b610348610647565b6101d760006106f9565b61035a610647565b6101d7610752565b6060336001600160a01b037f000000000000000000000000000000000000000000000000000000000000000016146103dc5760405162461bcd60e51b815260206004820152601c60248201527f63616c6c6572206973206e6f7420726f75746572206761746577617900000000604482015260640161021e565b6103e461078f565b600080600080878060200190518101906103fe9190610bf7565b93509350935093506000610411886107d5565b6000818152600160205260409020549091506001600160a01b031661043a8b6020015160601c90565b6001600160a01b0316146104905760405162461bcd60e51b815260206004820152601a60248201527f6e6f7420616c6c6f776564206d6573736167652073656e646572000000000000604482015260640161021e565b60008281526002602052604090205460ff16156104c35760405163153bf81360e31b81526004810183905260240161021e565b6000828152600260205260409020805460ff19166001179055600080856001600160a01b03168585858a6040516020016105009493929190610c9d565b60408051601f198184030181529082905261051a91610cde565b6000604051808303816000865af19150503d8060008114610557576040519150601f19603f3d011682016040523d82523d6000602084013e61055c565b606091505b509150915081610583578381604051632f9c844f60e21b815260040161021e929190610cfa565b604051849084907e769f3f82cb2a521c5b72f211aff687dae3cebd0b4631790417d1b17e15689a90600090a350506040805160208101909152600081529a9950505050505050505050565b6105d6610647565b6001600160a01b03811661063b5760405162461bcd60e51b815260206004820152602660248201527f4f776e61626c653a206e6577206f776e657220697320746865207a65726f206160448201526564647265737360d01b606482015260840161021e565b610644816106f9565b50565b6000546001600160a01b036101009091041633146101d75760405162461bcd60e51b815260206004820181905260248201527f4f776e61626c653a2063616c6c6572206973206e6f7420746865206f776e6572604482015260640161021e565b6106af610877565b6000805460ff191690557f5db9ee0a495bf2e6ff9c91a7834c1ba4fdd244a5e8aa4e537bd38aeae4b073aa335b6040516001600160a01b03909116815260200160405180910390a1565b600080546001600160a01b03838116610100818102610100600160a81b0319851617855560405193049190911692909183917f8be0079c531659141344cd1fd0a4f28419497f9722a3daafe3b4186f6b6457e091a35050565b61075a61078f565b6000805460ff191660011790557f62e78cea01bee320cd4e420270b5ea74000d11b0c9f74754ebdbfc544b05a2586106dc3390565b60005460ff16156101d75760405162461bcd60e51b815260206004820152601060248201526f14185d5cd8589b194e881c185d5cd95960821b604482015260640161021e565b60008082815b815181101561086e5760008183516107f39190610d1b565b9050600083838151811061080957610809610bb2565b01602001516001600160f81b03198116915060f81c600061082b603083610d1b565b9050610838600185610d1b565b61084390600a610e18565b61084d9082610e24565b6108579088610e3b565b9650505050508061086790610bde565b90506107db565b50909392505050565b60005460ff166101d75760405162461bcd60e51b815260206004820152601460248201527314185d5cd8589b194e881b9bdd081c185d5cd95960621b604482015260640161021e565b60008083601f8401126108d257600080fd5b50813567ffffffffffffffff8111156108ea57600080fd5b6020830191508360208260051b850101111561090557600080fd5b9250929050565b6000806000806040858703121561092257600080fd5b843567ffffffffffffffff8082111561093a57600080fd5b610946888389016108c0565b9096509450602087013591508082111561095f57600080fd5b5061096c878288016108c0565b95989497509550505050565b634e487b7160e01b600052604160045260246000fd5b604051601f8201601f1916810167ffffffffffffffff811182821017156109b7576109b7610978565b604052919050565b600067ffffffffffffffff8211156109d9576109d9610978565b50601f01601f191660200190565b60006109fa6109f5846109bf565b61098e565b9050828152838383011115610a0e57600080fd5b828260208301376000602084830101529392505050565b600082601f830112610a3657600080fd5b610a45838335602085016109e7565b9392505050565b60008060008060808587031215610a6257600080fd5b843567ffffffffffffffff80821115610a7a57600080fd5b610a8688838901610a25565b95506020870135915080821115610a9c57600080fd5b610aa888838901610a25565b94506040870135915080821115610abe57600080fd5b818701915087601f830112610ad257600080fd5b610ae1888335602085016109e7565b9350606087013591508082168214610af857600080fd5b50939692955090935050565b60005b83811015610b1f578181015183820152602001610b07565b50506000910152565b60008151808452610b40816020860160208601610b04565b601f01601f19169290920160200192915050565b602081526000610a456020830184610b28565b600060208284031215610b7957600080fd5b5035919050565b6001600160a01b038116811461064457600080fd5b600060208284031215610ba757600080fd5b8135610a4581610b80565b634e487b7160e01b600052603260045260246000fd5b634e487b7160e01b600052601160045260246000fd5b600060018201610bf057610bf0610bc8565b5060010190565b60008060008060808587031215610c0d57600080fd5b8451610c1881610b80565b6020860151909450610c2981610b80565b604086015190935067ffffffffffffffff811115610c4657600080fd5b8501601f81018713610c5757600080fd5b8051610c656109f5826109bf565b818152886020838501011115610c7a57600080fd5b610c8b826020830160208601610b04565b60609790970151959894975050505050565b60008551610caf818460208a01610b04565b9190910193845250602083019190915260601b6bffffffffffffffffffffffff19166040820152605401919050565b60008251610cf0818460208701610b04565b9190910192915050565b828152604060208201526000610d136040830184610b28565b949350505050565b81810381811115610d2e57610d2e610bc8565b92915050565b600181815b80851115610d6f578160001904821115610d5557610d55610bc8565b80851615610d6257918102915b93841c9390800290610d39565b509250929050565b600082610d8657506001610d2e565b81610d9357506000610d2e565b8160018114610da95760028114610db357610dcf565b6001915050610d2e565b60ff841115610dc457610dc4610bc8565b50506001821b610d2e565b5060208310610133831016604e8410600b8410161715610df2575081810a610d2e565b610dfc8383610d34565b8060001904821115610e1057610e10610bc8565b029392505050565b6000610a458383610d77565b8082028115828204841417610d2e57610d2e610bc8565b80820180821115610d2e57610d2e610bc856fea26469706673582212206b388f92b4fa5a965153353601b318b5acaf498c879b6eec31e0cfa94a8528c564736f6c63430008110033",
    "linkReferences": {}
  },
  "methodIdentifiers": {
    "executedMessages(bytes32)": "cd2abd66",
    "handleRequestFromSource(bytes,bytes,string,uint64)": "c8e1eaca",
    "owner()": "8da5cb5b",
    "pause()": "8456cb59",
    "paused()": "5c975abb",
    "renounceOwnership()": "715018a6",
    "routerGateway()": "96732ea2",
    "senderAdapters(uint256)": "d2776627",
    "transferOwnership(address)": "f2fde38b",
    "unpause()": "3f4ba83a",
    "updateSenderAdapter(uint256[],address[])": "43d61f31"
  },
  "id": 41
}