{
  "abi": [
    {
      "inputs": [
        {
          "internalType": "address",
          "name": "_telepathyRouter",
          "type": "address"
        }
      ],
      "stateMutability": "nonpayable",
      "type": "constructor"
    },
    {
      "inputs": [
        {
          "internalType": "uint256",
          "name": "chainIdsLength",
          "type": "uint256"
        },
        {
          "internalType": "uint256",
          "name": "adaptersLength",
          "type": "uint256"
        }
      ],
      "name": "MismatchAdapterArrLength",
      "type": "error"
    },
    {
      "anonymous": false,
      "inputs": [
        {
          "indexed": true,
          "internalType": "bytes32",
          "name": "messageId",
          "type": "bytes32"
        },
        {
          "indexed": true,
          "internalType": "address",
          "name": "from",
          "type": "address"
        },
        {
          "indexed": true,
          "internalType": "uint256",
          "name": "toChainId",
          "type": "uint256"
        },
        {
          "indexed": false,
          "internalType": "address",
          "name": "to",
          "type": "address"
        },
        {
          "indexed": false,
          "internalType": "bytes",
          "name": "data",
          "type": "bytes"
        }
      ],
      "name": "MessageDispatched",
      "type": "event"
    },
    {
      "anonymous": false,
      "inputs": [
        {
          "indexed": true,
          "internalType": "address",
          "name": "previousOwner",
          "type": "address"
        },
        {
          "indexed": true,
          "internalType": "address",
          "name": "newOwner",
          "type": "address"
        }
      ],
      "name": "OwnershipTransferred",
      "type": "event"
    },
    {
      "anonymous": false,
      "inputs": [
        {
          "indexed": false,
          "internalType": "uint256",
          "name": "dstChainId",
          "type": "uint256"
        },
        {
          "indexed": false,
          "internalType": "address",
          "name": "receiverAdapter",
          "type": "address"
        }
      ],
      "name": "ReceiverAdapterUpdated",
      "type": "event"
    },
    {
      "inputs": [
        {
          "internalType": "uint256",
          "name": "_toChainId",
          "type": "uint256"
        },
        {
          "internalType": "address",
          "name": "_to",
          "type": "address"
        },
        {
          "internalType": "bytes",
          "name": "_data",
          "type": "bytes"
        }
      ],
      "name": "dispatchMessage",
      "outputs": [
        {
          "internalType": "bytes32",
          "name": "",
          "type": "bytes32"
        }
      ],
      "stateMutability": "payable",
      "type": "function"
    },
    {
      "inputs": [],
      "name": "getChainId",
      "outputs": [
        {
          "internalType": "uint256",
          "name": "cid",
          "type": "uint256"
        }
      ],
      "stateMutability": "view",
      "type": "function"
    },
    {
      "inputs": [
        {
          "internalType": "uint256",
          "name": "",
          "type": "uint256"
        },
        {
          "internalType": "address",
          "name": "",
          "type": "address"
        },
        {
          "internalType": "bytes",
          "name": "",
          "type": "bytes"
        }
      ],
      "name": "getMessageFee",
      "outputs": [
        {
          "internalType": "uint256",
          "name": "",
          "type": "uint256"
        }
      ],
      "stateMutability": "pure",
      "type": "function"
    },
    {
      "inputs": [],
      "name": "name",
      "outputs": [
        {
          "internalType": "string",
          "name": "",
          "type": "string"
        }
      ],
      "stateMutability": "view",
      "type": "function"
    },
    {
      "inputs": [],
      "name": "nonce",
      "outputs": [
        {
          "internalType": "uint256",
          "name": "",
          "type": "uint256"
        }
      ],
      "stateMutability": "view",
      "type": "function"
    },
    {
      "inputs": [],
      "name": "owner",
      "outputs": [
        {
          "internalType": "address",
          "name": "",
          "type": "address"
        }
      ],
      "stateMutability": "view",
      "type": "function"
    },
    {
      "inputs": [
        {
          "internalType": "uint256",
          "name": "",
          "type": "uint256"
        }
      ],
      "name": "receiverAdapters",
      "outputs": [
        {
          "internalType": "address",
          "name": "",
          "type": "address"
        }
      ],
      "stateMutability": "view",
      "type": "function"
    },
    {
      "inputs": [],
      "name": "renounceOwnership",
      "outputs": [],
      "stateMutability": "nonpayable",
      "type": "function"
    },
    {
      "inputs": [],
      "name": "telepathyRouter",
      "outputs": [
        {
          "internalType": "address",
          "name": "",
          "type": "address"
        }
      ],
      "stateMutability": "view",
      "type": "function"
    },
    {
      "inputs": [
        {
          "internalType": "address",
          "name": "newOwner",
          "type": "address"
        }
      ],
      "name": "transferOwnership",
      "outputs": [],
      "stateMutability": "nonpayable",
      "type": "function"
    },
    {
      "inputs": [
        {
          "internalType": "uint256[]",
          "name": "_dstChainIds",
          "type": "uint256[]"
        },
        {
          "internalType": "address[]",
          "name": "_receiverAdapters",
          "type": "address[]"
        }
      ],
      "name": "updateReceiverAdapter",
      "outputs": [],
      "stateMutability": "nonpayable",
      "type": "function"
    }
  ],
  "bytecode": {
    "object": "0x60a060405234801561001057600080fd5b50604051610aa3380380610aa383398101604081905261002f9161009b565b61003833610049565b6001600160a01b03166080526100cb565b600180546001600160a01b038381166001600160a01b0319831681179093556040519116919082907f8be0079c531659141344cd1fd0a4f28419497f9722a3daafe3b4186f6b6457e090600090a35050565b6000602082840312156100ad57600080fd5b81516001600160a01b03811681146100c457600080fd5b9392505050565b6080516109b66100ed600039600081816101f9015261048b01526109b66000f3fe60806040526004361061009c5760003560e01c8063affed0e011610064578063affed0e01461018c578063bbec993c146101a2578063c7302696146101c2578063dcc63290146101e7578063f2fde38b1461021b578063fe39827b1461023b57600080fd5b806306fdde03146100a15780630b3dfc67146100ec5780633408e4701461013a578063715018a6146101575780638da5cb5b1461016e575b600080fd5b3480156100ad57600080fd5b506100d66040518060400160405280600981526020016874656c65706174687960b81b81525081565b6040516100e391906106bc565b60405180910390f35b3480156100f857600080fd5b506101226101073660046106d6565b6002602052600090815260409020546001600160a01b031681565b6040516001600160a01b0390911681526020016100e3565b34801561014657600080fd5b50465b6040519081526020016100e3565b34801561016357600080fd5b5061016c61024e565b005b34801561017a57600080fd5b506001546001600160a01b0316610122565b34801561019857600080fd5b5061014960005481565b3480156101ae57600080fd5b5061016c6101bd36600461073b565b610262565b3480156101ce57600080fd5b506101496101dd3660046107c3565b6000949350505050565b3480156101f357600080fd5b506101227f000000000000000000000000000000000000000000000000000000000000000081565b34801561022757600080fd5b5061016c61023636600461084a565b6103b2565b6101496102493660046107c3565b61042b565b61025661055b565b61026060006105b5565b565b61026a61055b565b8281146102995760405163ae716f9f60e01b815260048101849052602481018290526044015b60405180910390fd5b60005b838110156103ab578282828181106102b6576102b6610865565b90506020020160208101906102cb919061084a565b600260008787858181106102e1576102e1610865565b90506020020135815260200190815260200160002060006101000a8154816001600160a01b0302191690836001600160a01b031602179055507fe6e0801d01ab5bf2b55c3ce96ab43ea0bbf545cc39008a7dc4e8cd5fa881df2785858381811061034d5761034d610865565b9050602002013584848481811061036657610366610865565b905060200201602081019061037b919061084a565b604080519283526001600160a01b0390911660208301520160405180910390a16103a48161087b565b905061029c565b5050505050565b6103ba61055b565b6001600160a01b03811661041f5760405162461bcd60e51b815260206004820152602660248201527f4f776e61626c653a206e6577206f776e657220697320746865207a65726f206160448201526564647265737360d01b6064820152608401610290565b610428816105b5565b50565b6000806104388686610607565b9050600081338787876040516020016104559594939291906108cb565b60408051601f1981840301815282825260008a81526002602052919091205463341a354960e11b83529092506001600160a01b037f00000000000000000000000000000000000000000000000000000000000000008116926368346a92926104c6928c929116908690600401610909565b6020604051808303816000875af11580156104e5573d6000803e3d6000fd5b505050506040513d601f19601f820116820180604052508101906105099190610942565b5086336001600160a01b0316837fe2f8f20ddbedfce5eb59a8b930077e7f4906a01300b9318db5f90d1c96c7b6d48989896040516105499392919061095b565b60405180910390a45095945050505050565b6001546001600160a01b031633146102605760405162461bcd60e51b815260206004820181905260248201527f4f776e61626c653a2063616c6c6572206973206e6f7420746865206f776e65726044820152606401610290565b600180546001600160a01b038381166001600160a01b0319831681179093556040519116919082907f8be0079c531659141344cd1fd0a4f28419497f9722a3daafe3b4186f6b6457e090600090a35050565b60008054604080514660208083019190915281830187905260608083018590526bffffffffffffffffffffffff1930821b811660808501529087901b1660948301528251808303608801815260a89092019092528051910120918061066b8361087b565b919050555092915050565b6000815180845260005b8181101561069c57602081850181015186830182015201610680565b506000602082860101526020601f19601f83011685010191505092915050565b6020815260006106cf6020830184610676565b9392505050565b6000602082840312156106e857600080fd5b5035919050565b60008083601f84011261070157600080fd5b50813567ffffffffffffffff81111561071957600080fd5b6020830191508360208260051b850101111561073457600080fd5b9250929050565b6000806000806040858703121561075157600080fd5b843567ffffffffffffffff8082111561076957600080fd5b610775888389016106ef565b9096509450602087013591508082111561078e57600080fd5b5061079b878288016106ef565b95989497509550505050565b80356001600160a01b03811681146107be57600080fd5b919050565b600080600080606085870312156107d957600080fd5b843593506107e9602086016107a7565b9250604085013567ffffffffffffffff8082111561080657600080fd5b818701915087601f83011261081a57600080fd5b81358181111561082957600080fd5b88602082850101111561083b57600080fd5b95989497505060200194505050565b60006020828403121561085c57600080fd5b6106cf826107a7565b634e487b7160e01b600052603260045260246000fd5b60006001820161089b57634e487b7160e01b600052601160045260246000fd5b5060010190565b81835281816020850137506000828201602090810191909152601f909101601f19169091010190565b8581526001600160a01b038581166020830152841660408201526080606082018190526000906108fe90830184866108a2565b979650505050505050565b63ffffffff841681526001600160a01b038316602082015260606040820181905260009061093990830184610676565b95945050505050565b60006020828403121561095457600080fd5b5051919050565b6001600160a01b038416815260406020820181905260009061093990830184866108a256fea26469706673582212202f26b2fdae7dcaa5b37b1d8d3c638675023e6f3ccf2a4175d0ce84b119b6602064736f6c63430008110033",
    "linkReferences": {}
  },
  "methodIdentifiers": {
    "dispatchMessage(uint256,address,bytes)": "fe39827b",
    "getChainId()": "3408e470",
    "getMessageFee(uint256,address,bytes)": "c7302696",
    "name()": "06fdde03",
    "nonce()": "affed0e0",
    "owner()": "8da5cb5b",
    "receiverAdapters(uint256)": "0b3dfc67",
    "renounceOwnership()": "715018a6",
    "telepathyRouter()": "dcc63290",
    "transferOwnership(address)": "f2fde38b",
    "updateReceiverAdapter(uint256[],address[])": "bbec993c"
  },
  "id": 31
}