{
  "abi": [
    {
      "anonymous": false,
      "inputs": [
        {
          "indexed": false,
          "internalType": "uint8",
          "name": "version",
          "type": "uint8"
        }
      ],
      "name": "Initialized",
      "type": "event"
    },
    {
      "anonymous": false,
      "inputs": [
        {
          "indexed": false,
          "internalType": "bytes32",
          "name": "msgId",
          "type": "bytes32"
        },
        {
          "indexed": false,
          "internalType": "uint256",
          "name": "srcChainId",
          "type": "uint256"
        },
        {
          "indexed": false,
          "internalType": "uint32",
          "name": "nonce",
          "type": "uint32"
        },
        {
          "indexed": false,
          "internalType": "address",
          "name": "target",
          "type": "address"
        },
        {
          "indexed": false,
          "internalType": "bytes",
          "name": "callData",
          "type": "bytes"
        }
      ],
      "name": "MessageExecuted",
      "type": "event"
    },
    {
      "anonymous": false,
      "inputs": [
        {
          "indexed": false,
          "internalType": "uint256",
          "name": "chainId",
          "type": "uint256"
        },
        {
          "indexed": false,
          "internalType": "address",
          "name": "multiMessageSender",
          "type": "address"
        }
      ],
      "name": "MultiMessageSenderUpdated",
      "type": "event"
    },
    {
      "anonymous": false,
      "inputs": [
        {
          "indexed": false,
          "internalType": "uint64",
          "name": "quorumThreshold",
          "type": "uint64"
        }
      ],
      "name": "QuorumThresholdUpdated",
      "type": "event"
    },
    {
      "anonymous": false,
      "inputs": [
        {
          "indexed": false,
          "internalType": "address",
          "name": "receiverAdapter",
          "type": "address"
        },
        {
          "indexed": false,
          "internalType": "bool",
          "name": "add",
          "type": "bool"
        }
      ],
      "name": "ReceiverAdapterUpdated",
      "type": "event"
    },
    {
      "anonymous": false,
      "inputs": [
        {
          "indexed": false,
          "internalType": "bytes32",
          "name": "msgId",
          "type": "bytes32"
        },
        {
          "indexed": false,
          "internalType": "uint256",
          "name": "srcChainId",
          "type": "uint256"
        },
        {
          "indexed": true,
          "internalType": "string",
          "name": "bridgeName",
          "type": "string"
        },
        {
          "indexed": false,
          "internalType": "uint32",
          "name": "nonce",
          "type": "uint32"
        },
        {
          "indexed": false,
          "internalType": "address",
          "name": "receiverAdapter",
          "type": "address"
        }
      ],
      "name": "SingleBridgeMsgReceived",
      "type": "event"
    },
    {
      "inputs": [
        {
          "internalType": "uint64",
          "name": "_srcChainId",
          "type": "uint64"
        },
        {
          "internalType": "uint64",
          "name": "_dstChainId",
          "type": "uint64"
        },
        {
          "internalType": "uint32",
          "name": "_nonce",
          "type": "uint32"
        },
        {
          "internalType": "address",
          "name": "_target",
          "type": "address"
        },
        {
          "internalType": "bytes",
          "name": "_callData",
          "type": "bytes"
        },
        {
          "internalType": "uint64",
          "name": "_expiration",
          "type": "uint64"
        }
      ],
      "name": "executeMessage",
      "outputs": [],
      "stateMutability": "nonpayable",
      "type": "function"
    },
    {
      "inputs": [
        {
          "internalType": "bytes32",
          "name": "msgId",
          "type": "bytes32"
        }
      ],
      "name": "getMessageInfo",
      "outputs": [
        {
          "internalType": "bool",
          "name": "",
          "type": "bool"
        },
        {
          "internalType": "uint64",
          "name": "",
          "type": "uint64"
        },
        {
          "internalType": "address[]",
          "name": "",
          "type": "address[]"
        }
      ],
      "stateMutability": "view",
      "type": "function"
    },
    {
      "inputs": [
        {
          "internalType": "uint256",
          "name": "_srcChainId",
          "type": "uint256"
        },
        {
          "internalType": "address",
          "name": "_multiMessageSender",
          "type": "address"
        },
        {
          "internalType": "address[]",
          "name": "_receiverAdapters",
          "type": "address[]"
        },
        {
          "internalType": "uint64",
          "name": "_quorumThreshold",
          "type": "uint64"
        }
      ],
      "name": "initialize",
      "outputs": [],
      "stateMutability": "nonpayable",
      "type": "function"
    },
    {
      "inputs": [
        {
          "internalType": "address",
          "name": "_executor",
          "type": "address"
        }
      ],
      "name": "isTrustedExecutor",
      "outputs": [
        {
          "internalType": "bool",
          "name": "",
          "type": "bool"
        }
      ],
      "stateMutability": "view",
      "type": "function"
    },
    {
      "inputs": [
        {
          "internalType": "bytes32",
          "name": "",
          "type": "bytes32"
        }
      ],
      "name": "msgInfos",
      "outputs": [
        {
          "internalType": "bool",
          "name": "executed",
          "type": "bool"
        }
      ],
      "stateMutability": "view",
      "type": "function"
    },
    {
      "inputs": [],
      "name": "multiMessageSender",
      "outputs": [
        {
          "internalType": "address",
          "name": "",
          "type": "address"
        }
      ],
      "stateMutability": "view",
      "type": "function"
    },
    {
      "inputs": [],
      "name": "quorumThreshold",
      "outputs": [
        {
          "internalType": "uint64",
          "name": "",
          "type": "uint64"
        }
      ],
      "stateMutability": "view",
      "type": "function"
    },
    {
      "inputs": [
        {
          "components": [
            {
              "internalType": "uint64",
              "name": "dstChainId",
              "type": "uint64"
            },
            {
              "internalType": "uint32",
              "name": "nonce",
              "type": "uint32"
            },
            {
              "internalType": "address",
              "name": "target",
              "type": "address"
            },
            {
              "internalType": "bytes",
              "name": "callData",
              "type": "bytes"
            },
            {
              "internalType": "uint64",
              "name": "expiration",
              "type": "uint64"
            },
            {
              "internalType": "string",
              "name": "bridgeName",
              "type": "string"
            }
          ],
          "internalType": "struct MessageStruct.Message",
          "name": "_message",
          "type": "tuple"
        }
      ],
      "name": "receiveMessage",
      "outputs": [],
      "stateMutability": "nonpayable",
      "type": "function"
    },
    {
      "inputs": [],
      "name": "srcChainId",
      "outputs": [
        {
          "internalType": "uint256",
          "name": "",
          "type": "uint256"
        }
      ],
      "stateMutability": "view",
      "type": "function"
    },
    {
      "inputs": [
        {
          "internalType": "uint256",
          "name": "",
          "type": "uint256"
        }
      ],
      "name": "trustedExecutor",
      "outputs": [
        {
          "internalType": "address",
          "name": "",
          "type": "address"
        }
      ],
      "stateMutability": "view",
      "type": "function"
    },
    {
      "inputs": [
        {
          "internalType": "uint256",
          "name": "_srcChainId",
          "type": "uint256"
        },
        {
          "internalType": "address",
          "name": "_multiMessageSender",
          "type": "address"
        }
      ],
      "name": "updateMultiMessageSender",
      "outputs": [],
      "stateMutability": "nonpayable",
      "type": "function"
    },
    {
      "inputs": [
        {
          "internalType": "uint64",
          "name": "_quorumThreshold",
          "type": "uint64"
        }
      ],
      "name": "updateQuorumThreshold",
      "outputs": [],
      "stateMutability": "nonpayable",
      "type": "function"
    },
    {
      "inputs": [
        {
          "internalType": "address[]",
          "name": "_receiverAdapters",
          "type": "address[]"
        },
        {
          "internalType": "bool[]",
          "name": "_operations",
          "type": "bool[]"
        }
      ],
      "name": "updateReceiverAdapter",
      "outputs": [],
      "stateMutability": "nonpayable",
      "type": "function"
    }
  ],
  "bytecode": {
    "object": "0x608060405234801561001057600080fd5b506119fc806100206000396000f3fe608060405234801561001057600080fd5b50600436106100cf5760003560e01c80637b7a91dd1161008c578063a19e38cf11610066578063a19e38cf146101e1578063b3ff7563146101f4578063bf0f465814610216578063c31e0ac21461022957600080fd5b80637b7a91dd146101715780637db8d3ed146101a357806384a5e7af146101ce57600080fd5b806327055d94146100d457806349d12605146100e9578063672657ca146101055780636e8b481914610128578063745fc1d91461013b578063779e07e41461015e575b600080fd5b6100e76100e23660046112b7565b61023c565b005b6100f260025481565b6040519081526020015b60405180910390f35b6101186101133660046112e3565b610272565b60405190151581526020016100fc565b6100e761013636600461131c565b6102d9565b610118610149366004611337565b60046020526000908152604090205460ff1681565b6100e761016c36600461139b565b6103bd565b60035461018b90600160a01b90046001600160401b031681565b6040516001600160401b0390911681526020016100fc565b6003546101b6906001600160a01b031681565b6040516001600160a01b0390911681526020016100fc565b6100e76101dc366004611409565b61065a565b6100e76101ef366004611474565b610732565b610207610202366004611337565b6109f7565b6040516100fc939291906114ae565b6101b6610224366004611337565b610b46565b6100e761023736600461152b565b610b70565b3330146102645760405162461bcd60e51b815260040161025b906115f0565b60405180910390fd5b61026e8282610e4c565b5050565b6000805b6000548110156102d057826001600160a01b03166000828154811061029d5761029d611612565b6000918252602090912001546001600160a01b0316036102c05750600192915050565b6102c98161163e565b9050610276565b50600092915050565b3330146102f85760405162461bcd60e51b815260040161025b906115f0565b6000546001600160401b0382161180159061031c57506000816001600160401b0316115b61035c5760405162461bcd60e51b81526020600482015260116024820152701a5b9d985b1a59081d1a1c995cda1bdb19607a1b604482015260640161025b565b6003805467ffffffffffffffff60a01b1916600160a01b6001600160401b038416908102919091179091556040519081527fffaa40d0959707195162710fd2a6718daa825d2e6466211451588195f93a4dea9060200160405180910390a150565b600154610100900460ff16158080156103da57506001805460ff16105b806103f35750303b1580156103f357506001805460ff16145b6104565760405162461bcd60e51b815260206004820152602e60248201527f496e697469616c697a61626c653a20636f6e747261637420697320616c72656160448201526d191e481a5b9a5d1a585b1a5e995960921b606482015260840161025b565b6001805460ff1916811790558015610478576001805461ff0019166101001790555b826104c55760405162461bcd60e51b815260206004820152601b60248201527f656d7074792072656365697665722061646170746572206c6973740000000000604482015260640161025b565b6001600160401b0382168310156105125760405162461bcd60e51b81526020600482015260116024820152701a5b9d985b1a59081d1a1c995cda1bdb19607a1b604482015260640161025b565b61051c8686610e4c565b60005b838110156105e757600085858381811061053b5761053b611612565b905060200201602081019061055091906112e3565b6001600160a01b0316036105a65760405162461bcd60e51b815260206004820181905260248201527f72656365697665722061646170746572206973207a65726f2061646472657373604482015260640161025b565b6105d78585838181106105bb576105bb611612565b90506020020160208101906105d091906112e3565b6001610f54565b6105e08161163e565b905061051f565b506003805467ffffffffffffffff60a01b1916600160a01b6001600160401b038516021790558015610652576001805461ff00191681556040519081527f7f26b83ff96e1f2b6a682f133852f6798a09c465da95921460cefb38474024989060200160405180910390a15b505050505050565b3330146106795760405162461bcd60e51b815260040161025b906115f0565b8281146106ba5760405162461bcd60e51b815260206004820152600f60248201526e0dad2e6dac2e8c6d040d8cadccee8d608b1b604482015260640161025b565b60005b8381101561072b5761071b8585838181106106da576106da611612565b90506020020160208101906106ef91906112e3565b84848481811061070157610701611612565b90506020020160208101906107169190611657565b610f54565b6107248161163e565b90506106bd565b5050505050565b61073b33610272565b6107935760405162461bcd60e51b815260206004820152602360248201527f6e6f7420616c6c6f7765642062726964676520726563656976657220616461706044820152623a32b960e91b606482015260840161025b565b600061079d611024565b905060025481146107f05760405162461bcd60e51b815260206004820152601d60248201527f6e6f742066726f6d20616c6c6f77656420736f7572636520636861696e000000604482015260640161025b565b6003546001600160a01b0316610804611039565b6001600160a01b03161461085a5760405162461bcd60e51b815260206004820152601b60248201527f6e6f742066726f6d204d756c74694d65737361676553656e6465720000000000604482015260640161025b565b46610868602084018461131c565b6001600160401b0316146108b75760405162461bcd60e51b81526020600482015260166024820152750c8cae6e840c6d0c2d2dc92c840dcdee840dac2e8c6d60531b604482015260640161025b565b60006108cb6108c584611743565b83611061565b600081815260046020908152604080832033845260018101909252909120549192509060ff16156109505760405162461bcd60e51b815260206004820152602960248201527f616c72656164792072656365697665642066726f6d2074686973206272696467604482015268329030b230b83a32b960b91b606482015260840161025b565b33600090815260018281016020526040909120805460ff1916909117905561097b60a08501856117f3565b604051610989929190611839565b60405180910390207f839b631eadd90dd60a411775af5f63fb53254c2419e5c53fd44ac0d58f25d08f83858760200160208101906109c79190611849565b60408051938452602084019290925263ffffffff169082015233606082015260800160405180910390a250505050565b6000818152600460205260408120819060609082610a14826110b1565b90506000816001600160401b03166001600160401b03811115610a3957610a39611679565b604051908082528060200260200182016040528015610a62578160200160208202803683370190505b5090506001600160401b03821615610b35576000805b6000546001600160401b0382161015610b3257600080826001600160401b031681548110610aa857610aa8611612565b60009182526020808320909101546001600160a01b03168083526001890190915260409091205490915060ff1615610b1f57808484610ae681611864565b955063ffffffff1681518110610afe57610afe611612565b60200260200101906001600160a01b031690816001600160a01b0316815250505b5080610b2a81611887565b915050610a78565b50505b915460ff1696909550909350915050565b60008181548110610b5657600080fd5b6000918252602090912001546001600160a01b0316905081565b42816001600160401b03161080610b8e57506001600160401b038116155b610bcc5760405162461bcd60e51b815260206004820152600f60248201526e1b595cdcd859d948195e1c1a5c9959608a1b604482015260640161025b565b60006040518060c00160405280886001600160401b031681526020018763ffffffff168152602001866001600160a01b0316815260200185858080601f01602080910402602001604051908101604052809392919081815260200183838082843760009201829052509385525050506001600160401b03851660208084019190915260408051918201815282825290920191909152909150610c6e828a611061565b600081815260046020526040902080549192509060ff1615610cd25760405162461bcd60e51b815260206004820152601860248201527f6d65737361676520616c72656164792065786563757465640000000000000000604482015260640161025b565b805460ff191660011781556003546001600160401b03600160a01b90910416610cfa826110b1565b6001600160401b03161015610d455760405162461bcd60e51b81526020600482015260116024820152701d1a1c995cda1bdb19081b9bdd081b595d607a1b604482015260640161025b565b6000876001600160a01b03168787604051610d61929190611839565b6000604051808303816000865af19150503d8060008114610d9e576040519150601f19603f3d011682016040523d82523d6000602084013e610da3565b606091505b5050905080610dfe5760405162461bcd60e51b815260206004820152602160248201527f65787465726e616c206d65737361676520657865637574696f6e206661696c656044820152601960fa1b606482015260840161025b565b7f02c84080e7a5f97910b6461c2c74ed33c555fdb924612e8c157c6d10e1f7e534838c8b8b8b8b604051610e37969594939291906118a3565b60405180910390a15050505050505050505050565b81600003610e915760405162461bcd60e51b8152602060048201526012602482015271737263436861696e4964206973207a65726f60701b604482015260640161025b565b6001600160a01b038116610ef25760405162461bcd60e51b815260206004820152602260248201527f6d756c74694d65737361676553656e646572206973207a65726f206164647265604482015261737360f01b606482015260840161025b565b6002829055600380546001600160a01b0319166001600160a01b0383169081179091556040805184815260208101929092527f7ad14971def4bd46bb2f84649c5c3965d62efc0166868141e4322bb358bc191a91015b60405180910390a15050565b8015610f6857610f638261112b565b610fe4565b610f7182611184565b600054600354600160a01b90046001600160401b03161115610fe45760405162461bcd60e51b815260206004820152602660248201527f696e73756666696369656e7420746f74616c20706f7765722061667465722072604482015265195b5bdd985b60d21b606482015260840161025b565b604080516001600160a01b038416815282151560208201527f7602ec8e6200af222a93a64b4416c5f0751611e8fbe7d00e9f29f649aeddd32a9101610f48565b60006034361061103657506033193601355b90565b336014361080159061104f575061104f81610272565b15611036575060131936013560601c90565b6000818360000151846020015185604001518660600151876080015160405160200161109296959493929190611907565b6040516020818303038152906040528051906020012090505b92915050565b60008060005b6000548110156111245760008082815481106110d5576110d5611612565b60009182526020808320909101546001600160a01b03168083526001880190915260409091205490915060ff16156111135761111083611887565b92505b5061111d8161163e565b90506110b7565b5092915050565b61113481610272565b61118157600080546001810182559080527f290decd9548b62a8d60345a988386fc84ba6bc95484008f6362f93160ef3e5630180546001600160a01b0319166001600160a01b0383161790555b50565b600080546111949060019061199d565b905060005b60005481101561129657826001600160a01b0316600082815481106111c0576111c0611612565b6000918252602090912001546001600160a01b031603611286578181101561124e57600082815481106111f5576111f5611612565b600091825260208220015481546001600160a01b0390911691908390811061121f5761121f611612565b9060005260206000200160006101000a8154816001600160a01b0302191690836001600160a01b031602179055505b600080548061125f5761125f6119b0565b600082815260209020810160001990810180546001600160a01b0319169055019055505050565b61128f8161163e565b9050611199565b505050565b80356001600160a01b03811681146112b257600080fd5b919050565b600080604083850312156112ca57600080fd5b823591506112da6020840161129b565b90509250929050565b6000602082840312156112f557600080fd5b6112fe8261129b565b9392505050565b80356001600160401b03811681146112b257600080fd5b60006020828403121561132e57600080fd5b6112fe82611305565b60006020828403121561134957600080fd5b5035919050565b60008083601f84011261136257600080fd5b5081356001600160401b0381111561137957600080fd5b6020830191508360208260051b850101111561139457600080fd5b9250929050565b6000806000806000608086880312156113b357600080fd5b853594506113c36020870161129b565b935060408601356001600160401b038111156113de57600080fd5b6113ea88828901611350565b90945092506113fd905060608701611305565b90509295509295909350565b6000806000806040858703121561141f57600080fd5b84356001600160401b038082111561143657600080fd5b61144288838901611350565b9096509450602087013591508082111561145b57600080fd5b5061146887828801611350565b95989497509550505050565b60006020828403121561148657600080fd5b81356001600160401b0381111561149c57600080fd5b820160c081850312156112fe57600080fd5b600060608201851515835260206001600160401b0386168185015260606040850152818551808452608086019150828701935060005b818110156115095784516001600160a01b0316835293830193918301916001016114e4565b509098975050505050505050565b803563ffffffff811681146112b257600080fd5b600080600080600080600060c0888a03121561154657600080fd5b61154f88611305565b965061155d60208901611305565b955061156b60408901611517565b94506115796060890161129b565b935060808801356001600160401b038082111561159557600080fd5b818a0191508a601f8301126115a957600080fd5b8135818111156115b857600080fd5b8b60208285010111156115ca57600080fd5b6020830195508094505050506115e260a08901611305565b905092959891949750929550565b6020808252600890820152673737ba1039b2b63360c11b604082015260600190565b634e487b7160e01b600052603260045260246000fd5b634e487b7160e01b600052601160045260246000fd5b60006001820161165057611650611628565b5060010190565b60006020828403121561166957600080fd5b813580151581146112fe57600080fd5b634e487b7160e01b600052604160045260246000fd5b60405160c081016001600160401b03811182821017156116b1576116b1611679565b60405290565b600082601f8301126116c857600080fd5b81356001600160401b03808211156116e2576116e2611679565b604051601f8301601f19908116603f0116810190828211818310171561170a5761170a611679565b8160405283815286602085880101111561172357600080fd5b836020870160208301376000602085830101528094505050505092915050565b600060c0823603121561175557600080fd5b61175d61168f565b61176683611305565b815261177460208401611517565b60208201526117856040840161129b565b604082015260608301356001600160401b03808211156117a457600080fd5b6117b0368387016116b7565b60608401526117c160808601611305565b608084015260a08501359150808211156117da57600080fd5b506117e7368286016116b7565b60a08301525092915050565b6000808335601e1984360301811261180a57600080fd5b8301803591506001600160401b0382111561182457600080fd5b60200191503681900382131561139457600080fd5b8183823760009101908152919050565b60006020828403121561185b57600080fd5b6112fe82611517565b600063ffffffff80831681810361187d5761187d611628565b6001019392505050565b60006001600160401b0380831681810361187d5761187d611628565b8681526001600160401b038616602082015263ffffffff851660408201526001600160a01b038416606082015260a0608082018190528101829052818360c0830137600081830160c090810191909152601f909201601f1916010195945050505050565b6001600160c01b031960c088811b8216835287901b1660088201526001600160e01b031960e086901b1660108201526bffffffffffffffffffffffff19606085901b1660148201528251600090815b818110156119735760208187018101516028868401015201611956565b5060c09390931b6001600160c01b0319169190920160288101919091526030019695505050505050565b818103818111156110ab576110ab611628565b634e487b7160e01b600052603160045260246000fdfea264697066735822122067c6d691e50239d764cc479d32f2b84dbb20bb6cd4200f823dfa6658643f04f964736f6c63430008110033",
    "linkReferences": {}
  },
  "methodIdentifiers": {
    "executeMessage(uint64,uint64,uint32,address,bytes,uint64)": "c31e0ac2",
    "getMessageInfo(bytes32)": "b3ff7563",
    "initialize(uint256,address,address[],uint64)": "779e07e4",
    "isTrustedExecutor(address)": "672657ca",
    "msgInfos(bytes32)": "745fc1d9",
    "multiMessageSender()": "7db8d3ed",
    "quorumThreshold()": "7b7a91dd",
    "receiveMessage((uint64,uint32,address,bytes,uint64,string))": "a19e38cf",
    "srcChainId()": "49d12605",
    "trustedExecutor(uint256)": "bf0f4658",
    "updateMultiMessageSender(uint256,address)": "27055d94",
    "updateQuorumThreshold(uint64)": "6e8b4819",
    "updateReceiverAdapter(address[],bool[])": "84a5e7af"
  },
  "id": 13
}