{
  "abi": [
    {
      "inputs": [
        {
          "internalType": "address",
          "name": "_msgBus",
          "type": "address"
        }
      ],
      "stateMutability": "nonpayable",
      "type": "constructor"
    },
    {
      "inputs": [
        {
          "internalType": "bytes32",
          "name": "messageId",
          "type": "bytes32"
        },
        {
          "internalType": "uint256",
          "name": "messageIndex",
          "type": "uint256"
        },
        {
          "internalType": "bytes",
          "name": "errorData",
          "type": "bytes"
        }
      ],
      "name": "MessageBatchFailure",
      "type": "error"
    },
    {
      "inputs": [
        {
          "internalType": "bytes32",
          "name": "messageId",
          "type": "bytes32"
        },
        {
          "internalType": "bytes",
          "name": "errorData",
          "type": "bytes"
        }
      ],
      "name": "MessageFailure",
      "type": "error"
    },
    {
      "inputs": [
        {
          "internalType": "bytes32",
          "name": "messageId",
          "type": "bytes32"
        }
      ],
      "name": "MessageIdAlreadyExecuted",
      "type": "error"
    },
    {
      "anonymous": false,
      "inputs": [
        {
          "indexed": true,
          "internalType": "uint256",
          "name": "fromChainId",
          "type": "uint256"
        },
        {
          "indexed": true,
          "internalType": "bytes32",
          "name": "messageId",
          "type": "bytes32"
        }
      ],
      "name": "MessageIdExecuted",
      "type": "event"
    },
    {
      "anonymous": false,
      "inputs": [
        {
          "indexed": true,
          "internalType": "address",
          "name": "previousOwner",
          "type": "address"
        },
        {
          "indexed": true,
          "internalType": "address",
          "name": "newOwner",
          "type": "address"
        }
      ],
      "name": "OwnershipTransferred",
      "type": "event"
    },
    {
      "anonymous": false,
      "inputs": [
        {
          "indexed": false,
          "internalType": "address",
          "name": "account",
          "type": "address"
        }
      ],
      "name": "Paused",
      "type": "event"
    },
    {
      "anonymous": false,
      "inputs": [
        {
          "indexed": false,
          "internalType": "address",
          "name": "account",
          "type": "address"
        }
      ],
      "name": "PauserAdded",
      "type": "event"
    },
    {
      "anonymous": false,
      "inputs": [
        {
          "indexed": false,
          "internalType": "address",
          "name": "account",
          "type": "address"
        }
      ],
      "name": "PauserRemoved",
      "type": "event"
    },
    {
      "anonymous": false,
      "inputs": [
        {
          "indexed": false,
          "internalType": "uint256",
          "name": "srcChainId",
          "type": "uint256"
        },
        {
          "indexed": false,
          "internalType": "address",
          "name": "senderAdapter",
          "type": "address"
        }
      ],
      "name": "SenderAdapterUpdated",
      "type": "event"
    },
    {
      "anonymous": false,
      "inputs": [
        {
          "indexed": false,
          "internalType": "address",
          "name": "account",
          "type": "address"
        }
      ],
      "name": "Unpaused",
      "type": "event"
    },
    {
      "inputs": [
        {
          "internalType": "address",
          "name": "account",
          "type": "address"
        }
      ],
      "name": "addPauser",
      "outputs": [],
      "stateMutability": "nonpayable",
      "type": "function"
    },
    {
      "inputs": [
        {
          "internalType": "address",
          "name": "_srcContract",
          "type": "address"
        },
        {
          "internalType": "uint64",
          "name": "_srcChainId",
          "type": "uint64"
        },
        {
          "internalType": "bytes",
          "name": "_message",
          "type": "bytes"
        },
        {
          "internalType": "address",
          "name": "",
          "type": "address"
        }
      ],
      "name": "executeMessage",
      "outputs": [
        {
          "internalType": "enum IMessageReceiverApp.ExecutionStatus",
          "name": "",
          "type": "uint8"
        }
      ],
      "stateMutability": "payable",
      "type": "function"
    },
    {
      "inputs": [
        {
          "internalType": "bytes32",
          "name": "",
          "type": "bytes32"
        }
      ],
      "name": "executedMessages",
      "outputs": [
        {
          "internalType": "bool",
          "name": "",
          "type": "bool"
        }
      ],
      "stateMutability": "view",
      "type": "function"
    },
    {
      "inputs": [
        {
          "internalType": "address",
          "name": "account",
          "type": "address"
        }
      ],
      "name": "isPauser",
      "outputs": [
        {
          "internalType": "bool",
          "name": "",
          "type": "bool"
        }
      ],
      "stateMutability": "view",
      "type": "function"
    },
    {
      "inputs": [],
      "name": "msgBus",
      "outputs": [
        {
          "internalType": "address",
          "name": "",
          "type": "address"
        }
      ],
      "stateMutability": "view",
      "type": "function"
    },
    {
      "inputs": [],
      "name": "owner",
      "outputs": [
        {
          "internalType": "address",
          "name": "",
          "type": "address"
        }
      ],
      "stateMutability": "view",
      "type": "function"
    },
    {
      "inputs": [],
      "name": "ownerUnpauseOnly",
      "outputs": [
        {
          "internalType": "bool",
          "name": "",
          "type": "bool"
        }
      ],
      "stateMutability": "view",
      "type": "function"
    },
    {
      "inputs": [],
      "name": "pause",
      "outputs": [],
      "stateMutability": "nonpayable",
      "type": "function"
    },
    {
      "inputs": [],
      "name": "paused",
      "outputs": [
        {
          "internalType": "bool",
          "name": "",
          "type": "bool"
        }
      ],
      "stateMutability": "view",
      "type": "function"
    },
    {
      "inputs": [
        {
          "internalType": "address",
          "name": "",
          "type": "address"
        }
      ],
      "name": "pausers",
      "outputs": [
        {
          "internalType": "bool",
          "name": "",
          "type": "bool"
        }
      ],
      "stateMutability": "view",
      "type": "function"
    },
    {
      "inputs": [
        {
          "internalType": "address",
          "name": "account",
          "type": "address"
        }
      ],
      "name": "removePauser",
      "outputs": [],
      "stateMutability": "nonpayable",
      "type": "function"
    },
    {
      "inputs": [],
      "name": "renounceOwnership",
      "outputs": [],
      "stateMutability": "nonpayable",
      "type": "function"
    },
    {
      "inputs": [],
      "name": "renouncePauser",
      "outputs": [],
      "stateMutability": "nonpayable",
      "type": "function"
    },
    {
      "inputs": [
        {
          "internalType": "uint256",
          "name": "",
          "type": "uint256"
        }
      ],
      "name": "senderAdapters",
      "outputs": [
        {
          "internalType": "address",
          "name": "",
          "type": "address"
        }
      ],
      "stateMutability": "view",
      "type": "function"
    },
    {
      "inputs": [
        {
          "internalType": "bool",
          "name": "enable",
          "type": "bool"
        }
      ],
      "name": "setOwnerUnpauseOnly",
      "outputs": [],
      "stateMutability": "nonpayable",
      "type": "function"
    },
    {
      "inputs": [
        {
          "internalType": "address",
          "name": "newOwner",
          "type": "address"
        }
      ],
      "name": "transferOwnership",
      "outputs": [],
      "stateMutability": "nonpayable",
      "type": "function"
    },
    {
      "inputs": [],
      "name": "unpause",
      "outputs": [],
      "stateMutability": "nonpayable",
      "type": "function"
    },
    {
      "inputs": [
        {
          "internalType": "uint256[]",
          "name": "_srcChainIds",
          "type": "uint256[]"
        },
        {
          "internalType": "address[]",
          "name": "_senderAdapters",
          "type": "address[]"
        }
      ],
      "name": "updateSenderAdapter",
      "outputs": [],
      "stateMutability": "nonpayable",
      "type": "function"
    }
  ],
  "bytecode": {
    "object": "0x60a060405234801561001057600080fd5b5060405161150438038061150483398101604081905261002f91610177565b6100383361005f565b6000805460ff60a01b1916905561004e336100af565b6001600160a01b03166080526101a7565b600080546001600160a01b038381166001600160a01b0319831681178455604051919092169283917f8be0079c531659141344cd1fd0a4f28419497f9722a3daafe3b4186f6b6457e09190a35050565b6001600160a01b03811660009081526001602052604090205460ff161561011c5760405162461bcd60e51b815260206004820152601960248201527f4163636f756e7420697320616c72656164792070617573657200000000000000604482015260640160405180910390fd5b6001600160a01b038116600081815260016020818152604092839020805460ff191690921790915590519182527f6719d08c1888103bea251a4ed56406bd0c3e69723c8a1686e017e7bbe159b6f8910160405180910390a150565b60006020828403121561018957600080fd5b81516001600160a01b03811681146101a057600080fd5b9392505050565b60805161133b6101c9600039600081816101f50152610678015261133b6000f3fe6080604052600436106101095760003560e01c806382dc1ec411610095578063b291ac3d11610064578063b291ac3d146102d2578063cd2abd66146102ec578063d27766271461031c578063dcaa4d5214610352578063f2fde38b1461037257600080fd5b806382dc1ec41461025f5780638456cb591461027f5780638da5cb5b146102945780639c649fdf146102b257600080fd5b80636b2c0f55116100dc5780636b2c0f55146101995780636ef8d66d146101b9578063715018a6146101ce5780637de80588146101e357806380f51c121461022f57600080fd5b80633f4ba83a1461010e57806343d61f311461012557806346fbf68e146101455780635c975abb1461017a575b600080fd5b34801561011a57600080fd5b50610123610392565b005b34801561013157600080fd5b50610123610140366004610e30565b610457565b34801561015157600080fd5b50610165610160366004610ec1565b6105b9565b60405190151581526020015b60405180910390f35b34801561018657600080fd5b50600054600160a01b900460ff16610165565b3480156101a557600080fd5b506101236101b4366004610ec1565b6105d7565b3480156101c557600080fd5b506101236105eb565b3480156101da57600080fd5b506101236105f4565b3480156101ef57600080fd5b506102177f000000000000000000000000000000000000000000000000000000000000000081565b6040516001600160a01b039091168152602001610171565b34801561023b57600080fd5b5061016561024a366004610ec1565b60016020526000908152604090205460ff1681565b34801561026b57600080fd5b5061012361027a366004610ec1565b610606565b34801561028b57600080fd5b50610123610617565b3480156102a057600080fd5b506000546001600160a01b0316610217565b6102c56102c0366004610ee5565b61066b565b6040516101719190610f95565b3480156102de57600080fd5b506002546101659060ff1681565b3480156102f857600080fd5b50610165610307366004610fbd565b60046020526000908152604090205460ff1681565b34801561032857600080fd5b50610217610337366004610fbd565b6003602052600090815260409020546001600160a01b031681565b34801561035e57600080fd5b5061012361036d366004610fd6565b6109bf565b34801561037e57600080fd5b5061012361038d366004610ec1565b6109da565b61039b336105b9565b6103e35760405162461bcd60e51b815260206004820152601460248201527321b0b63632b91034b9903737ba103830bab9b2b960611b60448201526064015b60405180910390fd5b60025460ff161561044d57336104016000546001600160a01b031690565b6001600160a01b03161461044d5760405162461bcd60e51b815260206004820152601360248201527221b0b63632b91034b9903737ba1037bbb732b960691b60448201526064016103da565b610455610a50565b565b61045f610aa5565b8281146104a05760405162461bcd60e51b815260206004820152600f60248201526e0dad2e6dac2e8c6d040d8cadccee8d608b1b60448201526064016103da565b60005b838110156105b2578282828181106104bd576104bd610ff8565b90506020020160208101906104d29190610ec1565b600360008787858181106104e8576104e8610ff8565b90506020020135815260200190815260200160002060006101000a8154816001600160a01b0302191690836001600160a01b031602179055507f9139a67da6e19ecec5385e1a8369fe363a09195dfe90124ec496b70a1fdedc7685858381811061055457610554610ff8565b9050602002013584848481811061056d5761056d610ff8565b90506020020160208101906105829190610ec1565b604080519283526001600160a01b0390911660208301520160405180910390a16105ab8161100e565b90506104a3565b5050505050565b6001600160a01b031660009081526001602052604090205460ff1690565b6105df610aa5565b6105e881610aff565b50565b61045533610aff565b6105fc610aa5565b6104556000610ba4565b61060e610aa5565b6105e881610bf4565b610620336105b9565b6106635760405162461bcd60e51b815260206004820152601460248201527321b0b63632b91034b9903737ba103830bab9b2b960611b60448201526064016103da565b610455610c9f565b6000336001600160a01b037f000000000000000000000000000000000000000000000000000000000000000016146106e55760405162461bcd60e51b815260206004820152601960248201527f63616c6c6572206973206e6f74206d657373616765206275730000000000000060448201526064016103da565b600054600160a01b900460ff16156040518060400160405280600b81526020016a26a9a39d1d20a127a92a1d60a91b8152506040516020016107279190611059565b604051602081830303815290604052906107545760405162461bcd60e51b81526004016103da91906110b9565b5060008080806107668789018961113b565b67ffffffffffffffff8d16600090815260036020526040902054939750919550935091506001600160a01b038b81169116146107e45760405162461bcd60e51b815260206004820152601a60248201527f6e6f7420616c6c6f776564206d6573736167652073656e64657200000000000060448201526064016103da565b60008481526004602052604090205460ff16156108175760405163153bf81360e31b8152600481018590526024016103da565b6000848152600460205260409020805460ff19166001179055600080836001600160a01b031683878d67ffffffffffffffff168860405160200161085e94939291906111ea565b60408051601f19818403018152908290526108789161122b565b6000604051808303816000865af19150503d80600081146108b5576040519150601f19603f3d011682016040523d82523d6000602084013e6108ba565b606091505b5091509150816109755760006108cf82610ce2565b90506040518060400160405280600b81526020016a26a9a39d1d20a127a92a1d60a91b81525063be72113c60e01b8883604051602401610910929190611247565b60408051601f19818403018152918152602080830180516001600160e01b03166001600160e01b0319909516949094179093525161094f939201611268565b60408051601f198184030181529082905262461bcd60e51b82526103da916004016110b9565b604051869067ffffffffffffffff8d16907e769f3f82cb2a521c5b72f211aff687dae3cebd0b4631790417d1b17e15689a90600090a3600196505050505050505b95945050505050565b6109c7610aa5565b6002805460ff1916911515919091179055565b6109e2610aa5565b6001600160a01b038116610a475760405162461bcd60e51b815260206004820152602660248201527f4f776e61626c653a206e6577206f776e657220697320746865207a65726f206160448201526564647265737360d01b60648201526084016103da565b6105e881610ba4565b610a58610d47565b6000805460ff60a01b191690557f5db9ee0a495bf2e6ff9c91a7834c1ba4fdd244a5e8aa4e537bd38aeae4b073aa335b6040516001600160a01b03909116815260200160405180910390a1565b6000546001600160a01b031633146104555760405162461bcd60e51b815260206004820181905260248201527f4f776e61626c653a2063616c6c6572206973206e6f7420746865206f776e657260448201526064016103da565b610b08816105b9565b610b4c5760405162461bcd60e51b815260206004820152601560248201527420b1b1b7bab73a1034b9903737ba103830bab9b2b960591b60448201526064016103da565b6001600160a01b038116600081815260016020908152604091829020805460ff1916905590519182527fcd265ebaf09df2871cc7bd4133404a235ba12eff2041bb89d9c714a2621c7c7e91015b60405180910390a150565b600080546001600160a01b038381166001600160a01b0319831681178455604051919092169283917f8be0079c531659141344cd1fd0a4f28419497f9722a3daafe3b4186f6b6457e09190a35050565b610bfd816105b9565b15610c4a5760405162461bcd60e51b815260206004820152601960248201527f4163636f756e7420697320616c7265616479207061757365720000000000000060448201526064016103da565b6001600160a01b038116600081815260016020818152604092839020805460ff191690921790915590519182527f6719d08c1888103bea251a4ed56406bd0c3e69723c8a1686e017e7bbe159b6f89101610b99565b610ca7610d97565b6000805460ff60a01b1916600160a01b1790557f62e78cea01bee320cd4e420270b5ea74000d11b0c9f74754ebdbfc544b05a258610a883390565b6060604482511015610d2757505060408051808201909152601d81527f5472616e73616374696f6e2072657665727465642073696c656e746c79000000602082015290565b60048201915081806020019051810190610d419190611297565b92915050565b600054600160a01b900460ff166104555760405162461bcd60e51b815260206004820152601460248201527314185d5cd8589b194e881b9bdd081c185d5cd95960621b60448201526064016103da565b600054600160a01b900460ff16156104555760405162461bcd60e51b815260206004820152601060248201526f14185d5cd8589b194e881c185d5cd95960821b60448201526064016103da565b60008083601f840112610df657600080fd5b50813567ffffffffffffffff811115610e0e57600080fd5b6020830191508360208260051b8501011115610e2957600080fd5b9250929050565b60008060008060408587031215610e4657600080fd5b843567ffffffffffffffff80821115610e5e57600080fd5b610e6a88838901610de4565b90965094506020870135915080821115610e8357600080fd5b50610e9087828801610de4565b95989497509550505050565b6001600160a01b03811681146105e857600080fd5b8035610ebc81610e9c565b919050565b600060208284031215610ed357600080fd5b8135610ede81610e9c565b9392505050565b600080600080600060808688031215610efd57600080fd5b8535610f0881610e9c565b9450602086013567ffffffffffffffff8082168214610f2657600080fd5b90945060408701359080821115610f3c57600080fd5b818801915088601f830112610f5057600080fd5b813581811115610f5f57600080fd5b896020828501011115610f7157600080fd5b602083019550809450505050610f8960608701610eb1565b90509295509295909350565b6020810160038310610fb757634e487b7160e01b600052602160045260246000fd5b91905290565b600060208284031215610fcf57600080fd5b5035919050565b600060208284031215610fe857600080fd5b81358015158114610ede57600080fd5b634e487b7160e01b600052603260045260246000fd5b60006001820161102e57634e487b7160e01b600052601160045260246000fd5b5060010190565b60005b83811015611050578181015183820152602001611038565b50506000910152565b6000825161106b818460208701611035565b6f14185d5cd8589b194e881c185d5cd95960821b920191825250601001919050565b600081518084526110a5816020860160208601611035565b601f01601f19169290920160200192915050565b602081526000610ede602083018461108d565b634e487b7160e01b600052604160045260246000fd5b604051601f8201601f1916810167ffffffffffffffff8111828210171561110b5761110b6110cc565b604052919050565b600067ffffffffffffffff82111561112d5761112d6110cc565b50601f01601f191660200190565b6000806000806080858703121561115157600080fd5b84359350602085013561116381610e9c565b9250604085013561117381610e9c565b9150606085013567ffffffffffffffff81111561118f57600080fd5b8501601f810187136111a057600080fd5b80356111b36111ae82611113565b6110e2565b8181528860208385010111156111c857600080fd5b8160208401602083013760006020838301015280935050505092959194509250565b600085516111fc818460208a01611035565b9190910193845250602083019190915260601b6bffffffffffffffffffffffff19166040820152605401919050565b6000825161123d818460208701611035565b9190910192915050565b828152604060208201526000611260604083018461108d565b949350505050565b6000835161127a818460208801611035565b83519083019061128e818360208801611035565b01949350505050565b6000602082840312156112a957600080fd5b815167ffffffffffffffff8111156112c057600080fd5b8201601f810184136112d157600080fd5b80516112df6111ae82611113565b8181528560208385010111156112f457600080fd5b6109b682602083016020860161103556fea2646970667358221220eb0fdec5991b66a0d94cb0f480970c35808151ac070507377bcc2065581257ff64736f6c63430008110033",
    "linkReferences": {}
  },
  "methodIdentifiers": {
    "addPauser(address)": "82dc1ec4",
    "executeMessage(address,uint64,bytes,address)": "9c649fdf",
    "executedMessages(bytes32)": "cd2abd66",
    "isPauser(address)": "46fbf68e",
    "msgBus()": "7de80588",
    "owner()": "8da5cb5b",
    "ownerUnpauseOnly()": "b291ac3d",
    "pause()": "8456cb59",
    "paused()": "5c975abb",
    "pausers(address)": "80f51c12",
    "removePauser(address)": "6b2c0f55",
    "renounceOwnership()": "715018a6",
    "renouncePauser()": "6ef8d66d",
    "senderAdapters(uint256)": "d2776627",
    "setOwnerUnpauseOnly(bool)": "dcaa4d52",
    "transferOwnership(address)": "f2fde38b",
    "unpause()": "3f4ba83a",
    "updateSenderAdapter(uint256[],address[])": "43d61f31"
  },
  "id": 15
}