{
  "abi": [
    {
      "inputs": [
        {
          "internalType": "address",
          "name": "_telepathyRouter",
          "type": "address"
        }
      ],
      "stateMutability": "nonpayable",
      "type": "constructor"
    },
    {
      "inputs": [
        {
          "internalType": "address",
          "name": "senderAdapter",
          "type": "address"
        }
      ],
      "name": "InvalidSenderAdapter",
      "type": "error"
    },
    {
      "inputs": [
        {
          "internalType": "bytes32",
          "name": "messageId",
          "type": "bytes32"
        },
        {
          "internalType": "uint256",
          "name": "messageIndex",
          "type": "uint256"
        },
        {
          "internalType": "bytes",
          "name": "errorData",
          "type": "bytes"
        }
      ],
      "name": "MessageBatchFailure",
      "type": "error"
    },
    {
      "inputs": [
        {
          "internalType": "bytes32",
          "name": "messageId",
          "type": "bytes32"
        },
        {
          "internalType": "bytes",
          "name": "errorData",
          "type": "bytes"
        }
      ],
      "name": "MessageFailure",
      "type": "error"
    },
    {
      "inputs": [
        {
          "internalType": "bytes32",
          "name": "messageId",
          "type": "bytes32"
        }
      ],
      "name": "MessageIdAlreadyExecuted",
      "type": "error"
    },
    {
      "inputs": [
        {
          "internalType": "uint256",
          "name": "chainIdsLength",
          "type": "uint256"
        },
        {
          "internalType": "uint256",
          "name": "adaptersLength",
          "type": "uint256"
        }
      ],
      "name": "MismatchAdapterArrLength",
      "type": "error"
    },
    {
      "inputs": [
        {
          "internalType": "address",
          "name": "sender",
          "type": "address"
        }
      ],
      "name": "NotFromTelepathyRouter",
      "type": "error"
    },
    {
      "anonymous": false,
      "inputs": [
        {
          "indexed": true,
          "internalType": "uint256",
          "name": "fromChainId",
          "type": "uint256"
        },
        {
          "indexed": true,
          "internalType": "bytes32",
          "name": "messageId",
          "type": "bytes32"
        }
      ],
      "name": "MessageIdExecuted",
      "type": "event"
    },
    {
      "anonymous": false,
      "inputs": [
        {
          "indexed": true,
          "internalType": "address",
          "name": "previousOwner",
          "type": "address"
        },
        {
          "indexed": true,
          "internalType": "address",
          "name": "newOwner",
          "type": "address"
        }
      ],
      "name": "OwnershipTransferred",
      "type": "event"
    },
    {
      "anonymous": false,
      "inputs": [
        {
          "indexed": false,
          "internalType": "uint256",
          "name": "srcChainId",
          "type": "uint256"
        },
        {
          "indexed": false,
          "internalType": "address",
          "name": "senderAdapter",
          "type": "address"
        }
      ],
      "name": "SenderAdapterUpdated",
      "type": "event"
    },
    {
      "inputs": [
        {
          "internalType": "bytes32",
          "name": "",
          "type": "bytes32"
        }
      ],
      "name": "executedMessages",
      "outputs": [
        {
          "internalType": "bool",
          "name": "",
          "type": "bool"
        }
      ],
      "stateMutability": "view",
      "type": "function"
    },
    {
      "inputs": [
        {
          "internalType": "uint32",
          "name": "_srcChainId",
          "type": "uint32"
        },
        {
          "internalType": "address",
          "name": "_srcAddress",
          "type": "address"
        },
        {
          "internalType": "bytes",
          "name": "_message",
          "type": "bytes"
        }
      ],
      "name": "handleTelepathy",
      "outputs": [
        {
          "internalType": "bytes4",
          "name": "",
          "type": "bytes4"
        }
      ],
      "stateMutability": "nonpayable",
      "type": "function"
    },
    {
      "inputs": [],
      "name": "owner",
      "outputs": [
        {
          "internalType": "address",
          "name": "",
          "type": "address"
        }
      ],
      "stateMutability": "view",
      "type": "function"
    },
    {
      "inputs": [],
      "name": "renounceOwnership",
      "outputs": [],
      "stateMutability": "nonpayable",
      "type": "function"
    },
    {
      "inputs": [
        {
          "internalType": "uint256",
          "name": "",
          "type": "uint256"
        }
      ],
      "name": "senderAdapters",
      "outputs": [
        {
          "internalType": "address",
          "name": "",
          "type": "address"
        }
      ],
      "stateMutability": "view",
      "type": "function"
    },
    {
      "inputs": [],
      "name": "telepathyRouter",
      "outputs": [
        {
          "internalType": "address",
          "name": "",
          "type": "address"
        }
      ],
      "stateMutability": "view",
      "type": "function"
    },
    {
      "inputs": [
        {
          "internalType": "address",
          "name": "newOwner",
          "type": "address"
        }
      ],
      "name": "transferOwnership",
      "outputs": [],
      "stateMutability": "nonpayable",
      "type": "function"
    },
    {
      "inputs": [
        {
          "internalType": "uint256[]",
          "name": "_srcChainIds",
          "type": "uint256[]"
        },
        {
          "internalType": "address[]",
          "name": "_senderAdapters",
          "type": "address[]"
        }
      ],
      "name": "updateSenderAdapter",
      "outputs": [],
      "stateMutability": "nonpayable",
      "type": "function"
    }
  ],
  "bytecode": {
    "object": "0x60a060405234801561001057600080fd5b50604051610b16380380610b1683398101604081905261002f91610099565b61003833610049565b6001600160a01b03166080526100c9565b600080546001600160a01b038381166001600160a01b0319831681178455604051919092169283917f8be0079c531659141344cd1fd0a4f28419497f9722a3daafe3b4186f6b6457e09190a35050565b6000602082840312156100ab57600080fd5b81516001600160a01b03811681146100c257600080fd5b9392505050565b608051610a2b6100eb6000396000818161016101526101a30152610a2b6000f3fe608060405234801561001057600080fd5b50600436106100885760003560e01c8063cd2abd661161005b578063cd2abd6614610100578063d277662714610133578063dcc632901461015c578063f2fde38b1461018357600080fd5b80633bdc60d61461008d57806343d61f31146100be578063715018a6146100d35780638da5cb5b146100db575b600080fd5b6100a061009b3660046106b2565b610196565b6040516001600160e01b031990911681526020015b60405180910390f35b6100d16100cc3660046107ac565b6103ac565b005b6100d16104f7565b6000546001600160a01b03165b6040516001600160a01b0390911681526020016100b5565b61012361010e366004610818565b60026020526000908152604090205460ff1681565b60405190151581526020016100b5565b6100e8610141366004610818565b6001602052600090815260409020546001600160a01b031681565b6100e87f000000000000000000000000000000000000000000000000000000000000000081565b6100d1610191366004610831565b61050b565b6000336001600160a01b037f000000000000000000000000000000000000000000000000000000000000000016146101e857604051632ffb8be360e11b81523360048201526024015b60405180910390fd5b600080600080858060200190518101906102029190610879565b63ffffffff8c16600090815260016020526040902054939750919550935091506001600160a01b0388811691161461025857604051639656602160e01b81526001600160a01b03881660048201526024016101df565b60008481526002602052604090205460ff161561028b5760405163153bf81360e31b8152600481018590526024016101df565b60016002600086815260200190815260200160002060006101000a81548160ff021916908315150217905550600080836001600160a01b031683878c63ffffffff16886040516020016102e19493929190610921565b60408051601f19818403018152908290526102fb91610962565b6000604051808303816000865af19150503d8060008114610338576040519150601f19603f3d011682016040523d82523d6000602084013e61033d565b606091505b509150915081610364578581604051632f9c844f60e21b81526004016101df92919061097e565b604051869063ffffffff8c16907e769f3f82cb2a521c5b72f211aff687dae3cebd0b4631790417d1b17e15689a90600090a350631dee306b60e11b9998505050505050505050565b6103b4610584565b8281146103de5760405163ae716f9f60e01b815260048101849052602481018290526044016101df565b60005b838110156104f0578282828181106103fb576103fb6109b8565b90506020020160208101906104109190610831565b60016000878785818110610426576104266109b8565b90506020020135815260200190815260200160002060006101000a8154816001600160a01b0302191690836001600160a01b031602179055507f9139a67da6e19ecec5385e1a8369fe363a09195dfe90124ec496b70a1fdedc76858583818110610492576104926109b8565b905060200201358484848181106104ab576104ab6109b8565b90506020020160208101906104c09190610831565b604080519283526001600160a01b0390911660208301520160405180910390a16104e9816109ce565b90506103e1565b5050505050565b6104ff610584565b61050960006105de565b565b610513610584565b6001600160a01b0381166105785760405162461bcd60e51b815260206004820152602660248201527f4f776e61626c653a206e6577206f776e657220697320746865207a65726f206160448201526564647265737360d01b60648201526084016101df565b610581816105de565b50565b6000546001600160a01b031633146105095760405162461bcd60e51b815260206004820181905260248201527f4f776e61626c653a2063616c6c6572206973206e6f7420746865206f776e657260448201526064016101df565b600080546001600160a01b038381166001600160a01b0319831681178455604051919092169283917f8be0079c531659141344cd1fd0a4f28419497f9722a3daafe3b4186f6b6457e09190a35050565b6001600160a01b038116811461058157600080fd5b634e487b7160e01b600052604160045260246000fd5b604051601f8201601f1916810167ffffffffffffffff8111828210171561068257610682610643565b604052919050565b600067ffffffffffffffff8211156106a4576106a4610643565b50601f01601f191660200190565b6000806000606084860312156106c757600080fd5b833563ffffffff811681146106db57600080fd5b925060208401356106eb8161062e565b9150604084013567ffffffffffffffff81111561070757600080fd5b8401601f8101861361071857600080fd5b803561072b6107268261068a565b610659565b81815287602083850101111561074057600080fd5b816020840160208301376000602083830101528093505050509250925092565b60008083601f84011261077257600080fd5b50813567ffffffffffffffff81111561078a57600080fd5b6020830191508360208260051b85010111156107a557600080fd5b9250929050565b600080600080604085870312156107c257600080fd5b843567ffffffffffffffff808211156107da57600080fd5b6107e688838901610760565b909650945060208701359150808211156107ff57600080fd5b5061080c87828801610760565b95989497509550505050565b60006020828403121561082a57600080fd5b5035919050565b60006020828403121561084357600080fd5b813561084e8161062e565b9392505050565b60005b83811015610870578181015183820152602001610858565b50506000910152565b6000806000806080858703121561088f57600080fd5b8451935060208501516108a18161062e565b60408601519093506108b28161062e565b606086015190925067ffffffffffffffff8111156108cf57600080fd5b8501601f810187136108e057600080fd5b80516108ee6107268261068a565b81815288602083850101111561090357600080fd5b610914826020830160208601610855565b9598949750929550505050565b60008551610933818460208a01610855565b9190910193845250602083019190915260601b6bffffffffffffffffffffffff19166040820152605401919050565b60008251610974818460208701610855565b9190910192915050565b82815260406020820152600082518060408401526109a3816060850160208701610855565b601f01601f1916919091016060019392505050565b634e487b7160e01b600052603260045260246000fd5b6000600182016109ee57634e487b7160e01b600052601160045260246000fd5b506001019056fea2646970667358221220c739e2fdd45b0a4916c07bb480b27bc6bfa40cd50c85d60ba23876d9884c30fb64736f6c63430008110033",
    "linkReferences": {}
  },
  "methodIdentifiers": {
    "executedMessages(bytes32)": "cd2abd66",
    "handleTelepathy(uint32,address,bytes)": "3bdc60d6",
    "owner()": "8da5cb5b",
    "renounceOwnership()": "715018a6",
    "senderAdapters(uint256)": "d2776627",
    "telepathyRouter()": "dcc63290",
    "transferOwnership(address)": "f2fde38b",
    "updateSenderAdapter(uint256[],address[])": "43d61f31"
  },
  "id": 30
}