{
  "abi": [
    {
      "inputs": [
        {
          "internalType": "address",
          "name": "_bridgeAddress",
          "type": "address"
        },
        {
          "internalType": "address",
          "name": "_relayer",
          "type": "address"
        }
      ],
      "stateMutability": "nonpayable",
      "type": "constructor"
    },
    {
      "anonymous": false,
      "inputs": [
        {
          "indexed": true,
          "internalType": "bytes32",
          "name": "messageId",
          "type": "bytes32"
        },
        {
          "indexed": true,
          "internalType": "address",
          "name": "from",
          "type": "address"
        },
        {
          "indexed": true,
          "internalType": "uint256",
          "name": "toChainId",
          "type": "uint256"
        },
        {
          "indexed": false,
          "internalType": "address",
          "name": "to",
          "type": "address"
        },
        {
          "indexed": false,
          "internalType": "bytes",
          "name": "data",
          "type": "bytes"
        }
      ],
      "name": "MessageDispatched",
      "type": "event"
    },
    {
      "anonymous": false,
      "inputs": [
        {
          "indexed": true,
          "internalType": "address",
          "name": "previousOwner",
          "type": "address"
        },
        {
          "indexed": true,
          "internalType": "address",
          "name": "newOwner",
          "type": "address"
        }
      ],
      "name": "OwnershipTransferred",
      "type": "event"
    },
    {
      "anonymous": false,
      "inputs": [
        {
          "indexed": false,
          "internalType": "uint256",
          "name": "dstChainId",
          "type": "uint256"
        },
        {
          "indexed": false,
          "internalType": "address",
          "name": "receiverAdapter",
          "type": "address"
        }
      ],
      "name": "ReceiverAdapterUpdated",
      "type": "event"
    },
    {
      "inputs": [
        {
          "internalType": "uint256",
          "name": "_toChainId",
          "type": "uint256"
        },
        {
          "internalType": "address",
          "name": "_to",
          "type": "address"
        },
        {
          "internalType": "bytes",
          "name": "_data",
          "type": "bytes"
        }
      ],
      "name": "dispatchMessage",
      "outputs": [
        {
          "internalType": "bytes32",
          "name": "",
          "type": "bytes32"
        }
      ],
      "stateMutability": "payable",
      "type": "function"
    },
    {
      "inputs": [],
      "name": "getChainId",
      "outputs": [
        {
          "internalType": "uint256",
          "name": "cid",
          "type": "uint256"
        }
      ],
      "stateMutability": "view",
      "type": "function"
    },
    {
      "inputs": [
        {
          "internalType": "uint256",
          "name": "_toChainId",
          "type": "uint256"
        },
        {
          "internalType": "address",
          "name": "",
          "type": "address"
        },
        {
          "internalType": "bytes",
          "name": "",
          "type": "bytes"
        }
      ],
      "name": "getMessageFee",
      "outputs": [
        {
          "internalType": "uint256",
          "name": "",
          "type": "uint256"
        }
      ],
      "stateMutability": "view",
      "type": "function"
    },
    {
      "inputs": [],
      "name": "name",
      "outputs": [
        {
          "internalType": "string",
          "name": "",
          "type": "string"
        }
      ],
      "stateMutability": "view",
      "type": "function"
    },
    {
      "inputs": [],
      "name": "nonce",
      "outputs": [
        {
          "internalType": "uint256",
          "name": "",
          "type": "uint256"
        }
      ],
      "stateMutability": "view",
      "type": "function"
    },
    {
      "inputs": [],
      "name": "owner",
      "outputs": [
        {
          "internalType": "address",
          "name": "",
          "type": "address"
        }
      ],
      "stateMutability": "view",
      "type": "function"
    },
    {
      "inputs": [
        {
          "internalType": "uint16",
          "name": "",
          "type": "uint16"
        }
      ],
      "name": "receiverAdapters",
      "outputs": [
        {
          "internalType": "address",
          "name": "",
          "type": "address"
        }
      ],
      "stateMutability": "view",
      "type": "function"
    },
    {
      "inputs": [],
      "name": "renounceOwnership",
      "outputs": [],
      "stateMutability": "nonpayable",
      "type": "function"
    },
    {
      "inputs": [
        {
          "internalType": "uint256[]",
          "name": "_origIds",
          "type": "uint256[]"
        },
        {
          "internalType": "uint16[]",
          "name": "_whIds",
          "type": "uint16[]"
        }
      ],
      "name": "setChainIdMap",
      "outputs": [],
      "stateMutability": "nonpayable",
      "type": "function"
    },
    {
      "inputs": [
        {
          "internalType": "address",
          "name": "newOwner",
          "type": "address"
        }
      ],
      "name": "transferOwnership",
      "outputs": [],
      "stateMutability": "nonpayable",
      "type": "function"
    },
    {
      "inputs": [
        {
          "internalType": "uint256[]",
          "name": "_dstChainIds",
          "type": "uint256[]"
        },
        {
          "internalType": "address[]",
          "name": "_receiverAdapters",
          "type": "address[]"
        }
      ],
      "name": "updateReceiverAdapter",
      "outputs": [],
      "stateMutability": "nonpayable",
      "type": "function"
    }
  ],
  "bytecode": {
    "object": "0x610100604052600860c090815267776f726d686f6c6560c01b60e0526002906200002a90826200020f565b506005805460ff191660011790553480156200004557600080fd5b5060405162001599380380620015998339810160408190526200006891620002f4565b62000073336200011a565b6001600160a01b03808316608052811660a0819052604080516310fc145b60e01b815290516310fc145b9160048082019260209290919082900301816000875af1158015620000c6573d6000803e3d6000fd5b505050506040513d601f19601f82011682018060405250810190620000ec919062000333565b600560016101000a8154816001600160a01b0302191690836001600160a01b0316021790555050506200035a565b600080546001600160a01b038381166001600160a01b0319831681178455604051919092169283917f8be0079c531659141344cd1fd0a4f28419497f9722a3daafe3b4186f6b6457e09190a35050565b634e487b7160e01b600052604160045260246000fd5b600181811c908216806200019557607f821691505b602082108103620001b657634e487b7160e01b600052602260045260246000fd5b50919050565b601f8211156200020a57600081815260208120601f850160051c81016020861015620001e55750805b601f850160051c820191505b818110156200020657828155600101620001f1565b5050505b505050565b81516001600160401b038111156200022b576200022b6200016a565b62000243816200023c845462000180565b84620001bc565b602080601f8311600181146200027b5760008415620002625750858301515b600019600386901b1c1916600185901b17855562000206565b600085815260208120601f198616915b82811015620002ac578886015182559484019460019091019084016200028b565b5085821015620002cb5787850151600019600388901b60f8161c191681555b5050505050600190811b01905550565b6001600160a01b0381168114620002f157600080fd5b50565b600080604083850312156200030857600080fd5b82516200031581620002db565b60208401519092506200032881620002db565b809150509250929050565b6000602082840312156200034657600080fd5b81516200035381620002db565b9392505050565b60805160a0516111f6620003a36000396000818161062c015281816106e701528181610a200152610ac601526000818161055c01528181610888015261092801526111f66000f3fe60806040526004361061009c5760003560e01c8063affed0e011610064578063affed0e014610152578063bbec993c14610168578063c5ac906614610188578063c7302696146101be578063f2fde38b146101de578063fe39827b146101fe57600080fd5b806306fdde03146100a15780633408e470146100cc578063715018a6146100e957806376fd269a146101005780638da5cb5b14610120575b600080fd5b3480156100ad57600080fd5b506100b6610211565b6040516100c39190610d17565b60405180910390f35b3480156100d857600080fd5b50465b6040519081526020016100c3565b3480156100f557600080fd5b506100fe61029f565b005b34801561010c57600080fd5b506100fe61011b366004610d7d565b6102b3565b34801561012c57600080fd5b506000546001600160a01b03165b6040516001600160a01b0390911681526020016100c3565b34801561015e57600080fd5b506100db60015481565b34801561017457600080fd5b506100fe610183366004610d7d565b610390565b34801561019457600080fd5b5061013a6101a3366004610de9565b6004602052600090815260409020546001600160a01b031681565b3480156101ca57600080fd5b506100db6101d9366004610e29565b610557565b3480156101ea57600080fd5b506100fe6101f9366004610eb0565b610773565b6100db61020c366004610e29565b6107ec565b6002805461021e90610ecb565b80601f016020809104026020016040519081016040528092919081815260200182805461024a90610ecb565b80156102975780601f1061026c57610100808354040283529160200191610297565b820191906000526020600020905b81548152906001019060200180831161027a57829003601f168201915b505050505081565b6102a7610bad565b6102b16000610c07565b565b6102bb610bad565b8281146103015760405162461bcd60e51b815260206004820152600f60248201526e0dad2e6dac2e8c6d040d8cadccee8d608b1b60448201526064015b60405180910390fd5b60005b838110156103895782828281811061031e5761031e610f05565b90506020020160208101906103339190610de9565b6003600087878581811061034957610349610f05565b90506020020135815260200190815260200160002060006101000a81548161ffff021916908361ffff1602179055508061038290610f31565b9050610304565b5050505050565b610398610bad565b8281146103d95760405162461bcd60e51b815260206004820152600f60248201526e0dad2e6dac2e8c6d040d8cadccee8d608b1b60448201526064016102f8565b60005b83811015610389576000600360008787858181106103fc576103fc610f05565b6020908102929092013583525081019190915260400160009081205461ffff16915081900361046d5760405162461bcd60e51b815260206004820152601760248201527f756e7265636f676e697a656420647374436861696e496400000000000000000060448201526064016102f8565b83838381811061047f5761047f610f05565b90506020020160208101906104949190610eb0565b61ffff8216600090815260046020526040902080546001600160a01b0319166001600160a01b03929092169190911790557fe6e0801d01ab5bf2b55c3ce96ab43ea0bbf545cc39008a7dc4e8cd5fa881df278686848181106104f8576104f8610f05565b9050602002013585858581811061051157610511610f05565b90506020020160208101906105269190610eb0565b604080519283526001600160a01b0390911660208301520160405180910390a15061055081610f31565b90506103dc565b6000807f00000000000000000000000000000000000000000000000000000000000000006001600160a01b0316631a90a2196040518163ffffffff1660e01b8152600401602060405180830381865afa1580156105b8573d6000803e3d6000fd5b505050506040513d601f19601f820116820180604052508101906105dc9190610f4a565b6000878152600360205260408082205460055491516306cf3c4b60e51b815261ffff90911660048201526207a12060248201526101009091046001600160a01b03908116604483015292935090917f0000000000000000000000000000000000000000000000000000000000000000169063d9e7896090606401602060405180830381865afa158015610673573d6000803e3d6000fd5b505050506040513d601f19601f820116820180604052508101906106979190610f4a565b6000888152600360205260408082205460055491516304e35c6160e21b815261ffff90911660048201526064602482018190526101009092046001600160a01b03908116604483015293945091927f0000000000000000000000000000000000000000000000000000000000000000169163138d71849101602060405180830381865afa15801561072c573d6000803e3d6000fd5b505050506040513d601f19601f820116820180604052508101906107509190610f4a565b90508061075d8385610f63565b6107679190610f63565b98975050505050505050565b61077b610bad565b6001600160a01b0381166107e05760405162461bcd60e51b815260206004820152602660248201527f4f776e61626c653a206e6577206f776e657220697320746865207a65726f206160448201526564647265737360d01b60648201526084016102f8565b6107e981610c07565b50565b60008481526003602090815260408083205461ffff16835260049091528120546001600160a01b0316806108585760405162461bcd60e51b81526020600482015260136024820152723737903932b1b2b4bb32b91030b230b83a32b960691b60448201526064016102f8565b60003386868685604051602001610873959493929190610fa5565b604051602081830303815290604052905060007f00000000000000000000000000000000000000000000000000000000000000006001600160a01b0316631a90a2196040518163ffffffff1660e01b8152600401602060405180830381865afa1580156108e4573d6000803e3d6000fd5b505050506040513d601f19601f820116820180604052508101906109089190610f4a565b6001546005546040516358cd21bf60e11b81529293506001600160a01b037f0000000000000000000000000000000000000000000000000000000000000000169263b19a437e92859261096392889160ff1690600401610fe5565b60206040518083038185885af1158015610981573d6000803e3d6000fd5b50505050506040513d601f19601f820116820180604052508101906109a69190611017565b5060006109b38234611041565b905060006040518060c00160405280600360008d815260200190815260200160002060009054906101000a900461ffff1661ffff168152602001866001600160a01b031660001b8152602001306001600160a01b031660001b8152602001838152602001600081526020017f00000000000000000000000000000000000000000000000000000000000000006001600160a01b031663421a178b6040518163ffffffff1660e01b8152600401600060405180830381865afa158015610a7c573d6000803e3d6000fd5b505050506040513d6000823e601f3d908101601f19168201604052610aa4919081019061106a565b9052600154600554604051633feb371f60e11b81529293506001600160a01b037f0000000000000000000000000000000000000000000000000000000000000000811693637fd66e3e938793610b069388936101009092041690600401611117565b60206040518083038185885af1158015610b24573d6000803e3d6000fd5b50505050506040513d601f19601f82011682018060405250810190610b499190611017565b506000610b568b8b610c57565b90508a336001600160a01b0316827fe2f8f20ddbedfce5eb59a8b930077e7f4906a01300b9318db5f90d1c96c7b6d48d8d8d604051610b9793929190611192565b60405180910390a49a9950505050505050505050565b6000546001600160a01b031633146102b15760405162461bcd60e51b815260206004820181905260248201527f4f776e61626c653a2063616c6c6572206973206e6f7420746865206f776e657260448201526064016102f8565b600080546001600160a01b038381166001600160a01b0319831681178455604051919092169283917f8be0079c531659141344cd1fd0a4f28419497f9722a3daafe3b4186f6b6457e09190a35050565b60018054604080514660208083019190915281830187905260608083018590526bffffffffffffffffffffffff1930821b811660808501529087901b1660948301528251808303608801815260a89092019092528051910120916000610cbc83610f31565b919050555092915050565b60005b83811015610ce2578181015183820152602001610cca565b50506000910152565b60008151808452610d03816020860160208601610cc7565b601f01601f19169290920160200192915050565b602081526000610d2a6020830184610ceb565b9392505050565b60008083601f840112610d4357600080fd5b50813567ffffffffffffffff811115610d5b57600080fd5b6020830191508360208260051b8501011115610d7657600080fd5b9250929050565b60008060008060408587031215610d9357600080fd5b843567ffffffffffffffff80821115610dab57600080fd5b610db788838901610d31565b90965094506020870135915080821115610dd057600080fd5b50610ddd87828801610d31565b95989497509550505050565b600060208284031215610dfb57600080fd5b813561ffff81168114610d2a57600080fd5b80356001600160a01b0381168114610e2457600080fd5b919050565b60008060008060608587031215610e3f57600080fd5b84359350610e4f60208601610e0d565b9250604085013567ffffffffffffffff80821115610e6c57600080fd5b818701915087601f830112610e8057600080fd5b813581811115610e8f57600080fd5b886020828501011115610ea157600080fd5b95989497505060200194505050565b600060208284031215610ec257600080fd5b610d2a82610e0d565b600181811c90821680610edf57607f821691505b602082108103610eff57634e487b7160e01b600052602260045260246000fd5b50919050565b634e487b7160e01b600052603260045260246000fd5b634e487b7160e01b600052601160045260246000fd5b600060018201610f4357610f43610f1b565b5060010190565b600060208284031215610f5c57600080fd5b5051919050565b80820180821115610f7657610f76610f1b565b92915050565b81835281816020850137506000828201602090810191909152601f909101601f19169091010190565b600060018060a01b038088168352808716602084015260806040840152610fd0608084018688610f7c565b91508084166060840152509695505050505050565b63ffffffff841681526060602082015260006110046060830185610ceb565b905060ff83166040830152949350505050565b60006020828403121561102957600080fd5b815167ffffffffffffffff81168114610d2a57600080fd5b81810381811115610f7657610f76610f1b565b634e487b7160e01b600052604160045260246000fd5b60006020828403121561107c57600080fd5b815167ffffffffffffffff8082111561109457600080fd5b818401915084601f8301126110a857600080fd5b8151818111156110ba576110ba611054565b604051601f8201601f19908116603f011681019083821181831017156110e2576110e2611054565b816040528281528760208487010111156110fb57600080fd5b61110c836020830160208801610cc7565b979650505050505050565b6060815261ffff845116606082015260208401516080820152604084015160a0820152606084015160c0820152608084015160e0820152600060a085015160c061010084015261116b610120840182610ceb565b63ffffffff95909516602084015250506001600160a01b0391909116604090910152919050565b6001600160a01b03841681526040602082018190526000906111b79083018486610f7c565b9594505050505056fea2646970667358221220d02d2e90e9fcb9bee13aae8574df4b2447c9045455d3e2e3440b9fa06f84be8164736f6c63430008110033",
    "linkReferences": {}
  },
  "methodIdentifiers": {
    "dispatchMessage(uint256,address,bytes)": "fe39827b",
    "getChainId()": "3408e470",
    "getMessageFee(uint256,address,bytes)": "c7302696",
    "name()": "06fdde03",
    "nonce()": "affed0e0",
    "owner()": "8da5cb5b",
    "receiverAdapters(uint16)": "c5ac9066",
    "renounceOwnership()": "715018a6",
    "setChainIdMap(uint256[],uint16[])": "76fd269a",
    "transferOwnership(address)": "f2fde38b",
    "updateReceiverAdapter(uint256[],address[])": "bbec993c"
  },
  "id": 34
}