{
  "abi": [
    {
      "inputs": [
        {
          "internalType": "address",
          "name": "_msgBus",
          "type": "address"
        }
      ],
      "stateMutability": "nonpayable",
      "type": "constructor"
    },
    {
      "anonymous": false,
      "inputs": [
        {
          "indexed": true,
          "internalType": "bytes32",
          "name": "messageId",
          "type": "bytes32"
        },
        {
          "indexed": true,
          "internalType": "address",
          "name": "from",
          "type": "address"
        },
        {
          "indexed": true,
          "internalType": "uint256",
          "name": "toChainId",
          "type": "uint256"
        },
        {
          "indexed": false,
          "internalType": "address",
          "name": "to",
          "type": "address"
        },
        {
          "indexed": false,
          "internalType": "bytes",
          "name": "data",
          "type": "bytes"
        }
      ],
      "name": "MessageDispatched",
      "type": "event"
    },
    {
      "anonymous": false,
      "inputs": [
        {
          "indexed": true,
          "internalType": "address",
          "name": "previousOwner",
          "type": "address"
        },
        {
          "indexed": true,
          "internalType": "address",
          "name": "newOwner",
          "type": "address"
        }
      ],
      "name": "OwnershipTransferred",
      "type": "event"
    },
    {
      "anonymous": false,
      "inputs": [
        {
          "indexed": false,
          "internalType": "uint256",
          "name": "dstChainId",
          "type": "uint256"
        },
        {
          "indexed": false,
          "internalType": "address",
          "name": "receiverAdapter",
          "type": "address"
        }
      ],
      "name": "ReceiverAdapterUpdated",
      "type": "event"
    },
    {
      "inputs": [
        {
          "internalType": "uint256",
          "name": "_toChainId",
          "type": "uint256"
        },
        {
          "internalType": "address",
          "name": "_to",
          "type": "address"
        },
        {
          "internalType": "bytes",
          "name": "_data",
          "type": "bytes"
        }
      ],
      "name": "dispatchMessage",
      "outputs": [
        {
          "internalType": "bytes32",
          "name": "",
          "type": "bytes32"
        }
      ],
      "stateMutability": "payable",
      "type": "function"
    },
    {
      "inputs": [],
      "name": "getChainId",
      "outputs": [
        {
          "internalType": "uint256",
          "name": "cid",
          "type": "uint256"
        }
      ],
      "stateMutability": "view",
      "type": "function"
    },
    {
      "inputs": [
        {
          "internalType": "uint256",
          "name": "",
          "type": "uint256"
        },
        {
          "internalType": "address",
          "name": "_to",
          "type": "address"
        },
        {
          "internalType": "bytes",
          "name": "_data",
          "type": "bytes"
        }
      ],
      "name": "getMessageFee",
      "outputs": [
        {
          "internalType": "uint256",
          "name": "",
          "type": "uint256"
        }
      ],
      "stateMutability": "view",
      "type": "function"
    },
    {
      "inputs": [],
      "name": "msgBus",
      "outputs": [
        {
          "internalType": "address",
          "name": "",
          "type": "address"
        }
      ],
      "stateMutability": "view",
      "type": "function"
    },
    {
      "inputs": [],
      "name": "name",
      "outputs": [
        {
          "internalType": "string",
          "name": "",
          "type": "string"
        }
      ],
      "stateMutability": "view",
      "type": "function"
    },
    {
      "inputs": [],
      "name": "nonce",
      "outputs": [
        {
          "internalType": "uint256",
          "name": "",
          "type": "uint256"
        }
      ],
      "stateMutability": "view",
      "type": "function"
    },
    {
      "inputs": [],
      "name": "owner",
      "outputs": [
        {
          "internalType": "address",
          "name": "",
          "type": "address"
        }
      ],
      "stateMutability": "view",
      "type": "function"
    },
    {
      "inputs": [
        {
          "internalType": "uint256",
          "name": "",
          "type": "uint256"
        }
      ],
      "name": "receiverAdapters",
      "outputs": [
        {
          "internalType": "address",
          "name": "",
          "type": "address"
        }
      ],
      "stateMutability": "view",
      "type": "function"
    },
    {
      "inputs": [],
      "name": "renounceOwnership",
      "outputs": [],
      "stateMutability": "nonpayable",
      "type": "function"
    },
    {
      "inputs": [
        {
          "internalType": "address",
          "name": "newOwner",
          "type": "address"
        }
      ],
      "name": "transferOwnership",
      "outputs": [],
      "stateMutability": "nonpayable",
      "type": "function"
    },
    {
      "inputs": [
        {
          "internalType": "uint256[]",
          "name": "_dstChainIds",
          "type": "uint256[]"
        },
        {
          "internalType": "address[]",
          "name": "_receiverAdapters",
          "type": "address[]"
        }
      ],
      "name": "updateReceiverAdapter",
      "outputs": [],
      "stateMutability": "nonpayable",
      "type": "function"
    }
  ],
  "bytecode": {
    "object": "0x60a060405234801561001057600080fd5b50604051610bad380380610bad83398101604081905261002f91610099565b61003833610049565b6001600160a01b03166080526100c9565b600080546001600160a01b038381166001600160a01b0319831681178455604051919092169283917f8be0079c531659141344cd1fd0a4f28419497f9722a3daafe3b4186f6b6457e09190a35050565b6000602082840312156100ab57600080fd5b81516001600160a01b03811681146100c257600080fd5b9392505050565b608051610abb6100f26000396000818161017c015281816103c401526105810152610abb6000f3fe60806040526004361061009c5760003560e01c80638da5cb5b116100645780638da5cb5b1461019e578063affed0e0146101bc578063bbec993c146101d2578063c7302696146101f2578063f2fde38b14610212578063fe39827b1461023257600080fd5b806306fdde03146100a15780630b3dfc67146100e85780633408e47014610136578063715018a6146101535780637de805881461016a575b600080fd5b3480156100ad57600080fd5b506100d26040518060400160405280600581526020016431b2b632b960d91b81525081565b6040516100df91906107d3565b60405180910390f35b3480156100f457600080fd5b5061011e6101033660046107ed565b6002602052600090815260409020546001600160a01b031681565b6040516001600160a01b0390911681526020016100df565b34801561014257600080fd5b50465b6040519081526020016100df565b34801561015f57600080fd5b50610168610245565b005b34801561017657600080fd5b5061011e7f000000000000000000000000000000000000000000000000000000000000000081565b3480156101aa57600080fd5b506000546001600160a01b031661011e565b3480156101c857600080fd5b5061014560015481565b3480156101de57600080fd5b506101686101ed366004610852565b610259565b3480156101fe57600080fd5b5061014561020d3660046108da565b6103c0565b34801561021e57600080fd5b5061016861022d366004610961565b610480565b6101456102403660046108da565b6104f9565b61024d610673565b61025760006106cd565b565b610261610673565b8281146102a75760405162461bcd60e51b815260206004820152600f60248201526e0dad2e6dac2e8c6d040d8cadccee8d608b1b60448201526064015b60405180910390fd5b60005b838110156103b9578282828181106102c4576102c461097c565b90506020020160208101906102d99190610961565b600260008787858181106102ef576102ef61097c565b90506020020135815260200190815260200160002060006101000a8154816001600160a01b0302191690836001600160a01b031602179055507fe6e0801d01ab5bf2b55c3ce96ab43ea0bbf545cc39008a7dc4e8cd5fa881df2785858381811061035b5761035b61097c565b905060200201358484848181106103745761037461097c565b90506020020160208101906103899190610961565b604080519283526001600160a01b0390911660208301520160405180910390a16103b281610992565b90506102aa565b5050505050565b60007f00000000000000000000000000000000000000000000000000000000000000006001600160a01b0316635335dca260003387878760405160200161040b9594939291906109e2565b6040516020818303038152906040526040518263ffffffff1660e01b815260040161043691906107d3565b602060405180830381865afa158015610453573d6000803e3d6000fd5b505050506040513d601f19601f820116820180604052508101906104779190610a20565b95945050505050565b610488610673565b6001600160a01b0381166104ed5760405162461bcd60e51b815260206004820152602660248201527f4f776e61626c653a206e6577206f776e657220697320746865207a65726f206160448201526564647265737360d01b606482015260840161029e565b6104f6816106cd565b50565b6000848152600260205260408120546001600160a01b03166105535760405162461bcd60e51b81526020600482015260136024820152723737903932b1b2b4bb32b91030b230b83a32b960691b604482015260640161029e565b600061055f868661071d565b6000878152600260209081526040918290205491519293506001600160a01b037f0000000000000000000000000000000000000000000000000000000000000000811693639f3ce55a9334939216918b916105c491889133918e918e918e91016109e2565b6040516020818303038152906040526040518563ffffffff1660e01b81526004016105f193929190610a39565b6000604051808303818588803b15801561060a57600080fd5b505af115801561061e573d6000803e3d6000fd5b505050505085336001600160a01b0316827fe2f8f20ddbedfce5eb59a8b930077e7f4906a01300b9318db5f90d1c96c7b6d488888860405161066293929190610a60565b60405180910390a495945050505050565b6000546001600160a01b031633146102575760405162461bcd60e51b815260206004820181905260248201527f4f776e61626c653a2063616c6c6572206973206e6f7420746865206f776e6572604482015260640161029e565b600080546001600160a01b038381166001600160a01b0319831681178455604051919092169283917f8be0079c531659141344cd1fd0a4f28419497f9722a3daafe3b4186f6b6457e09190a35050565b60018054604080514660208083019190915281830187905260608083018590526bffffffffffffffffffffffff1930821b811660808501529087901b1660948301528251808303608801815260a8909201909252805191012091600061078283610992565b919050555092915050565b6000815180845260005b818110156107b357602081850181015186830182015201610797565b506000602082860101526020601f19601f83011685010191505092915050565b6020815260006107e6602083018461078d565b9392505050565b6000602082840312156107ff57600080fd5b5035919050565b60008083601f84011261081857600080fd5b50813567ffffffffffffffff81111561083057600080fd5b6020830191508360208260051b850101111561084b57600080fd5b9250929050565b6000806000806040858703121561086857600080fd5b843567ffffffffffffffff8082111561088057600080fd5b61088c88838901610806565b909650945060208701359150808211156108a557600080fd5b506108b287828801610806565b95989497509550505050565b80356001600160a01b03811681146108d557600080fd5b919050565b600080600080606085870312156108f057600080fd5b84359350610900602086016108be565b9250604085013567ffffffffffffffff8082111561091d57600080fd5b818701915087601f83011261093157600080fd5b81358181111561094057600080fd5b88602082850101111561095257600080fd5b95989497505060200194505050565b60006020828403121561097357600080fd5b6107e6826108be565b634e487b7160e01b600052603260045260246000fd5b6000600182016109b257634e487b7160e01b600052601160045260246000fd5b5060010190565b81835281816020850137506000828201602090810191909152601f909101601f19169091010190565b8581526001600160a01b03858116602083015284166040820152608060608201819052600090610a1590830184866109b9565b979650505050505050565b600060208284031215610a3257600080fd5b5051919050565b60018060a01b0384168152826020820152606060408201526000610477606083018461078d565b6001600160a01b038416815260406020820181905260009061047790830184866109b956fea26469706673582212203950780dc990e2a00af7115642a25d86d105dd0cbf3dcd77a10b16e02617c30b64736f6c63430008110033",
    "linkReferences": {}
  },
  "methodIdentifiers": {
    "dispatchMessage(uint256,address,bytes)": "fe39827b",
    "getChainId()": "3408e470",
    "getMessageFee(uint256,address,bytes)": "c7302696",
    "msgBus()": "7de80588",
    "name()": "06fdde03",
    "nonce()": "affed0e0",
    "owner()": "8da5cb5b",
    "receiverAdapters(uint256)": "0b3dfc67",
    "renounceOwnership()": "715018a6",
    "transferOwnership(address)": "f2fde38b",
    "updateReceiverAdapter(uint256[],address[])": "bbec993c"
  },
  "id": 16
}