{
  "abi": [
    {
      "inputs": [
        {
          "internalType": "address",
          "name": "_mailbox",
          "type": "address"
        }
      ],
      "stateMutability": "nonpayable",
      "type": "constructor"
    },
    {
      "inputs": [],
      "name": "InvalidMailboxZeroAddress",
      "type": "error"
    },
    {
      "inputs": [
        {
          "internalType": "bytes32",
          "name": "messageId",
          "type": "bytes32"
        },
        {
          "internalType": "uint256",
          "name": "messageIndex",
          "type": "uint256"
        },
        {
          "internalType": "bytes",
          "name": "errorData",
          "type": "bytes"
        }
      ],
      "name": "MessageBatchFailure",
      "type": "error"
    },
    {
      "inputs": [
        {
          "internalType": "bytes32",
          "name": "messageId",
          "type": "bytes32"
        },
        {
          "internalType": "bytes",
          "name": "errorData",
          "type": "bytes"
        }
      ],
      "name": "MessageFailure",
      "type": "error"
    },
    {
      "inputs": [
        {
          "internalType": "bytes32",
          "name": "messageId",
          "type": "bytes32"
        }
      ],
      "name": "MessageIdAlreadyExecuted",
      "type": "error"
    },
    {
      "inputs": [
        {
          "internalType": "uint256",
          "name": "chainIdsLength",
          "type": "uint256"
        },
        {
          "internalType": "uint256",
          "name": "adaptersLength",
          "type": "uint256"
        }
      ],
      "name": "MismatchChainsAdaptersLength",
      "type": "error"
    },
    {
      "inputs": [
        {
          "internalType": "uint256",
          "name": "chainId",
          "type": "uint256"
        },
        {
          "internalType": "address",
          "name": "addr",
          "type": "address"
        }
      ],
      "name": "UnauthorizedAdapter",
      "type": "error"
    },
    {
      "inputs": [
        {
          "internalType": "address",
          "name": "sender",
          "type": "address"
        }
      ],
      "name": "UnauthorizedMailbox",
      "type": "error"
    },
    {
      "anonymous": false,
      "inputs": [
        {
          "indexed": true,
          "internalType": "address",
          "name": "module",
          "type": "address"
        }
      ],
      "name": "IsmSet",
      "type": "event"
    },
    {
      "anonymous": false,
      "inputs": [
        {
          "indexed": true,
          "internalType": "uint256",
          "name": "fromChainId",
          "type": "uint256"
        },
        {
          "indexed": true,
          "internalType": "bytes32",
          "name": "messageId",
          "type": "bytes32"
        }
      ],
      "name": "MessageIdExecuted",
      "type": "event"
    },
    {
      "anonymous": false,
      "inputs": [
        {
          "indexed": true,
          "internalType": "address",
          "name": "previousOwner",
          "type": "address"
        },
        {
          "indexed": true,
          "internalType": "address",
          "name": "newOwner",
          "type": "address"
        }
      ],
      "name": "OwnershipTransferred",
      "type": "event"
    },
    {
      "anonymous": false,
      "inputs": [
        {
          "indexed": false,
          "internalType": "uint256",
          "name": "srcChainId",
          "type": "uint256"
        },
        {
          "indexed": false,
          "internalType": "address",
          "name": "senderAdapter",
          "type": "address"
        }
      ],
      "name": "SenderAdapterUpdated",
      "type": "event"
    },
    {
      "inputs": [
        {
          "internalType": "bytes32",
          "name": "",
          "type": "bytes32"
        }
      ],
      "name": "executedMessages",
      "outputs": [
        {
          "internalType": "bool",
          "name": "",
          "type": "bool"
        }
      ],
      "stateMutability": "view",
      "type": "function"
    },
    {
      "inputs": [
        {
          "internalType": "uint32",
          "name": "",
          "type": "uint32"
        },
        {
          "internalType": "bytes32",
          "name": "_sender",
          "type": "bytes32"
        },
        {
          "internalType": "bytes",
          "name": "_body",
          "type": "bytes"
        }
      ],
      "name": "handle",
      "outputs": [],
      "stateMutability": "nonpayable",
      "type": "function"
    },
    {
      "inputs": [],
      "name": "interchainSecurityModule",
      "outputs": [
        {
          "internalType": "contract IInterchainSecurityModule",
          "name": "",
          "type": "address"
        }
      ],
      "stateMutability": "view",
      "type": "function"
    },
    {
      "inputs": [],
      "name": "ism",
      "outputs": [
        {
          "internalType": "contract IInterchainSecurityModule",
          "name": "",
          "type": "address"
        }
      ],
      "stateMutability": "view",
      "type": "function"
    },
    {
      "inputs": [],
      "name": "mailbox",
      "outputs": [
        {
          "internalType": "contract IMailbox",
          "name": "",
          "type": "address"
        }
      ],
      "stateMutability": "view",
      "type": "function"
    },
    {
      "inputs": [],
      "name": "owner",
      "outputs": [
        {
          "internalType": "address",
          "name": "",
          "type": "address"
        }
      ],
      "stateMutability": "view",
      "type": "function"
    },
    {
      "inputs": [],
      "name": "renounceOwnership",
      "outputs": [],
      "stateMutability": "nonpayable",
      "type": "function"
    },
    {
      "inputs": [
        {
          "internalType": "uint256",
          "name": "",
          "type": "uint256"
        }
      ],
      "name": "senderAdapters",
      "outputs": [
        {
          "internalType": "address",
          "name": "",
          "type": "address"
        }
      ],
      "stateMutability": "view",
      "type": "function"
    },
    {
      "inputs": [
        {
          "internalType": "address",
          "name": "_ism",
          "type": "address"
        }
      ],
      "name": "setIsm",
      "outputs": [],
      "stateMutability": "nonpayable",
      "type": "function"
    },
    {
      "inputs": [
        {
          "internalType": "address",
          "name": "newOwner",
          "type": "address"
        }
      ],
      "name": "transferOwnership",
      "outputs": [],
      "stateMutability": "nonpayable",
      "type": "function"
    },
    {
      "inputs": [
        {
          "internalType": "uint256[]",
          "name": "_srcChainIds",
          "type": "uint256[]"
        },
        {
          "internalType": "address[]",
          "name": "_senderAdapters",
          "type": "address[]"
        }
      ],
      "name": "updateSenderAdapter",
      "outputs": [],
      "stateMutability": "nonpayable",
      "type": "function"
    }
  ],
  "bytecode": {
    "object": "0x60a060405234801561001057600080fd5b50604051610bb5380380610bb583398101604081905261002f916100c0565b61003833610070565b6001600160a01b03811661005f5760405163556d2c4d60e11b815260040160405180910390fd5b6001600160a01b03166080526100f0565b600080546001600160a01b038381166001600160a01b0319831681178455604051919092169283917f8be0079c531659141344cd1fd0a4f28419497f9722a3daafe3b4186f6b6457e09190a35050565b6000602082840312156100d257600080fd5b81516001600160a01b03811681146100e957600080fd5b9392505050565b608051610aa36101126000396000818161019301526103860152610aa36000f3fe608060405234801561001057600080fd5b50600436106100a95760003560e01c80638da5cb5b116100715780638da5cb5b14610121578063cd2abd6614610132578063d277662714610165578063d5438eae1461018e578063de523cf3146101b5578063f2fde38b146101c657600080fd5b80632e779beb146100ae57806343d61f31146100c35780634deefab2146100d657806356d5d47514610106578063715018a614610119575b600080fd5b6100c16100bc3660046106b8565b6101d9565b005b6100c16100d1366004610728565b61022b565b6001546100e9906001600160a01b031681565b6040516001600160a01b0390911681526020015b60405180910390f35b6100c1610114366004610803565b61037b565b6100c161056c565b6000546001600160a01b03166100e9565b6101556101403660046108a8565b60036020526000908152604090205460ff1681565b60405190151581526020016100fd565b6100e96101733660046108a8565b6002602052600090815260409020546001600160a01b031681565b6100e97f000000000000000000000000000000000000000000000000000000000000000081565b6001546001600160a01b03166100e9565b6100c16101d43660046106b8565b610580565b6101e16105f9565b600180546001600160a01b0319166001600160a01b0383169081179091556040517fc47cbcc588c67679e52261c45cc315e56562f8d0ccaba16facb9093ff949879990600090a250565b6102336105f9565b828114610262576040516301ff5cb560e31b815260048101849052602481018290526044015b60405180910390fd5b60005b838110156103745782828281811061027f5761027f6108c1565b905060200201602081019061029491906106b8565b600260008787858181106102aa576102aa6108c1565b90506020020135815260200190815260200160002060006101000a8154816001600160a01b0302191690836001600160a01b031602179055507f9139a67da6e19ecec5385e1a8369fe363a09195dfe90124ec496b70a1fdedc76858583818110610316576103166108c1565b9050602002013584848481811061032f5761032f6108c1565b905060200201602081019061034491906106b8565b604080519283526001600160a01b0390911660208301520160405180910390a161036d816108d7565b9050610265565b5050505050565b336001600160a01b037f000000000000000000000000000000000000000000000000000000000000000016146103c65760405163bb7b80f960e01b8152336004820152602401610259565b60008290506000806000806000868060200190518101906103e79190610922565b600085815260026020526040902054949950929750909550935091506001600160a01b038781169116146104405760405163f68e4ae560e01b8152600481018690526001600160a01b0387166024820152604401610259565b60008481526003602052604090205460ff16156104735760405163153bf81360e31b815260048101859052602401610259565b6000848152600360205260409020805460ff19166001179055600080836001600160a01b0316838789886040516020016104b094939291906109d6565b60408051601f19818403018152908290526104ca91610a17565b6000604051808303816000865af19150503d8060008114610507576040519150601f19603f3d011682016040523d82523d6000602084013e61050c565b606091505b509150915081610533578581604051632f9c844f60e21b8152600401610259929190610a33565b604051869088907e769f3f82cb2a521c5b72f211aff687dae3cebd0b4631790417d1b17e15689a90600090a35050505050505050505050565b6105746105f9565b61057e6000610653565b565b6105886105f9565b6001600160a01b0381166105ed5760405162461bcd60e51b815260206004820152602660248201527f4f776e61626c653a206e6577206f776e657220697320746865207a65726f206160448201526564647265737360d01b6064820152608401610259565b6105f681610653565b50565b6000546001600160a01b0316331461057e5760405162461bcd60e51b815260206004820181905260248201527f4f776e61626c653a2063616c6c6572206973206e6f7420746865206f776e65726044820152606401610259565b600080546001600160a01b038381166001600160a01b0319831681178455604051919092169283917f8be0079c531659141344cd1fd0a4f28419497f9722a3daafe3b4186f6b6457e09190a35050565b6001600160a01b03811681146105f657600080fd5b6000602082840312156106ca57600080fd5b81356106d5816106a3565b9392505050565b60008083601f8401126106ee57600080fd5b50813567ffffffffffffffff81111561070657600080fd5b6020830191508360208260051b850101111561072157600080fd5b9250929050565b6000806000806040858703121561073e57600080fd5b843567ffffffffffffffff8082111561075657600080fd5b610762888389016106dc565b9096509450602087013591508082111561077b57600080fd5b50610788878288016106dc565b95989497509550505050565b634e487b7160e01b600052604160045260246000fd5b604051601f8201601f1916810167ffffffffffffffff811182821017156107d3576107d3610794565b604052919050565b600067ffffffffffffffff8211156107f5576107f5610794565b50601f01601f191660200190565b60008060006060848603121561081857600080fd5b833563ffffffff8116811461082c57600080fd5b925060208401359150604084013567ffffffffffffffff81111561084f57600080fd5b8401601f8101861361086057600080fd5b803561087361086e826107db565b6107aa565b81815287602083850101111561088857600080fd5b816020840160208301376000602083830101528093505050509250925092565b6000602082840312156108ba57600080fd5b5035919050565b634e487b7160e01b600052603260045260246000fd5b6000600182016108f757634e487b7160e01b600052601160045260246000fd5b5060010190565b60005b83811015610919578181015183820152602001610901565b50506000910152565b600080600080600060a0868803121561093a57600080fd5b85519450602086015193506040860151610953816106a3565b6060870151909350610964816106a3565b608087015190925067ffffffffffffffff81111561098157600080fd5b8601601f8101881361099257600080fd5b80516109a061086e826107db565b8181528960208385010111156109b557600080fd5b6109c68260208301602086016108fe565b8093505050509295509295909350565b600085516109e8818460208a016108fe565b9190910193845250602083019190915260601b6bffffffffffffffffffffffff19166040820152605401919050565b60008251610a298184602087016108fe565b9190910192915050565b8281526040602082015260008251806040840152610a588160608501602087016108fe565b601f01601f191691909101606001939250505056fea26469706673582212205e41e998e379fa1e88e60ffad365cc758f5236690bf3cac3f10a1b67b2c51c0964736f6c63430008110033",
    "linkReferences": {}
  },
  "methodIdentifiers": {
    "executedMessages(bytes32)": "cd2abd66",
    "handle(uint32,bytes32,bytes)": "56d5d475",
    "interchainSecurityModule()": "de523cf3",
    "ism()": "4deefab2",
    "mailbox()": "d5438eae",
    "owner()": "8da5cb5b",
    "renounceOwnership()": "715018a6",
    "senderAdapters(uint256)": "d2776627",
    "setIsm(address)": "2e779beb",
    "transferOwnership(address)": "f2fde38b",
    "updateSenderAdapter(uint256[],address[])": "43d61f31"
  },
  "id": 22
}