{
  "abi": [
    {
      "inputs": [
        {
          "internalType": "address",
          "name": "_bridgeAddress",
          "type": "address"
        },
        {
          "internalType": "address",
          "name": "_relayer",
          "type": "address"
        }
      ],
      "stateMutability": "nonpayable",
      "type": "constructor"
    },
    {
      "inputs": [
        {
          "internalType": "bytes32",
          "name": "messageId",
          "type": "bytes32"
        },
        {
          "internalType": "uint256",
          "name": "messageIndex",
          "type": "uint256"
        },
        {
          "internalType": "bytes",
          "name": "errorData",
          "type": "bytes"
        }
      ],
      "name": "MessageBatchFailure",
      "type": "error"
    },
    {
      "inputs": [
        {
          "internalType": "bytes32",
          "name": "messageId",
          "type": "bytes32"
        },
        {
          "internalType": "bytes",
          "name": "errorData",
          "type": "bytes"
        }
      ],
      "name": "MessageFailure",
      "type": "error"
    },
    {
      "inputs": [
        {
          "internalType": "bytes32",
          "name": "messageId",
          "type": "bytes32"
        }
      ],
      "name": "MessageIdAlreadyExecuted",
      "type": "error"
    },
    {
      "anonymous": false,
      "inputs": [
        {
          "indexed": true,
          "internalType": "uint256",
          "name": "fromChainId",
          "type": "uint256"
        },
        {
          "indexed": true,
          "internalType": "bytes32",
          "name": "messageId",
          "type": "bytes32"
        }
      ],
      "name": "MessageIdExecuted",
      "type": "event"
    },
    {
      "anonymous": false,
      "inputs": [
        {
          "indexed": true,
          "internalType": "address",
          "name": "previousOwner",
          "type": "address"
        },
        {
          "indexed": true,
          "internalType": "address",
          "name": "newOwner",
          "type": "address"
        }
      ],
      "name": "OwnershipTransferred",
      "type": "event"
    },
    {
      "anonymous": false,
      "inputs": [
        {
          "indexed": false,
          "internalType": "uint256",
          "name": "srcChainId",
          "type": "uint256"
        },
        {
          "indexed": false,
          "internalType": "address",
          "name": "senderAdapter",
          "type": "address"
        }
      ],
      "name": "SenderAdapterUpdated",
      "type": "event"
    },
    {
      "inputs": [],
      "name": "owner",
      "outputs": [
        {
          "internalType": "address",
          "name": "",
          "type": "address"
        }
      ],
      "stateMutability": "view",
      "type": "function"
    },
    {
      "inputs": [
        {
          "internalType": "bytes32",
          "name": "",
          "type": "bytes32"
        }
      ],
      "name": "processedMessages",
      "outputs": [
        {
          "internalType": "bool",
          "name": "",
          "type": "bool"
        }
      ],
      "stateMutability": "view",
      "type": "function"
    },
    {
      "inputs": [
        {
          "internalType": "bytes[]",
          "name": "whMessages",
          "type": "bytes[]"
        },
        {
          "internalType": "bytes[]",
          "name": "",
          "type": "bytes[]"
        }
      ],
      "name": "receiveWormholeMessages",
      "outputs": [],
      "stateMutability": "payable",
      "type": "function"
    },
    {
      "inputs": [],
      "name": "renounceOwnership",
      "outputs": [],
      "stateMutability": "nonpayable",
      "type": "function"
    },
    {
      "inputs": [
        {
          "internalType": "uint16",
          "name": "",
          "type": "uint16"
        }
      ],
      "name": "senderAdapters",
      "outputs": [
        {
          "internalType": "bytes32",
          "name": "",
          "type": "bytes32"
        }
      ],
      "stateMutability": "view",
      "type": "function"
    },
    {
      "inputs": [
        {
          "internalType": "uint256[]",
          "name": "_origIds",
          "type": "uint256[]"
        },
        {
          "internalType": "uint16[]",
          "name": "_whIds",
          "type": "uint16[]"
        }
      ],
      "name": "setChainIdMap",
      "outputs": [],
      "stateMutability": "nonpayable",
      "type": "function"
    },
    {
      "inputs": [
        {
          "internalType": "address",
          "name": "newOwner",
          "type": "address"
        }
      ],
      "name": "transferOwnership",
      "outputs": [],
      "stateMutability": "nonpayable",
      "type": "function"
    },
    {
      "inputs": [
        {
          "internalType": "uint256[]",
          "name": "_srcChainIds",
          "type": "uint256[]"
        },
        {
          "internalType": "address[]",
          "name": "_senderAdapters",
          "type": "address[]"
        }
      ],
      "name": "updateSenderAdapter",
      "outputs": [],
      "stateMutability": "nonpayable",
      "type": "function"
    }
  ],
  "bytecode": {
    "object": "0x60c060405234801561001057600080fd5b5060405161125a38038061125a83398101604081905261002f916100bb565b6100383361004f565b6001600160a01b039182166080521660a0526100ee565b600080546001600160a01b038381166001600160a01b0319831681178455604051919092169283917f8be0079c531659141344cd1fd0a4f28419497f9722a3daafe3b4186f6b6457e09190a35050565b80516001600160a01b03811681146100b657600080fd5b919050565b600080604083850312156100ce57600080fd5b6100d78361009f565b91506100e56020840161009f565b90509250929050565b60805160a05161114761011360003960006104bd0152600061054101526111476000f3fe60806040526004361061007b5760003560e01c806388ba16ab1161004e57806388ba16ab146101175780638da5cb5b14610157578063cad816ef1461017f578063f2fde38b1461019257600080fd5b806343d61f3114610080578063715018a6146100a257806371b49763146100b757806376fd269a146100f7575b600080fd5b34801561008c57600080fd5b506100a061009b3660046109e3565b6101b2565b005b3480156100ae57600080fd5b506100a0610375565b3480156100c357600080fd5b506100e46100d2366004610a5f565b60036020526000908152604090205481565b6040519081526020015b60405180910390f35b34801561010357600080fd5b506100a06101123660046109e3565b610389565b34801561012357600080fd5b50610147610132366004610a83565b60046020526000908152604090205460ff1681565b60405190151581526020016100ee565b34801561016357600080fd5b506000546040516001600160a01b0390911681526020016100ee565b6100a061018d366004610c4b565b6104b2565b34801561019e57600080fd5b506100a06101ad366004610cc4565b610874565b6101ba6108ed565b8281146102005760405162461bcd60e51b815260206004820152600f60248201526e0dad2e6dac2e8c6d040d8cadccee8d608b1b60448201526064015b60405180910390fd5b60005b8381101561036e5760006001600087878581811061022357610223610ce1565b6020908102929092013583525081019190915260400160009081205461ffff1691508190036102945760405162461bcd60e51b815260206004820152601760248201527f756e7265636f676e697a656420737263436861696e496400000000000000000060448201526064016101f7565b8383838181106102a6576102a6610ce1565b90506020020160208101906102bb9190610cc4565b61ffff821660009081526003602052604090206001600160a01b039190911690557f9139a67da6e19ecec5385e1a8369fe363a09195dfe90124ec496b70a1fdedc7686868481811061030f5761030f610ce1565b9050602002013585858581811061032857610328610ce1565b905060200201602081019061033d9190610cc4565b604080519283526001600160a01b0390911660208301520160405180910390a15061036781610cf7565b9050610203565b5050505050565b61037d6108ed565b6103876000610947565b565b6103916108ed565b8281146103d25760405162461bcd60e51b815260206004820152600f60248201526e0dad2e6dac2e8c6d040d8cadccee8d608b1b60448201526064016101f7565b60005b8381101561036e578282828181106103ef576103ef610ce1565b90506020020160208101906104049190610a5f565b6001600087878581811061041a5761041a610ce1565b90506020020135815260200190815260200160002060006101000a81548161ffff021916908361ffff16021790555084848281811061045b5761045b610ce1565b905060200201356002600085858581811061047857610478610ce1565b905060200201602081019061048d9190610a5f565b61ffff1681526020810191909152604001600020556104ab81610cf7565b90506103d5565b336001600160a01b037f0000000000000000000000000000000000000000000000000000000000000000161461053a5760405162461bcd60e51b815260206004820152602760248201527f6d73672e73656e646572206973206e6f7420436f726552656c6179657220636f604482015266373a3930b1ba1760c91b60648201526084016101f7565b60008060007f00000000000000000000000000000000000000000000000000000000000000006001600160a01b031663c0fd8bde8660008151811061058157610581610ce1565b60200260200101516040518263ffffffff1660e01b81526004016105a59190610d6e565b600060405180830381865afa1580156105c2573d6000803e3d6000fd5b505050506040513d6000823e601f3d908101601f191682016040526105ea9190810190610ecc565b9250925092508181906106105760405162461bcd60e51b81526004016101f79190610d6e565b506080830151606084015161ffff166000908152600360205260409020541461067b5760405162461bcd60e51b815260206004820152601860248201527f496e76616c696420456d6974746572204164647265737321000000000000000060448201526064016101f7565b6000806000808660e001518060200190518101906106999190611024565b9350935093509350306001600160a01b0316816001600160a01b0316146107025760405162461bcd60e51b815260206004820152601960248201527f4d657373616765206e6f7420666f72207468697320646573740000000000000060448201526064016101f7565b60408088015161014089015160009081526004602052919091205463ffffffff9091169060ff161561074a5760405163153bf81360e31b8152600481018290526024016101f7565b6101408801516000908152600460205260409020805460ff19166001179055606088015161ffff16600090815260026020908152604080832054905183926001600160a01b038916926107a49289928892918d910161109b565b60408051601f19818403018152908290526107be916110dc565b6000604051808303816000865af19150503d80600081146107fb576040519150601f19603f3d011682016040523d82523d6000602084013e610800565b606091505b509150915081610827578281604051632f9c844f60e21b81526004016101f79291906110f8565b60608a015161ffff1660009081526002602052604080822054905185927e769f3f82cb2a521c5b72f211aff687dae3cebd0b4631790417d1b17e15689a91a3505050505050505050505050565b61087c6108ed565b6001600160a01b0381166108e15760405162461bcd60e51b815260206004820152602660248201527f4f776e61626c653a206e6577206f776e657220697320746865207a65726f206160448201526564647265737360d01b60648201526084016101f7565b6108ea81610947565b50565b6000546001600160a01b031633146103875760405162461bcd60e51b815260206004820181905260248201527f4f776e61626c653a2063616c6c6572206973206e6f7420746865206f776e657260448201526064016101f7565b600080546001600160a01b038381166001600160a01b0319831681178455604051919092169283917f8be0079c531659141344cd1fd0a4f28419497f9722a3daafe3b4186f6b6457e09190a35050565b60008083601f8401126109a957600080fd5b50813567ffffffffffffffff8111156109c157600080fd5b6020830191508360208260051b85010111156109dc57600080fd5b9250929050565b600080600080604085870312156109f957600080fd5b843567ffffffffffffffff80821115610a1157600080fd5b610a1d88838901610997565b90965094506020870135915080821115610a3657600080fd5b50610a4387828801610997565b95989497509550505050565b61ffff811681146108ea57600080fd5b600060208284031215610a7157600080fd5b8135610a7c81610a4f565b9392505050565b600060208284031215610a9557600080fd5b5035919050565b634e487b7160e01b600052604160045260246000fd5b6040516080810167ffffffffffffffff81118282101715610ad557610ad5610a9c565b60405290565b604051610160810167ffffffffffffffff81118282101715610ad557610ad5610a9c565b604051601f8201601f1916810167ffffffffffffffff81118282101715610b2857610b28610a9c565b604052919050565b600067ffffffffffffffff821115610b4a57610b4a610a9c565b5060051b60200190565b600067ffffffffffffffff821115610b6e57610b6e610a9c565b50601f01601f191660200190565b600082601f830112610b8d57600080fd5b81356020610ba2610b9d83610b30565b610aff565b82815260059290921b84018101918181019086841115610bc157600080fd5b8286015b84811015610c4057803567ffffffffffffffff811115610be55760008081fd5b8701603f81018913610bf75760008081fd5b848101356040610c09610b9d83610b54565b8281528b82848601011115610c1e5760008081fd5b8282850189830137600092810188019290925250845250918301918301610bc5565b509695505050505050565b60008060408385031215610c5e57600080fd5b823567ffffffffffffffff80821115610c7657600080fd5b610c8286838701610b7c565b93506020850135915080821115610c9857600080fd5b50610ca585828601610b7c565b9150509250929050565b6001600160a01b03811681146108ea57600080fd5b600060208284031215610cd657600080fd5b8135610a7c81610caf565b634e487b7160e01b600052603260045260246000fd5b600060018201610d1757634e487b7160e01b600052601160045260246000fd5b5060010190565b60005b83811015610d39578181015183820152602001610d21565b50506000910152565b60008151808452610d5a816020860160208601610d1e565b601f01601f19169290920160200192915050565b602081526000610a7c6020830184610d42565b805160ff81168114610d9257600080fd5b919050565b805163ffffffff81168114610d9257600080fd5b8051610d9281610a4f565b805167ffffffffffffffff81168114610d9257600080fd5b600082601f830112610ddf57600080fd5b8151610ded610b9d82610b54565b818152846020838601011115610e0257600080fd5b610e13826020830160208701610d1e565b949350505050565b600082601f830112610e2c57600080fd5b81516020610e3c610b9d83610b30565b82815260079290921b84018101918181019086841115610e5b57600080fd5b8286015b84811015610c405760808189031215610e785760008081fd5b610e80610ab2565b8151815284820151858201526040610e99818401610d81565b908201526060610eaa838201610d81565b90820152835291830191608001610e5f565b80518015158114610d9257600080fd5b600080600060608486031215610ee157600080fd5b835167ffffffffffffffff80821115610ef957600080fd5b908501906101608288031215610f0e57600080fd5b610f16610adb565b610f1f83610d81565b8152610f2d60208401610d97565b6020820152610f3e60408401610d97565b6040820152610f4f60608401610dab565b606082015260808301516080820152610f6a60a08401610db6565b60a0820152610f7b60c08401610d81565b60c082015260e083015182811115610f9257600080fd5b610f9e89828601610dce565b60e083015250610100610fb2818501610d97565b908201526101208381015183811115610fca57600080fd5b610fd68a828701610e1b565b918301919091525061014083810151908201529450610ff760208701610ebc565b9350604086015191508082111561100d57600080fd5b5061101a86828701610dce565b9150509250925092565b6000806000806080858703121561103a57600080fd5b845161104581610caf565b602086015190945061105681610caf565b604086015190935067ffffffffffffffff81111561107357600080fd5b61107f87828801610dce565b925050606085015161109081610caf565b939692955090935050565b600085516110ad818460208a01610d1e565b9190910193845250602083019190915260601b6bffffffffffffffffffffffff19166040820152605401919050565b600082516110ee818460208701610d1e565b9190910192915050565b828152604060208201526000610e136040830184610d4256fea264697066735822122001ee9e2383e20aa0b8c5916bd6669bcc1a37985013803dd4c92e38c23e49a5d664736f6c63430008110033",
    "linkReferences": {}
  },
  "methodIdentifiers": {
    "owner()": "8da5cb5b",
    "processedMessages(bytes32)": "88ba16ab",
    "receiveWormholeMessages(bytes[],bytes[])": "cad816ef",
    "renounceOwnership()": "715018a6",
    "senderAdapters(uint16)": "71b49763",
    "setChainIdMap(uint256[],uint16[])": "76fd269a",
    "transferOwnership(address)": "f2fde38b",
    "updateSenderAdapter(uint256[],address[])": "43d61f31"
  },
  "id": 33
}