{
  "abi": [
    {
      "inputs": [
        {
          "internalType": "address",
          "name": "_routerGateway",
          "type": "address"
        }
      ],
      "stateMutability": "nonpayable",
      "type": "constructor"
    },
    {
      "anonymous": false,
      "inputs": [
        {
          "indexed": true,
          "internalType": "bytes32",
          "name": "messageId",
          "type": "bytes32"
        },
        {
          "indexed": true,
          "internalType": "address",
          "name": "from",
          "type": "address"
        },
        {
          "indexed": true,
          "internalType": "uint256",
          "name": "toChainId",
          "type": "uint256"
        },
        {
          "indexed": false,
          "internalType": "address",
          "name": "to",
          "type": "address"
        },
        {
          "indexed": false,
          "internalType": "bytes",
          "name": "data",
          "type": "bytes"
        }
      ],
      "name": "MessageDispatched",
      "type": "event"
    },
    {
      "anonymous": false,
      "inputs": [
        {
          "indexed": true,
          "internalType": "address",
          "name": "previousOwner",
          "type": "address"
        },
        {
          "indexed": true,
          "internalType": "address",
          "name": "newOwner",
          "type": "address"
        }
      ],
      "name": "OwnershipTransferred",
      "type": "event"
    },
    {
      "anonymous": false,
      "inputs": [
        {
          "indexed": false,
          "internalType": "uint256",
          "name": "dstChainId",
          "type": "uint256"
        },
        {
          "indexed": false,
          "internalType": "address",
          "name": "receiverAdapter",
          "type": "address"
        }
      ],
      "name": "ReceiverAdapterUpdated",
      "type": "event"
    },
    {
      "inputs": [
        {
          "internalType": "uint256",
          "name": "_toChainId",
          "type": "uint256"
        },
        {
          "internalType": "address",
          "name": "_to",
          "type": "address"
        },
        {
          "internalType": "bytes",
          "name": "_data",
          "type": "bytes"
        }
      ],
      "name": "dispatchMessage",
      "outputs": [
        {
          "internalType": "bytes32",
          "name": "",
          "type": "bytes32"
        }
      ],
      "stateMutability": "payable",
      "type": "function"
    },
    {
      "inputs": [],
      "name": "getChainId",
      "outputs": [
        {
          "internalType": "uint256",
          "name": "cid",
          "type": "uint256"
        }
      ],
      "stateMutability": "view",
      "type": "function"
    },
    {
      "inputs": [
        {
          "internalType": "uint256",
          "name": "",
          "type": "uint256"
        },
        {
          "internalType": "address",
          "name": "",
          "type": "address"
        },
        {
          "internalType": "bytes",
          "name": "",
          "type": "bytes"
        }
      ],
      "name": "getMessageFee",
      "outputs": [
        {
          "internalType": "uint256",
          "name": "",
          "type": "uint256"
        }
      ],
      "stateMutability": "view",
      "type": "function"
    },
    {
      "inputs": [],
      "name": "name",
      "outputs": [
        {
          "internalType": "string",
          "name": "",
          "type": "string"
        }
      ],
      "stateMutability": "view",
      "type": "function"
    },
    {
      "inputs": [],
      "name": "nonce",
      "outputs": [
        {
          "internalType": "uint256",
          "name": "",
          "type": "uint256"
        }
      ],
      "stateMutability": "view",
      "type": "function"
    },
    {
      "inputs": [],
      "name": "owner",
      "outputs": [
        {
          "internalType": "address",
          "name": "",
          "type": "address"
        }
      ],
      "stateMutability": "view",
      "type": "function"
    },
    {
      "inputs": [
        {
          "internalType": "uint256",
          "name": "",
          "type": "uint256"
        }
      ],
      "name": "receiverAdapters",
      "outputs": [
        {
          "internalType": "address",
          "name": "",
          "type": "address"
        }
      ],
      "stateMutability": "view",
      "type": "function"
    },
    {
      "inputs": [],
      "name": "renounceOwnership",
      "outputs": [],
      "stateMutability": "nonpayable",
      "type": "function"
    },
    {
      "inputs": [],
      "name": "routerGateway",
      "outputs": [
        {
          "internalType": "contract IRouterGateway",
          "name": "",
          "type": "address"
        }
      ],
      "stateMutability": "view",
      "type": "function"
    },
    {
      "inputs": [
        {
          "internalType": "address",
          "name": "a",
          "type": "address"
        }
      ],
      "name": "toBytes",
      "outputs": [
        {
          "internalType": "bytes",
          "name": "b",
          "type": "bytes"
        }
      ],
      "stateMutability": "pure",
      "type": "function"
    },
    {
      "inputs": [
        {
          "internalType": "address",
          "name": "newOwner",
          "type": "address"
        }
      ],
      "name": "transferOwnership",
      "outputs": [],
      "stateMutability": "nonpayable",
      "type": "function"
    },
    {
      "inputs": [
        {
          "internalType": "uint256[]",
          "name": "_dstChainIds",
          "type": "uint256[]"
        },
        {
          "internalType": "address[]",
          "name": "_receiverAdapters",
          "type": "address[]"
        }
      ],
      "name": "updateReceiverAdapter",
      "outputs": [],
      "stateMutability": "nonpayable",
      "type": "function"
    }
  ],
  "bytecode": {
    "object": "0x60a060405234801561001057600080fd5b50604051610f8a380380610f8a83398101604081905261002f91610099565b61003833610049565b6001600160a01b03166080526100c9565b600080546001600160a01b038381166001600160a01b0319831681178455604051919092169283917f8be0079c531659141344cd1fd0a4f28419497f9722a3daafe3b4186f6b6457e09190a35050565b6000602082840312156100ab57600080fd5b81516001600160a01b03811681146100c257600080fd5b9392505050565b608051610e986100f2600039600081816101e50152818161040f01526106fd0152610e986000f3fe6080604052600436106100a75760003560e01c806396732ea21161006457806396732ea2146101d3578063affed0e014610207578063bbec993c1461021d578063c73026961461023d578063f2fde38b1461025d578063fe39827b1461027d57600080fd5b806306fdde03146100ac5780630b3dfc67146100f45780633408e47014610142578063593b79fe1461015f578063715018a61461019e5780638da5cb5b146101b5575b600080fd5b3480156100b857600080fd5b506100de604051806040016040528060068152602001653937baba32b960d11b81525081565b6040516100eb9190610a54565b60405180910390f35b34801561010057600080fd5b5061012a61010f366004610a6e565b6002602052600090815260409020546001600160a01b031681565b6040516001600160a01b0390911681526020016100eb565b34801561014e57600080fd5b50465b6040519081526020016100eb565b34801561016b57600080fd5b506100de61017a366004610aa3565b604080516001600160a01b0392909216600560a21b18601483015260348201905290565b3480156101aa57600080fd5b506101b3610290565b005b3480156101c157600080fd5b506000546001600160a01b031661012a565b3480156101df57600080fd5b5061012a7f000000000000000000000000000000000000000000000000000000000000000081565b34801561021357600080fd5b5061015160015481565b34801561022957600080fd5b506101b3610238366004610b0a565b6102a4565b34801561024957600080fd5b50610151610258366004610b76565b61040b565b34801561026957600080fd5b506101b3610278366004610aa3565b610498565b61015161028b366004610b76565b610511565b610298610788565b6102a260006107e2565b565b6102ac610788565b8281146102f25760405162461bcd60e51b815260206004820152600f60248201526e0dad2e6dac2e8c6d040d8cadccee8d608b1b60448201526064015b60405180910390fd5b60005b838110156104045782828281811061030f5761030f610bfd565b90506020020160208101906103249190610aa3565b6002600087878581811061033a5761033a610bfd565b90506020020135815260200190815260200160002060006101000a8154816001600160a01b0302191690836001600160a01b031602179055507fe6e0801d01ab5bf2b55c3ce96ab43ea0bbf545cc39008a7dc4e8cd5fa881df278585838181106103a6576103a6610bfd565b905060200201358484848181106103bf576103bf610bfd565b90506020020160208101906103d49190610aa3565b604080519283526001600160a01b0390911660208301520160405180910390a16103fd81610c13565b90506102f5565b5050505050565b60007f00000000000000000000000000000000000000000000000000000000000000006001600160a01b0316633827bf8b6040518163ffffffff1660e01b8152600401602060405180830381865afa15801561046b573d6000803e3d6000fd5b505050506040513d601f19601f8201168201806040525081019061048f9190610c3a565b95945050505050565b6104a0610788565b6001600160a01b0381166105055760405162461bcd60e51b815260206004820152602660248201527f4f776e61626c653a206e6577206f776e657220697320746865207a65726f206160448201526564647265737360d01b60648201526084016102e9565b61050e816107e2565b50565b6000848152600260205260408120546001600160a01b031661056b5760405162461bcd60e51b81526020600482015260136024820152723737903932b1b2b4bb32b91030b230b83a32b960691b60448201526064016102e9565b60006105778686610832565b604080516060808201835267ffffffffffffffff82526000602080840182905283850182905284516080810186526205573081529081018290529384018190529394509092919081016105c98a6108a2565b905260408051600180825281830190925291925060009190816020015b60608152602001906001900390816105e65790505090503388888887604051602001610616959493929190610c7f565b6040516020818303038152906040528160008151811061063857610638610bfd565b6020908102919091010152604080516001808252818301909252600091816020015b606081526020019060019003908161065a57505060008b815260026020526040908190205481516001600160a01b03909116600560a21b18601482015260348101909152909150816000815181106106b4576106b4610bfd565b602090810291909101810191909152604080518082018252600080825281840181905282518084018452868152938401859052915163fac1f4af60e01b81526001600160a01b037f0000000000000000000000000000000000000000000000000000000000000000169363fac1f4af933493610736938b938b91600401610da0565b60206040518083038185885af1158015610754573d6000803e3d6000fd5b50505050506040513d601f19601f820116820180604052508101906107799190610e38565b50939998505050505050505050565b6000546001600160a01b031633146102a25760405162461bcd60e51b815260206004820181905260248201527f4f776e61626c653a2063616c6c6572206973206e6f7420746865206f776e657260448201526064016102e9565b600080546001600160a01b038381166001600160a01b0319831681178455604051919092169283917f8be0079c531659141344cd1fd0a4f28419497f9722a3daafe3b4186f6b6457e09190a35050565b60018054604080514660208083019190915281830187905260608083018590526bffffffffffffffffffffffff1930821b811660808501529087901b1660948301528251808303608801815260a8909201909252805191012091600061089783610c13565b919050555092915050565b606060006108af83610935565b600101905060008167ffffffffffffffff8111156108cf576108cf610c69565b6040519080825280601f01601f1916602001820160405280156108f9576020820181803683370190505b5090508181016020015b600019016f181899199a1a9b1b9c1cb0b131b232b360811b600a86061a8153600a850494508461090357509392505050565b60008072184f03e93ff9f4daa797ed6e38ed64bf6a1f0160401b83106109745772184f03e93ff9f4daa797ed6e38ed64bf6a1f0160401b830492506040015b6d04ee2d6d415b85acef810000000083106109a0576d04ee2d6d415b85acef8100000000830492506020015b662386f26fc1000083106109be57662386f26fc10000830492506010015b6305f5e10083106109d6576305f5e100830492506008015b61271083106109ea57612710830492506004015b606483106109fc576064830492506002015b600a8310610a08576001015b92915050565b6000815180845260005b81811015610a3457602081850181015186830182015201610a18565b506000602082860101526020601f19601f83011685010191505092915050565b602081526000610a676020830184610a0e565b9392505050565b600060208284031215610a8057600080fd5b5035919050565b80356001600160a01b0381168114610a9e57600080fd5b919050565b600060208284031215610ab557600080fd5b610a6782610a87565b60008083601f840112610ad057600080fd5b50813567ffffffffffffffff811115610ae857600080fd5b6020830191508360208260051b8501011115610b0357600080fd5b9250929050565b60008060008060408587031215610b2057600080fd5b843567ffffffffffffffff80821115610b3857600080fd5b610b4488838901610abe565b90965094506020870135915080821115610b5d57600080fd5b50610b6a87828801610abe565b95989497509550505050565b60008060008060608587031215610b8c57600080fd5b84359350610b9c60208601610a87565b9250604085013567ffffffffffffffff80821115610bb957600080fd5b818701915087601f830112610bcd57600080fd5b813581811115610bdc57600080fd5b886020828501011115610bee57600080fd5b95989497505060200194505050565b634e487b7160e01b600052603260045260246000fd5b600060018201610c3357634e487b7160e01b600052601160045260246000fd5b5060010190565b600060208284031215610c4c57600080fd5b5051919050565b634e487b7160e01b600052602160045260246000fd5b634e487b7160e01b600052604160045260246000fd5b6001600160a01b0386811682528516602082015260806040820181905281018390526000838560a0840137600060a0858401015260a0601f19601f86011683010190508260608301529695505050505050565b600067ffffffffffffffff80835116845280602084015116602085015280604084015116604085015250606082015160806060850152610d156080850182610a0e565b949350505050565b600081518084526020808501808196508360051b8101915082860160005b85811015610d65578284038952610d53848351610a0e565b98850198935090840190600101610d3b565b5091979650505050505050565b6000815160408452610d876040850182610d1d565b90506020830151848203602086015261048f8282610d1d565b600061010067ffffffffffffffff808951168452602089015115156020850152604089015160038110610dd557610dd5610c53565b604085015260048810610dea57610dea610c53565b8760608501528087511660808501528060208801511660a0850152508060c0840152610e1881840186610cd2565b905082810360e0840152610e2c8185610d72565b98975050505050505050565b600060208284031215610e4a57600080fd5b815167ffffffffffffffff81168114610a6757600080fdfea2646970667358221220c25b351a48f062c586aa61ba3661e2587b15f0beda1c7c2fc3b4709fb4a5acd364736f6c63430008110033",
    "linkReferences": {}
  },
  "methodIdentifiers": {
    "dispatchMessage(uint256,address,bytes)": "fe39827b",
    "getChainId()": "3408e470",
    "getMessageFee(uint256,address,bytes)": "c7302696",
    "name()": "06fdde03",
    "nonce()": "affed0e0",
    "owner()": "8da5cb5b",
    "receiverAdapters(uint256)": "0b3dfc67",
    "renounceOwnership()": "715018a6",
    "routerGateway()": "96732ea2",
    "toBytes(address)": "593b79fe",
    "transferOwnership(address)": "f2fde38b",
    "updateReceiverAdapter(uint256[],address[])": "bbec993c"
  },
  "id": 42
}