{
  "abi": [
    {
      "inputs": [
        {
          "internalType": "address",
          "name": "_mailbox",
          "type": "address"
        },
        {
          "internalType": "address",
          "name": "_igp",
          "type": "address"
        }
      ],
      "stateMutability": "nonpayable",
      "type": "constructor"
    },
    {
      "inputs": [],
      "name": "InvalidAdapterZeroAddress",
      "type": "error"
    },
    {
      "inputs": [],
      "name": "InvalidMailboxZeroAddress",
      "type": "error"
    },
    {
      "inputs": [
        {
          "internalType": "uint256",
          "name": "chainIdsLength",
          "type": "uint256"
        },
        {
          "internalType": "uint256",
          "name": "adaptersLength",
          "type": "uint256"
        }
      ],
      "name": "MismatchChainsAdaptersLength",
      "type": "error"
    },
    {
      "inputs": [
        {
          "internalType": "uint256",
          "name": "chainIdsLength",
          "type": "uint256"
        },
        {
          "internalType": "uint256",
          "name": "domainsLength",
          "type": "uint256"
        }
      ],
      "name": "MismatchChainsDomainsLength",
      "type": "error"
    },
    {
      "inputs": [
        {
          "internalType": "uint256",
          "name": "chainId",
          "type": "uint256"
        }
      ],
      "name": "UnknownDomainId",
      "type": "error"
    },
    {
      "anonymous": false,
      "inputs": [
        {
          "indexed": false,
          "internalType": "uint256",
          "name": "dstChainId",
          "type": "uint256"
        },
        {
          "indexed": false,
          "internalType": "uint32",
          "name": "dstDomainId",
          "type": "uint32"
        }
      ],
      "name": "DestinationDomainUpdated",
      "type": "event"
    },
    {
      "anonymous": false,
      "inputs": [
        {
          "indexed": true,
          "internalType": "address",
          "name": "paymaster",
          "type": "address"
        }
      ],
      "name": "IgpSet",
      "type": "event"
    },
    {
      "anonymous": false,
      "inputs": [
        {
          "indexed": true,
          "internalType": "bytes32",
          "name": "messageId",
          "type": "bytes32"
        },
        {
          "indexed": true,
          "internalType": "address",
          "name": "from",
          "type": "address"
        },
        {
          "indexed": true,
          "internalType": "uint256",
          "name": "toChainId",
          "type": "uint256"
        },
        {
          "indexed": false,
          "internalType": "address",
          "name": "to",
          "type": "address"
        },
        {
          "indexed": false,
          "internalType": "bytes",
          "name": "data",
          "type": "bytes"
        }
      ],
      "name": "MessageDispatched",
      "type": "event"
    },
    {
      "anonymous": false,
      "inputs": [
        {
          "indexed": true,
          "internalType": "address",
          "name": "previousOwner",
          "type": "address"
        },
        {
          "indexed": true,
          "internalType": "address",
          "name": "newOwner",
          "type": "address"
        }
      ],
      "name": "OwnershipTransferred",
      "type": "event"
    },
    {
      "anonymous": false,
      "inputs": [
        {
          "indexed": false,
          "internalType": "uint256",
          "name": "dstChainId",
          "type": "uint256"
        },
        {
          "indexed": false,
          "internalType": "address",
          "name": "receiverAdapter",
          "type": "address"
        }
      ],
      "name": "ReceiverAdapterUpdated",
      "type": "event"
    },
    {
      "inputs": [
        {
          "internalType": "uint256",
          "name": "",
          "type": "uint256"
        }
      ],
      "name": "destinationDomains",
      "outputs": [
        {
          "internalType": "uint32",
          "name": "",
          "type": "uint32"
        }
      ],
      "stateMutability": "view",
      "type": "function"
    },
    {
      "inputs": [
        {
          "internalType": "uint256",
          "name": "_toChainId",
          "type": "uint256"
        },
        {
          "internalType": "address",
          "name": "_to",
          "type": "address"
        },
        {
          "internalType": "bytes",
          "name": "_data",
          "type": "bytes"
        }
      ],
      "name": "dispatchMessage",
      "outputs": [
        {
          "internalType": "bytes32",
          "name": "",
          "type": "bytes32"
        }
      ],
      "stateMutability": "payable",
      "type": "function"
    },
    {
      "inputs": [],
      "name": "getChainId",
      "outputs": [
        {
          "internalType": "uint256",
          "name": "cid",
          "type": "uint256"
        }
      ],
      "stateMutability": "view",
      "type": "function"
    },
    {
      "inputs": [
        {
          "internalType": "uint256",
          "name": "toChainId",
          "type": "uint256"
        },
        {
          "internalType": "address",
          "name": "",
          "type": "address"
        },
        {
          "internalType": "bytes",
          "name": "",
          "type": "bytes"
        }
      ],
      "name": "getMessageFee",
      "outputs": [
        {
          "internalType": "uint256",
          "name": "",
          "type": "uint256"
        }
      ],
      "stateMutability": "view",
      "type": "function"
    },
    {
      "inputs": [],
      "name": "igp",
      "outputs": [
        {
          "internalType": "contract IInterchainGasPaymaster",
          "name": "",
          "type": "address"
        }
      ],
      "stateMutability": "view",
      "type": "function"
    },
    {
      "inputs": [],
      "name": "mailbox",
      "outputs": [
        {
          "internalType": "contract IMailbox",
          "name": "",
          "type": "address"
        }
      ],
      "stateMutability": "view",
      "type": "function"
    },
    {
      "inputs": [],
      "name": "name",
      "outputs": [
        {
          "internalType": "string",
          "name": "",
          "type": "string"
        }
      ],
      "stateMutability": "view",
      "type": "function"
    },
    {
      "inputs": [],
      "name": "nonce",
      "outputs": [
        {
          "internalType": "uint256",
          "name": "",
          "type": "uint256"
        }
      ],
      "stateMutability": "view",
      "type": "function"
    },
    {
      "inputs": [],
      "name": "owner",
      "outputs": [
        {
          "internalType": "address",
          "name": "",
          "type": "address"
        }
      ],
      "stateMutability": "view",
      "type": "function"
    },
    {
      "inputs": [
        {
          "internalType": "uint256",
          "name": "",
          "type": "uint256"
        }
      ],
      "name": "receiverAdapters",
      "outputs": [
        {
          "internalType": "address",
          "name": "",
          "type": "address"
        }
      ],
      "stateMutability": "view",
      "type": "function"
    },
    {
      "inputs": [],
      "name": "renounceOwnership",
      "outputs": [],
      "stateMutability": "nonpayable",
      "type": "function"
    },
    {
      "inputs": [
        {
          "internalType": "address",
          "name": "_igp",
          "type": "address"
        }
      ],
      "name": "setIgp",
      "outputs": [],
      "stateMutability": "nonpayable",
      "type": "function"
    },
    {
      "inputs": [
        {
          "internalType": "address",
          "name": "newOwner",
          "type": "address"
        }
      ],
      "name": "transferOwnership",
      "outputs": [],
      "stateMutability": "nonpayable",
      "type": "function"
    },
    {
      "inputs": [
        {
          "internalType": "uint256[]",
          "name": "_dstChainIds",
          "type": "uint256[]"
        },
        {
          "internalType": "uint32[]",
          "name": "_dstDomainIds",
          "type": "uint32[]"
        }
      ],
      "name": "updateDestinationDomainIds",
      "outputs": [],
      "stateMutability": "nonpayable",
      "type": "function"
    },
    {
      "inputs": [
        {
          "internalType": "uint256[]",
          "name": "_dstChainIds",
          "type": "uint256[]"
        },
        {
          "internalType": "address[]",
          "name": "_receiverAdapters",
          "type": "address[]"
        }
      ],
      "name": "updateReceiverAdapter",
      "outputs": [],
      "stateMutability": "nonpayable",
      "type": "function"
    }
  ],
  "bytecode": {
    "object": "0x60a060405234801561001057600080fd5b5060405161101738038061101783398101604081905261002f91610134565b6100383361007c565b6001600160a01b03821661005f5760405163556d2c4d60e11b815260040160405180910390fd5b6001600160a01b038216608052610075816100ce565b5050610167565b600180546001600160a01b038381166001600160a01b0319831681179093556040519116919082907f8be0079c531659141344cd1fd0a4f28419497f9722a3daafe3b4186f6b6457e090600090a35050565b600280546001600160a01b0319166001600160a01b0383169081179091556040517fbd1330cfff8c8896e9386b9d2f9c235037da05a02669df9c56f98f2542931a6d90600090a250565b80516001600160a01b038116811461012f57600080fd5b919050565b6000806040838503121561014757600080fd5b61015083610118565b915061015e60208401610118565b90509250929050565b608051610e8e610189600039600081816102c801526107940152610e8e6000f3fe6080604052600436106100e85760003560e01c8063affed0e01161008a578063d5438eae11610059578063d5438eae146102b6578063f28b2daa146102ea578063f2fde38b1461030a578063fe39827b1461032a57600080fd5b8063affed0e014610240578063bbec993c14610256578063c2c58d7914610276578063c73026961461029657600080fd5b80633408e470116100c65780633408e470146101a8578063715018a6146101c557806389aad5dc146101da5780638da5cb5b1461022257600080fd5b806306fdde03146100ed5780630b3dfc67146101385780633152d80714610186575b600080fd5b3480156100f957600080fd5b506101226040518060400160405280600981526020016868797065726c616e6560b81b81525081565b60405161012f9190610b57565b60405180910390f35b34801561014457600080fd5b5061016e610153366004610b71565b6003602052600090815260409020546001600160a01b031681565b6040516001600160a01b03909116815260200161012f565b34801561019257600080fd5b506101a66101a1366004610b9f565b61033d565b005b3480156101b457600080fd5b50465b60405190815260200161012f565b3480156101d157600080fd5b506101a6610351565b3480156101e657600080fd5b5061020d6101f5366004610b71565b60046020526000908152604090205463ffffffff1681565b60405163ffffffff909116815260200161012f565b34801561022e57600080fd5b506001546001600160a01b031661016e565b34801561024c57600080fd5b506101b760005481565b34801561026257600080fd5b506101a6610271366004610c08565b610365565b34801561028257600080fd5b506101a6610291366004610c08565b6104b5565b3480156102a257600080fd5b506101b76102b1366004610c74565b6105f0565b3480156102c257600080fd5b5061016e7f000000000000000000000000000000000000000000000000000000000000000081565b3480156102f657600080fd5b5060025461016e906001600160a01b031681565b34801561031657600080fd5b506101a6610325366004610b9f565b61069a565b6101b7610338366004610c74565b610710565b6103456109ac565b61034e81610a06565b50565b6103596109ac565b6103636000610a50565b565b61036d6109ac565b82811461039c576040516301ff5cb560e31b815260048101849052602481018290526044015b60405180910390fd5b60005b838110156104ae578282828181106103b9576103b9610cfd565b90506020020160208101906103ce9190610b9f565b600360008787858181106103e4576103e4610cfd565b90506020020135815260200190815260200160002060006101000a8154816001600160a01b0302191690836001600160a01b031602179055507fe6e0801d01ab5bf2b55c3ce96ab43ea0bbf545cc39008a7dc4e8cd5fa881df2785858381811061045057610450610cfd565b9050602002013584848481811061046957610469610cfd565b905060200201602081019061047e9190610b9f565b604080519283526001600160a01b0390911660208301520160405180910390a16104a781610d13565b905061039f565b5050505050565b6104bd6109ac565b8281146104e757604051634329709960e11b81526004810184905260248101829052604401610393565b60005b838110156104ae5782828281811061050457610504610cfd565b90506020020160208101906105199190610d3a565b6004600087878581811061052f5761052f610cfd565b90506020020135815260200190815260200160002060006101000a81548163ffffffff021916908363ffffffff1602179055507ffdea0129ed6e3b403e23d83f5b40bc1ac8efd25545e78746d65ac42fe074722585858381811061059557610595610cfd565b905060200201358484848181106105ae576105ae610cfd565b90506020020160208101906105c39190610d3a565b6040805192835263ffffffff90911660208301520160405180910390a16105e981610d13565b90506104ea565b600084815260046020526040812054819063ffffffff1660025460405163a692979360e01b815263ffffffff831660048201526207a12060248201529192506001600160a01b03169063a692979390604401602060405180830381865afa92505050801561067b575060408051601f3d908101601f1916820190925261067891810190610d60565b60015b610689576000915050610692565b91506106929050565b949350505050565b6106a26109ac565b6001600160a01b0381166107075760405162461bcd60e51b815260206004820152602660248201527f4f776e61626c653a206e6577206f776e657220697320746865207a65726f206160448201526564647265737360d01b6064820152608401610393565b61034e81610a50565b6000848152600360205260408120546001600160a01b03168061074657604051632710b2d160e11b815260040160405180910390fd5b60006107528787610aa2565b60008881526004602052604081205491925063ffffffff909116908190036107905760405163043f099160e11b815260048101899052602401610393565b60007f00000000000000000000000000000000000000000000000000000000000000006001600160a01b031663fa31de01836107d2876001600160a01b031690565b4687338e8e8e6040516020016107ed96959493929190610da2565b6040516020818303038152906040526040518463ffffffff1660e01b815260040161081a93929190610de8565b6020604051808303816000875af1158015610839573d6000803e3d6000fd5b505050506040513d601f19601f8201168201806040525081019061085d9190610d60565b9050600260009054906101000a90046001600160a01b03166001600160a01b03166311bf2c183483856207a120336001600160a01b031663fc9c8d396040518163ffffffff1660e01b8152600401602060405180830381865afa1580156108c8573d6000803e3d6000fd5b505050506040513d601f19601f820116820180604052508101906108ec9190610e16565b6040516001600160e01b031960e088901b168152600481019490945263ffffffff92909216602484015260448301526001600160a01b031660648201526084016000604051808303818588803b15801561094557600080fd5b505af193505050508015610957575060015b5088336001600160a01b0316847fe2f8f20ddbedfce5eb59a8b930077e7f4906a01300b9318db5f90d1c96c7b6d48b8b8b60405161099793929190610e33565b60405180910390a45090979650505050505050565b6001546001600160a01b031633146103635760405162461bcd60e51b815260206004820181905260248201527f4f776e61626c653a2063616c6c6572206973206e6f7420746865206f776e65726044820152606401610393565b600280546001600160a01b0319166001600160a01b0383169081179091556040517fbd1330cfff8c8896e9386b9d2f9c235037da05a02669df9c56f98f2542931a6d90600090a250565b600180546001600160a01b038381166001600160a01b0319831681179093556040519116919082907f8be0079c531659141344cd1fd0a4f28419497f9722a3daafe3b4186f6b6457e090600090a35050565b60008054604080514660208083019190915281830187905260608083018590526bffffffffffffffffffffffff1930821b811660808501529087901b1660948301528251808303608801815260a890920190925280519101209180610b0683610d13565b919050555092915050565b6000815180845260005b81811015610b3757602081850181015186830182015201610b1b565b506000602082860101526020601f19601f83011685010191505092915050565b602081526000610b6a6020830184610b11565b9392505050565b600060208284031215610b8357600080fd5b5035919050565b6001600160a01b038116811461034e57600080fd5b600060208284031215610bb157600080fd5b8135610b6a81610b8a565b60008083601f840112610bce57600080fd5b50813567ffffffffffffffff811115610be657600080fd5b6020830191508360208260051b8501011115610c0157600080fd5b9250929050565b60008060008060408587031215610c1e57600080fd5b843567ffffffffffffffff80821115610c3657600080fd5b610c4288838901610bbc565b90965094506020870135915080821115610c5b57600080fd5b50610c6887828801610bbc565b95989497509550505050565b60008060008060608587031215610c8a57600080fd5b843593506020850135610c9c81610b8a565b9250604085013567ffffffffffffffff80821115610cb957600080fd5b818701915087601f830112610ccd57600080fd5b813581811115610cdc57600080fd5b886020828501011115610cee57600080fd5b95989497505060200194505050565b634e487b7160e01b600052603260045260246000fd5b600060018201610d3357634e487b7160e01b600052601160045260246000fd5b5060010190565b600060208284031215610d4c57600080fd5b813563ffffffff81168114610b6a57600080fd5b600060208284031215610d7257600080fd5b5051919050565b81835281816020850137506000828201602090810191909152601f909101601f19169091010190565b868152602081018690526001600160a01b0385811660408301528416606082015260a060808201819052600090610ddc9083018486610d79565b98975050505050505050565b63ffffffff84168152826020820152606060408201526000610e0d6060830184610b11565b95945050505050565b600060208284031215610e2857600080fd5b8151610b6a81610b8a565b6001600160a01b0384168152604060208201819052600090610e0d9083018486610d7956fea26469706673582212200c3543e331abe16d055e406ce81c33ae5dfff765e3336d930e5d283bcf57c09964736f6c63430008110033",
    "linkReferences": {}
  },
  "methodIdentifiers": {
    "destinationDomains(uint256)": "89aad5dc",
    "dispatchMessage(uint256,address,bytes)": "fe39827b",
    "getChainId()": "3408e470",
    "getMessageFee(uint256,address,bytes)": "c7302696",
    "igp()": "f28b2daa",
    "mailbox()": "d5438eae",
    "name()": "06fdde03",
    "nonce()": "affed0e0",
    "owner()": "8da5cb5b",
    "receiverAdapters(uint256)": "0b3dfc67",
    "renounceOwnership()": "715018a6",
    "setIgp(address)": "3152d807",
    "transferOwnership(address)": "f2fde38b",
    "updateDestinationDomainIds(uint256[],uint32[])": "c2c58d79",
    "updateReceiverAdapter(uint256[],address[])": "bbec993c"
  },
  "id": 23
}