{
  "abi": [
    {
      "inputs": [],
      "stateMutability": "nonpayable",
      "type": "constructor"
    },
    {
      "inputs": [],
      "name": "AdminBadRole",
      "type": "error"
    },
    {
      "inputs": [],
      "name": "CallerBadRole",
      "type": "error"
    },
    {
      "anonymous": false,
      "inputs": [
        {
          "indexed": true,
          "internalType": "bytes32",
          "name": "role",
          "type": "bytes32"
        },
        {
          "indexed": true,
          "internalType": "bytes32",
          "name": "previousAdminRole",
          "type": "bytes32"
        },
        {
          "indexed": true,
          "internalType": "bytes32",
          "name": "newAdminRole",
          "type": "bytes32"
        }
      ],
      "name": "RoleAdminChanged",
      "type": "event"
    },
    {
      "anonymous": false,
      "inputs": [
        {
          "indexed": true,
          "internalType": "bytes32",
          "name": "role",
          "type": "bytes32"
        },
        {
          "indexed": true,
          "internalType": "address",
          "name": "account",
          "type": "address"
        },
        {
          "indexed": true,
          "internalType": "address",
          "name": "sender",
          "type": "address"
        }
      ],
      "name": "RoleGranted",
      "type": "event"
    },
    {
      "anonymous": false,
      "inputs": [
        {
          "indexed": true,
          "internalType": "bytes32",
          "name": "role",
          "type": "bytes32"
        },
        {
          "indexed": true,
          "internalType": "address",
          "name": "account",
          "type": "address"
        },
        {
          "indexed": true,
          "internalType": "address",
          "name": "sender",
          "type": "address"
        }
      ],
      "name": "RoleRevoked",
      "type": "event"
    },
    {
      "inputs": [],
      "name": "CALLER_ROLE",
      "outputs": [
        {
          "internalType": "bytes32",
          "name": "",
          "type": "bytes32"
        }
      ],
      "stateMutability": "view",
      "type": "function"
    },
    {
      "inputs": [],
      "name": "DEFAULT_ADMIN_ROLE",
      "outputs": [
        {
          "internalType": "bytes32",
          "name": "",
          "type": "bytes32"
        }
      ],
      "stateMutability": "view",
      "type": "function"
    },
    {
      "inputs": [
        {
          "internalType": "address[]",
          "name": "_senderAdapters",
          "type": "address[]"
        }
      ],
      "name": "addSenderAdapters",
      "outputs": [],
      "stateMutability": "nonpayable",
      "type": "function"
    },
    {
      "inputs": [],
      "name": "bridgeSender",
      "outputs": [
        {
          "internalType": "contract MultiMessageSender",
          "name": "",
          "type": "address"
        }
      ],
      "stateMutability": "view",
      "type": "function"
    },
    {
      "inputs": [],
      "name": "drainNativeToken",
      "outputs": [],
      "stateMutability": "nonpayable",
      "type": "function"
    },
    {
      "inputs": [
        {
          "internalType": "bytes32",
          "name": "role",
          "type": "bytes32"
        }
      ],
      "name": "getRoleAdmin",
      "outputs": [
        {
          "internalType": "bytes32",
          "name": "",
          "type": "bytes32"
        }
      ],
      "stateMutability": "view",
      "type": "function"
    },
    {
      "inputs": [
        {
          "internalType": "bytes32",
          "name": "role",
          "type": "bytes32"
        },
        {
          "internalType": "address",
          "name": "account",
          "type": "address"
        }
      ],
      "name": "grantRole",
      "outputs": [],
      "stateMutability": "nonpayable",
      "type": "function"
    },
    {
      "inputs": [
        {
          "internalType": "bytes32",
          "name": "role",
          "type": "bytes32"
        },
        {
          "internalType": "address",
          "name": "account",
          "type": "address"
        }
      ],
      "name": "hasRole",
      "outputs": [
        {
          "internalType": "bool",
          "name": "",
          "type": "bool"
        }
      ],
      "stateMutability": "view",
      "type": "function"
    },
    {
      "inputs": [
        {
          "internalType": "uint64",
          "name": "_dstChainId",
          "type": "uint64"
        },
        {
          "internalType": "address",
          "name": "_multiMessageReceiver",
          "type": "address"
        },
        {
          "internalType": "address",
          "name": "_target",
          "type": "address"
        },
        {
          "internalType": "bytes",
          "name": "_callData",
          "type": "bytes"
        }
      ],
      "name": "remoteCall",
      "outputs": [],
      "stateMutability": "payable",
      "type": "function"
    },
    {
      "inputs": [
        {
          "internalType": "address[]",
          "name": "_senderAdapters",
          "type": "address[]"
        }
      ],
      "name": "removeSenderAdapters",
      "outputs": [],
      "stateMutability": "nonpayable",
      "type": "function"
    },
    {
      "inputs": [
        {
          "internalType": "bytes32",
          "name": "role",
          "type": "bytes32"
        },
        {
          "internalType": "address",
          "name": "account",
          "type": "address"
        }
      ],
      "name": "renounceRole",
      "outputs": [],
      "stateMutability": "nonpayable",
      "type": "function"
    },
    {
      "inputs": [
        {
          "internalType": "bytes32",
          "name": "role",
          "type": "bytes32"
        },
        {
          "internalType": "address",
          "name": "account",
          "type": "address"
        }
      ],
      "name": "revokeRole",
      "outputs": [],
      "stateMutability": "nonpayable",
      "type": "function"
    },
    {
      "inputs": [
        {
          "internalType": "contract MultiMessageSender",
          "name": "_bridgeSender",
          "type": "address"
        }
      ],
      "name": "setMultiMessageSender",
      "outputs": [],
      "stateMutability": "nonpayable",
      "type": "function"
    },
    {
      "inputs": [
        {
          "internalType": "bytes4",
          "name": "interfaceId",
          "type": "bytes4"
        }
      ],
      "name": "supportsInterface",
      "outputs": [
        {
          "internalType": "bool",
          "name": "",
          "type": "bool"
        }
      ],
      "stateMutability": "view",
      "type": "function"
    },
    {
      "stateMutability": "payable",
      "type": "receive"
    }
  ],
  "bytecode": {
    "object": "0x608060405234801561001057600080fd5b5061001c600033610021565b6100cd565b61002b828261002f565b5050565b6000828152602081815260408083206001600160a01b038516845290915290205460ff1661002b576000828152602081815260408083206001600160a01b03851684529091529020805460ff191660011790556100893390565b6001600160a01b0316816001600160a01b0316837f2f8788117e7eff1d82e926ec794901d17c78024a50270940304540a733656f0d60405160405180910390a45050565b610e79806100dc6000396000f3fe6080604052600436106100e15760003560e01c806391d148541161007f578063cbf61e2b11610059578063cbf61e2b14610283578063cd38868514610298578063d547741f146102b8578063e016caa5146102d857600080fd5b806391d148541461022e578063a217fddf1461024e578063b22211781461026357600080fd5b806336568abe116100bb57806336568abe1461018257806353e7d7e6146101a2578063774237fc146101c25780638bd43d98146101f657600080fd5b806301ffc9a7146100ed578063248a9ca3146101225780632f2ff15d1461016057600080fd5b366100e857005b600080fd5b3480156100f957600080fd5b5061010d6101083660046109f0565b6102eb565b60405190151581526020015b60405180910390f35b34801561012e57600080fd5b5061015261013d366004610a1a565b60009081526020819052604090206001015490565b604051908152602001610119565b34801561016c57600080fd5b5061018061017b366004610a48565b610322565b005b34801561018e57600080fd5b5061018061019d366004610a48565b61034c565b3480156101ae57600080fd5b506101806101bd366004610a78565b6103cf565b3480156101ce57600080fd5b506101527f69fb73f918fab3af495c0a457de635771a39f3d6cfedc797ae0b5bb56c83c6f781565b34801561020257600080fd5b50600154610216906001600160a01b031681565b6040516001600160a01b039091168152602001610119565b34801561023a57600080fd5b5061010d610249366004610a48565b610419565b34801561025a57600080fd5b50610152600081565b34801561026f57600080fd5b5061018061027e366004610a95565b610442565b34801561028f57600080fd5b506101806104d5565b3480156102a457600080fd5b506101806102b3366004610a95565b610534565b3480156102c457600080fd5b506101806102d3366004610a48565b610591565b6101806102e6366004610b0a565b6105b6565b60006001600160e01b03198216637965db0b60e01b148061031c57506301ffc9a760e01b6001600160e01b03198316145b92915050565b60008281526020819052604090206001015461033d816106ef565b61034783836106f9565b505050565b6001600160a01b03811633146103c15760405162461bcd60e51b815260206004820152602f60248201527f416363657373436f6e74726f6c3a2063616e206f6e6c792072656e6f756e636560448201526e103937b632b9903337b91039b2b63360891b60648201526084015b60405180910390fd5b6103cb828261077d565b5050565b6103da600033610419565b6103f757604051636f4720fd60e11b815260040160405180910390fd5b600180546001600160a01b0319166001600160a01b0392909216919091179055565b6000918252602082815260408084206001600160a01b0393909316845291905290205460ff1690565b61044d600033610419565b61046a57604051636f4720fd60e11b815260040160405180910390fd5b600154604051634369de9760e01b81526001600160a01b0390911690634369de979061049f9060009086908690600401610bbd565b600060405180830381600087803b1580156104b957600080fd5b505af11580156104cd573d6000803e3d6000fd5b505050505050565b6104e0600033610419565b6104fd57604051636f4720fd60e11b815260040160405180910390fd5b47801561053157604051339082156108fc029083906000818181858888f193505050501580156103cb573d6000803e3d6000fd5b50565b61053f600033610419565b61055c57604051636f4720fd60e11b815260040160405180910390fd5b600154604051635d71ebaf60e01b81526001600160a01b0390911690635d71ebaf9061049f9060009086908690600401610bbd565b6000828152602081905260409020600101546105ac816106ef565b610347838361077d565b6105e07f69fb73f918fab3af495c0a457de635771a39f3d6cfedc797ae0b5bb56c83c6f733610419565b6105fd576040516378d62e2f60e01b815260040160405180910390fd5b60015460405163e113782f60e01b81526000916001600160a01b03169063e113782f906106369089908990899089908990600401610c3e565b602060405180830381865afa158015610653573d6000803e3d6000fd5b505050506040513d601f19601f820116820180604052508101906106779190610c86565b600154604051632218d01d60e21b81529192506001600160a01b03169063886340749083906106b5908a908a908a908a908a90600090600401610c9f565b6000604051808303818588803b1580156106ce57600080fd5b505af11580156106e2573d6000803e3d6000fd5b5050505050505050505050565b61053181336107e2565b6107038282610419565b6103cb576000828152602081815260408083206001600160a01b03851684529091529020805460ff191660011790556107393390565b6001600160a01b0316816001600160a01b0316837f2f8788117e7eff1d82e926ec794901d17c78024a50270940304540a733656f0d60405160405180910390a45050565b6107878282610419565b156103cb576000828152602081815260408083206001600160a01b0385168085529252808320805460ff1916905551339285917ff6391f5c32d9c69d2a47ea670b442974b53935d1edc7fd64eb21e047a839171b9190a45050565b6107ec8282610419565b6103cb576107f98161083b565b61080483602061084d565b604051602001610815929190610d18565b60408051601f198184030181529082905262461bcd60e51b82526103b891600401610d8d565b606061031c6001600160a01b03831660145b6060600061085c836002610dd6565b610867906002610ded565b67ffffffffffffffff81111561087f5761087f610e00565b6040519080825280601f01601f1916602001820160405280156108a9576020820181803683370190505b509050600360fc1b816000815181106108c4576108c4610e16565b60200101906001600160f81b031916908160001a905350600f60fb1b816001815181106108f3576108f3610e16565b60200101906001600160f81b031916908160001a9053506000610917846002610dd6565b610922906001610ded565b90505b600181111561099a576f181899199a1a9b1b9c1cb0b131b232b360811b85600f166010811061095657610956610e16565b1a60f81b82828151811061096c5761096c610e16565b60200101906001600160f81b031916908160001a90535060049490941c9361099381610e2c565b9050610925565b5083156109e95760405162461bcd60e51b815260206004820181905260248201527f537472696e67733a20686578206c656e67746820696e73756666696369656e7460448201526064016103b8565b9392505050565b600060208284031215610a0257600080fd5b81356001600160e01b0319811681146109e957600080fd5b600060208284031215610a2c57600080fd5b5035919050565b6001600160a01b038116811461053157600080fd5b60008060408385031215610a5b57600080fd5b823591506020830135610a6d81610a33565b809150509250929050565b600060208284031215610a8a57600080fd5b81356109e981610a33565b60008060208385031215610aa857600080fd5b823567ffffffffffffffff80821115610ac057600080fd5b818501915085601f830112610ad457600080fd5b813581811115610ae357600080fd5b8660208260051b8501011115610af857600080fd5b60209290920196919550909350505050565b600080600080600060808688031215610b2257600080fd5b853567ffffffffffffffff8082168214610b3b57600080fd5b909550602087013590610b4d82610a33565b909450604087013590610b5f82610a33565b90935060608701359080821115610b7557600080fd5b818801915088601f830112610b8957600080fd5b813581811115610b9857600080fd5b896020828501011115610baa57600080fd5b9699959850939650602001949392505050565b83815260406020808301829052908201839052600090849060608401835b86811015610c09578335610bee81610a33565b6001600160a01b031682529282019290820190600101610bdb565b50979650505050505050565b81835281816020850137506000828201602090810191909152601f909101601f19169091010190565b67ffffffffffffffff861681526001600160a01b03858116602083015284166040820152608060608201819052600090610c7b9083018486610c15565b979650505050505050565b600060208284031215610c9857600080fd5b5051919050565b67ffffffffffffffff87811682526001600160a01b0387811660208401528616604083015260a06060830181905260009190610cde9084018688610c15565b9150808416608084015250979650505050505050565b60005b83811015610d0f578181015183820152602001610cf7565b50506000910152565b7f416363657373436f6e74726f6c3a206163636f756e7420000000000000000000815260008351610d50816017850160208801610cf4565b7001034b99036b4b9b9b4b733903937b6329607d1b6017918401918201528351610d81816028840160208801610cf4565b01602801949350505050565b6020815260008251806020840152610dac816040850160208701610cf4565b601f01601f19169190910160400192915050565b634e487b7160e01b600052601160045260246000fd5b808202811582820484141761031c5761031c610dc0565b8082018082111561031c5761031c610dc0565b634e487b7160e01b600052604160045260246000fd5b634e487b7160e01b600052603260045260246000fd5b600081610e3b57610e3b610dc0565b50600019019056fea2646970667358221220214c77f544f84a21347c6c24a2a510680830738e29e77dc91f686ec6f4c791bd64736f6c63430008110033",
    "linkReferences": {}
  },
  "methodIdentifiers": {
    "CALLER_ROLE()": "774237fc",
    "DEFAULT_ADMIN_ROLE()": "a217fddf",
    "addSenderAdapters(address[])": "b2221178",
    "bridgeSender()": "8bd43d98",
    "drainNativeToken()": "cbf61e2b",
    "getRoleAdmin(bytes32)": "248a9ca3",
    "grantRole(bytes32,address)": "2f2ff15d",
    "hasRole(bytes32,address)": "91d14854",
    "remoteCall(uint64,address,address,bytes)": "e016caa5",
    "removeSenderAdapters(address[])": "cd388685",
    "renounceRole(bytes32,address)": "36568abe",
    "revokeRole(bytes32,address)": "d547741f",
    "setMultiMessageSender(address)": "53e7d7e6",
    "supportsInterface(bytes4)": "01ffc9a7"
  },
  "id": 54
}